{
	"derek_santos_smartcontract.sol": {
		"RegistroDeUsuariosComRecompensa": {
			"abi": [
				{
					"anonymous": false,
					"inputs": [
						{
							"indexed": true,
							"internalType": "address",
							"name": "endereco",
							"type": "address"
						},
						{
							"indexed": false,
							"internalType": "uint256",
							"name": "valor",
							"type": "uint256"
						},
						{
							"indexed": false,
							"internalType": "string",
							"name": "motivo",
							"type": "string"
						}
					],
					"name": "RecompensaEnviada",
					"type": "event"
				},
				{
					"anonymous": false,
					"inputs": [
						{
							"indexed": true,
							"internalType": "address",
							"name": "endereco",
							"type": "address"
						},
						{
							"indexed": false,
							"internalType": "string",
							"name": "nome",
							"type": "string"
						},
						{
							"indexed": false,
							"internalType": "uint256",
							"name": "dataRegistro",
							"type": "uint256"
						}
					],
					"name": "UsuarioRegistrado",
					"type": "event"
				},
				{
					"inputs": [],
					"name": "RECOMPENSA_POR_USUARIO",
					"outputs": [
						{
							"internalType": "uint256",
							"name": "",
							"type": "uint256"
						}
					],
					"stateMutability": "view",
					"type": "function"
				},
				{
					"inputs": [
						{
							"internalType": "address",
							"name": "carteira",
							"type": "address"
						}
					],
					"name": "consultarUsuario",
					"outputs": [
						{
							"internalType": "string",
							"name": "nome",
							"type": "string"
						},
						{
							"internalType": "uint256",
							"name": "dataRegistro",
							"type": "uint256"
						},
						{
							"internalType": "bool",
							"name": "ativo",
							"type": "bool"
						},
						{
							"internalType": "uint256",
							"name": "saldoToken",
							"type": "uint256"
						}
					],
					"stateMutability": "view",
					"type": "function"
				},
				{
					"inputs": [],
					"name": "desativarConta",
					"outputs": [],
					"stateMutability": "nonpayable",
					"type": "function"
				},
				{
					"inputs": [
						{
							"internalType": "address",
							"name": "carteira",
							"type": "address"
						}
					],
					"name": "recompensarUsuario",
					"outputs": [],
					"stateMutability": "nonpayable",
					"type": "function"
				},
				{
					"inputs": [
						{
							"internalType": "string",
							"name": "nome",
							"type": "string"
						}
					],
					"name": "registrarUsuario",
					"outputs": [],
					"stateMutability": "nonpayable",
					"type": "function"
				},
				{
					"inputs": [
						{
							"internalType": "address",
							"name": "",
							"type": "address"
						}
					],
					"name": "saldosTokens",
					"outputs": [
						{
							"internalType": "uint256",
							"name": "",
							"type": "uint256"
						}
					],
					"stateMutability": "view",
					"type": "function"
				},
				{
					"inputs": [],
					"name": "totalUsuarios",
					"outputs": [
						{
							"internalType": "uint256",
							"name": "",
							"type": "uint256"
						}
					],
					"stateMutability": "view",
					"type": "function"
				},
				{
					"inputs": [
						{
							"internalType": "address",
							"name": "",
							"type": "address"
						}
					],
					"name": "usuarios",
					"outputs": [
						{
							"internalType": "string",
							"name": "nome",
							"type": "string"
						},
						{
							"internalType": "uint256",
							"name": "dataRegistro",
							"type": "uint256"
						},
						{
							"internalType": "bool",
							"name": "ativo",
							"type": "bool"
						}
					],
					"stateMutability": "view",
					"type": "function"
				},
				{
					"inputs": [
						{
							"internalType": "address",
							"name": "carteira",
							"type": "address"
						}
					],
					"name": "verificarRegistro",
					"outputs": [
						{
							"internalType": "bool",
							"name": "",
							"type": "bool"
						}
					],
					"stateMutability": "view",
					"type": "function"
				}
			],
			"devdoc": {
				"details": "Contrato inteligente para registro de usuários e distribuição de recompensas em tokens simulados  CONCEITOS EXPLICATIVOS:  1. O QUE É GAS?    - Gas é a unidade que mede o esforço computacional necessário para executar operações na Ethereum    - Cada operação consome uma quantidade específica de gas (ex: adicionar números = 3 gas, armazenar dados = 20.000 gas)    - Os usuários pagam gas em ETH para executar transações no contrato    - Sem gas suficiente, a transação falha e o gas já consumido não é reembolsado  2. COMO FUNCIONA A EVM (Ethereum Virtual Machine)?    - A EVM é o ambiente de execução descentralizado onde todos os smart contracts rodam    - É uma máquina de estados que processa transações e atualiza o estado global da blockchain    - Cada nó na rede executa as mesmas instruções para chegar ao mesmo resultado (consenso)    - O código Solidity é compilado para bytecode que a EVM pode interpretar  3. DIFERENÇA PARA CONTRATOS TRADICIONAIS:    - Contratos tradicionais: executados em servidores centralizados, podem ser alterados pelo administrador    - Smart Contracts: executados na blockchain, imutáveis após deploy, execução automática quando condições são atendidas    - Contratos tradicionais: confiança nas partes envolvidas    - Smart Contracts: confiança no código e na rede descentralizada",
				"events": {
					"RecompensaEnviada(address,uint256,string)": {
						"details": "Evento emitido quando uma recompensa é enviada",
						"params": {
							"endereco": "Endereço da carteira que recebeu",
							"motivo": "Motivo da recompensa",
							"valor": "Quantidade de tokens recompensados"
						}
					},
					"UsuarioRegistrado(address,string,uint256)": {
						"details": "Evento emitido quando um novo usuário é registrado",
						"params": {
							"dataRegistro": "Data do registro",
							"endereco": "Endereço da carteira do usuário",
							"nome": "Nome do usuário"
						}
					}
				},
				"kind": "dev",
				"methods": {
					"consultarUsuario(address)": {
						"details": "Consulta informações de um usuário pelo endereço da carteira",
						"params": {
							"carteira": "Endereço da carteira a consultar"
						},
						"returns": {
							"ativo": "Status de atividade",
							"dataRegistro": "Data do registro",
							"nome": "Nome do usuário",
							"saldoToken": "Saldo de tokens do usuário"
						}
					},
					"desativarConta()": {
						"details": "Permite que um usuário desative sua conta"
					},
					"recompensarUsuario(address)": {
						"details": "Distribui recompensa de tokens para um usuário",
						"params": {
							"carteira": "Endereço da carteira que receberá a recompensa  SEGURANÇA: - require() verifica se o usuário está registrado - Impede recompensas para usuários inativos - Valida que o endereço não é zero"
						}
					},
					"registrarUsuario(string)": {
						"details": "Registra um novo usuário no sistema",
						"params": {
							"nome": "Nome do usuário a ser registrado  SEGURANÇA: - require() verifica se o usuário já existe (evita duplicação) - Verifica se o nome não está vazio - Apenas endereços válidos podem registrar  GAS: Esta função consome mais gas pois armazena dados na blockchain"
						}
					},
					"verificarRegistro(address)": {
						"details": "Verifica se um endereço específico está registrado",
						"params": {
							"carteira": "Endereço a verificar"
						},
						"returns": {
							"_0": "true se registrado, false caso contrário"
						}
					}
				},
				"stateVariables": {
					"RECOMPENSA_POR_USUARIO": {
						"details": "Valor fixo de recompensa por usuário (em tokens simulados)"
					},
					"saldosTokens": {
						"details": "Mapping para simular tokens (conceito ERC-20)      Key: endereço da carteira      Value: saldo de tokens simulados"
					},
					"totalUsuarios": {
						"details": "Contador total de usuários registrados"
					},
					"usuarioRegistrado": {
						"details": "Mapping para rastrear se um usuário já foi registrado      Evita registros duplicados (segurança)"
					},
					"usuarios": {
						"details": "Mapping para armazenar informações dos usuários      Key: endereço da carteira do usuário      Value: struct Usuario com os dados cadastrais"
					}
				},
				"title": "RegistroDeUsuariosComRecompensa",
				"version": 1
			},
			"evm": {
				"assembly": "    /* \"derek_santos_smartcontract.sol\":1567:10955  contract RegistroDeUsuariosComRecompensa {... */\n  mstore(0x40, 0x80)\n  callvalue\n  dup1\n  iszero\n  tag_1\n  jumpi\n  revert(0x00, 0x00)\ntag_1:\n  pop\n  dataSize(sub_0)\n  dup1\n  dataOffset(sub_0)\n  0x00\n  codecopy\n  0x00\n  return\nstop\n\nsub_0: assembly {\n        /* \"derek_santos_smartcontract.sol\":1567:10955  contract RegistroDeUsuariosComRecompensa {... */\n      mstore(0x40, 0x80)\n      callvalue\n      dup1\n      iszero\n      tag_1\n      jumpi\n      revert(0x00, 0x00)\n    tag_1:\n      pop\n      jumpi(tag_2, lt(calldatasize, 0x04))\n      shr(0xe0, calldataload(0x00))\n      dup1\n      0xada4823a\n      gt\n      tag_12\n      jumpi\n      dup1\n      0xada4823a\n      eq\n      tag_7\n      jumpi\n      dup1\n      0xbff59291\n      eq\n      tag_8\n      jumpi\n      dup1\n      0xcd4205bd\n      eq\n      tag_9\n      jumpi\n      dup1\n      0xd9b03e37\n      eq\n      tag_10\n      jumpi\n      dup1\n      0xf6b91ea9\n      eq\n      tag_11\n      jumpi\n      jump(tag_2)\n    tag_12:\n      dup1\n      0x4b33ddde\n      eq\n      tag_3\n      jumpi\n      dup1\n      0x6e8fbc70\n      eq\n      tag_4\n      jumpi\n      dup1\n      0x8d83f04b\n      eq\n      tag_5\n      jumpi\n      dup1\n      0xa7312953\n      eq\n      tag_6\n      jumpi\n    tag_2:\n      revert(0x00, 0x00)\n        /* \"derek_santos_smartcontract.sol\":3153:3205  uint256 public constant RECOMPENSA_POR_USUARIO = 100 */\n    tag_3:\n      tag_13\n      tag_14\n      jump\t// in\n    tag_13:\n      mload(0x40)\n      tag_15\n      swap2\n      swap1\n      tag_16\n      jump\t// in\n    tag_15:\n      mload(0x40)\n      dup1\n      swap2\n      sub\n      swap1\n      return\n        /* \"derek_santos_smartcontract.sol\":7978:8243  function desativarConta() public {... */\n    tag_4:\n      tag_17\n      tag_18\n      jump\t// in\n    tag_17:\n      stop\n        /* \"derek_santos_smartcontract.sol\":2687:2734  mapping(address => uint256) public saldosTokens */\n    tag_5:\n      tag_19\n      0x04\n      dup1\n      calldatasize\n      sub\n      dup2\n      add\n      swap1\n      tag_20\n      swap2\n      swap1\n      tag_21\n      jump\t// in\n    tag_20:\n      tag_22\n      jump\t// in\n    tag_19:\n      mload(0x40)\n      tag_23\n      swap2\n      swap1\n      tag_16\n      jump\t// in\n    tag_23:\n      mload(0x40)\n      dup1\n      swap2\n      sub\n      swap1\n      return\n        /* \"derek_santos_smartcontract.sol\":3021:3049  uint256 public totalUsuarios */\n    tag_6:\n      tag_24\n      tag_25\n      jump\t// in\n    tag_24:\n      mload(0x40)\n      tag_26\n      swap2\n      swap1\n      tag_16\n      jump\t// in\n    tag_26:\n      mload(0x40)\n      dup1\n      swap2\n      sub\n      swap1\n      return\n        /* \"derek_santos_smartcontract.sol\":6916:7718  function recompensarUsuario(address carteira) public {... */\n    tag_7:\n      tag_27\n      0x04\n      dup1\n      calldatasize\n      sub\n      dup2\n      add\n      swap1\n      tag_28\n      swap2\n      swap1\n      tag_21\n      jump\t// in\n    tag_28:\n      tag_29\n      jump\t// in\n    tag_27:\n      stop\n        /* \"derek_santos_smartcontract.sol\":4644:5580  function registrarUsuario(string memory nome) public {... */\n    tag_8:\n      tag_30\n      0x04\n      dup1\n      calldatasize\n      sub\n      dup2\n      add\n      swap1\n      tag_31\n      swap2\n      swap1\n      tag_32\n      jump\t// in\n    tag_31:\n      tag_33\n      jump\t// in\n    tag_30:\n      stop\n        /* \"derek_santos_smartcontract.sol\":5927:6564  function consultarUsuario(address carteira) ... */\n    tag_9:\n      tag_34\n      0x04\n      dup1\n      calldatasize\n      sub\n      dup2\n      add\n      swap1\n      tag_35\n      swap2\n      swap1\n      tag_21\n      jump\t// in\n    tag_35:\n      tag_36\n      jump\t// in\n    tag_34:\n      mload(0x40)\n      tag_37\n      swap5\n      swap4\n      swap3\n      swap2\n      swap1\n      tag_38\n      jump\t// in\n    tag_37:\n      mload(0x40)\n      dup1\n      swap2\n      sub\n      swap1\n      return\n        /* \"derek_santos_smartcontract.sol\":8444:8569  function verificarRegistro(address carteira) public view returns (bool) {... */\n    tag_10:\n      tag_39\n      0x04\n      dup1\n      calldatasize\n      sub\n      dup2\n      add\n      swap1\n      tag_40\n      swap2\n      swap1\n      tag_21\n      jump\t// in\n    tag_40:\n      tag_41\n      jump\t// in\n    tag_39:\n      mload(0x40)\n      tag_42\n      swap2\n      swap1\n      tag_43\n      jump\t// in\n    tag_42:\n      mload(0x40)\n      dup1\n      swap2\n      sub\n      swap1\n      return\n        /* \"derek_santos_smartcontract.sol\":2468:2511  mapping(address => Usuario) public usuarios */\n    tag_11:\n      tag_44\n      0x04\n      dup1\n      calldatasize\n      sub\n      dup2\n      add\n      swap1\n      tag_45\n      swap2\n      swap1\n      tag_21\n      jump\t// in\n    tag_45:\n      tag_46\n      jump\t// in\n    tag_44:\n      mload(0x40)\n      tag_47\n      swap4\n      swap3\n      swap2\n      swap1\n      tag_48\n      jump\t// in\n    tag_47:\n      mload(0x40)\n      dup1\n      swap2\n      sub\n      swap1\n      return\n        /* \"derek_santos_smartcontract.sol\":3153:3205  uint256 public constant RECOMPENSA_POR_USUARIO = 100 */\n    tag_14:\n        /* \"derek_santos_smartcontract.sol\":3202:3205  100 */\n      0x64\n        /* \"derek_santos_smartcontract.sol\":3153:3205  uint256 public constant RECOMPENSA_POR_USUARIO = 100 */\n      dup2\n      jump\t// out\n        /* \"derek_santos_smartcontract.sol\":7978:8243  function desativarConta() public {... */\n    tag_18:\n        /* \"derek_santos_smartcontract.sol\":8030:8047  usuarioRegistrado */\n      0x02\n        /* \"derek_santos_smartcontract.sol\":8030:8059  usuarioRegistrado[msg.sender] */\n      0x00\n        /* \"derek_santos_smartcontract.sol\":8048:8058  msg.sender */\n      caller\n        /* \"derek_santos_smartcontract.sol\":8030:8059  usuarioRegistrado[msg.sender] */\n      0xffffffffffffffffffffffffffffffffffffffff\n      and\n      0xffffffffffffffffffffffffffffffffffffffff\n      and\n      dup2\n      mstore\n      0x20\n      add\n      swap1\n      dup2\n      mstore\n      0x20\n      add\n      0x00\n      keccak256\n      0x00\n      swap1\n      sload\n      swap1\n      0x0100\n      exp\n      swap1\n      div\n      0xff\n      and\n        /* \"derek_santos_smartcontract.sol\":8022:8095  require(usuarioRegistrado[msg.sender], unicode\"Usuário não registrado\") */\n      tag_50\n      jumpi\n      mload(0x40)\n      0x08c379a000000000000000000000000000000000000000000000000000000000\n      dup2\n      mstore\n      0x04\n      add\n      tag_51\n      swap1\n      tag_52\n      jump\t// in\n    tag_51:\n      mload(0x40)\n      dup1\n      swap2\n      sub\n      swap1\n      revert\n    tag_50:\n        /* \"derek_santos_smartcontract.sol\":8145:8150  false */\n      0x00\n        /* \"derek_santos_smartcontract.sol\":8116:8124  usuarios */\n      0x00\n        /* \"derek_santos_smartcontract.sol\":8116:8136  usuarios[msg.sender] */\n      0x00\n        /* \"derek_santos_smartcontract.sol\":8125:8135  msg.sender */\n      caller\n        /* \"derek_santos_smartcontract.sol\":8116:8136  usuarios[msg.sender] */\n      0xffffffffffffffffffffffffffffffffffffffff\n      and\n      0xffffffffffffffffffffffffffffffffffffffff\n      and\n      dup2\n      mstore\n      0x20\n      add\n      swap1\n      dup2\n      mstore\n      0x20\n      add\n      0x00\n      keccak256\n        /* \"derek_santos_smartcontract.sol\":8116:8142  usuarios[msg.sender].ativo */\n      0x02\n      add\n      0x00\n        /* \"derek_santos_smartcontract.sol\":8116:8150  usuarios[msg.sender].ativo = false */\n      0x0100\n      exp\n      dup2\n      sload\n      dup2\n      0xff\n      mul\n      not\n      and\n      swap1\n      dup4\n      iszero\n      iszero\n      mul\n      or\n      swap1\n      sstore\n      pop\n        /* \"derek_santos_smartcontract.sol\":8194:8204  msg.sender */\n      caller\n        /* \"derek_santos_smartcontract.sol\":8176:8235  RecompensaEnviada(msg.sender, 0, unicode\"Conta desativada\") */\n      0xffffffffffffffffffffffffffffffffffffffff\n      and\n      0xe2343909b8c695b14eb673fa9ffdf88525ac9bd45a365b66862b0c335f350422\n        /* \"derek_santos_smartcontract.sol\":8206:8207  0 */\n      0x00\n        /* \"derek_santos_smartcontract.sol\":8176:8235  RecompensaEnviada(msg.sender, 0, unicode\"Conta desativada\") */\n      mload(0x40)\n      tag_53\n      swap2\n      swap1\n      tag_54\n      jump\t// in\n    tag_53:\n      mload(0x40)\n      dup1\n      swap2\n      sub\n      swap1\n      log2\n        /* \"derek_santos_smartcontract.sol\":7978:8243  function desativarConta() public {... */\n      jump\t// out\n        /* \"derek_santos_smartcontract.sol\":2687:2734  mapping(address => uint256) public saldosTokens */\n    tag_22:\n      mstore(0x20, 0x01)\n      dup1\n      0x00\n      mstore\n      keccak256(0x00, 0x40)\n      0x00\n      swap2\n      pop\n      swap1\n      pop\n      sload\n      dup2\n      jump\t// out\n        /* \"derek_santos_smartcontract.sol\":3021:3049  uint256 public totalUsuarios */\n    tag_25:\n      sload(0x03)\n      dup2\n      jump\t// out\n        /* \"derek_santos_smartcontract.sol\":6916:7718  function recompensarUsuario(address carteira) public {... */\n    tag_29:\n        /* \"derek_santos_smartcontract.sol\":7074:7075  0 */\n      0x00\n        /* \"derek_santos_smartcontract.sol\":7054:7076  carteira != address(0) */\n      0xffffffffffffffffffffffffffffffffffffffff\n      and\n        /* \"derek_santos_smartcontract.sol\":7054:7062  carteira */\n      dup2\n        /* \"derek_santos_smartcontract.sol\":7054:7076  carteira != address(0) */\n      0xffffffffffffffffffffffffffffffffffffffff\n      and\n      sub\n        /* \"derek_santos_smartcontract.sol\":7046:7107  require(carteira != address(0), unicode\"Endereço inválido\") */\n      tag_56\n      jumpi\n      mload(0x40)\n      0x08c379a000000000000000000000000000000000000000000000000000000000\n      dup2\n      mstore\n      0x04\n      add\n      tag_57\n      swap1\n      tag_58\n      jump\t// in\n    tag_57:\n      mload(0x40)\n      dup1\n      swap2\n      sub\n      swap1\n      revert\n    tag_56:\n        /* \"derek_santos_smartcontract.sol\":7203:7220  usuarioRegistrado */\n      0x02\n        /* \"derek_santos_smartcontract.sol\":7203:7230  usuarioRegistrado[carteira] */\n      0x00\n        /* \"derek_santos_smartcontract.sol\":7221:7229  carteira */\n      dup3\n        /* \"derek_santos_smartcontract.sol\":7203:7230  usuarioRegistrado[carteira] */\n      0xffffffffffffffffffffffffffffffffffffffff\n      and\n      0xffffffffffffffffffffffffffffffffffffffff\n      and\n      dup2\n      mstore\n      0x20\n      add\n      swap1\n      dup2\n      mstore\n      0x20\n      add\n      0x00\n      keccak256\n      0x00\n      swap1\n      sload\n      swap1\n      0x0100\n      exp\n      swap1\n      div\n      0xff\n      and\n        /* \"derek_santos_smartcontract.sol\":7195:7266  require(usuarioRegistrado[carteira], unicode\"Usuário não registrado\") */\n      tag_59\n      jumpi\n      mload(0x40)\n      0x08c379a000000000000000000000000000000000000000000000000000000000\n      dup2\n      mstore\n      0x04\n      add\n      tag_60\n      swap1\n      tag_52\n      jump\t// in\n    tag_60:\n      mload(0x40)\n      dup1\n      swap2\n      sub\n      swap1\n      revert\n    tag_59:\n        /* \"derek_santos_smartcontract.sol\":7395:7399  true */\n      0x01\n        /* \"derek_santos_smartcontract.sol\":7367:7399  usuarios[carteira].ativo == true */\n      iszero\n      iszero\n        /* \"derek_santos_smartcontract.sol\":7367:7375  usuarios */\n      0x00\n        /* \"derek_santos_smartcontract.sol\":7367:7385  usuarios[carteira] */\n      0x00\n        /* \"derek_santos_smartcontract.sol\":7376:7384  carteira */\n      dup4\n        /* \"derek_santos_smartcontract.sol\":7367:7385  usuarios[carteira] */\n      0xffffffffffffffffffffffffffffffffffffffff\n      and\n      0xffffffffffffffffffffffffffffffffffffffff\n      and\n      dup2\n      mstore\n      0x20\n      add\n      swap1\n      dup2\n      mstore\n      0x20\n      add\n      0x00\n      keccak256\n        /* \"derek_santos_smartcontract.sol\":7367:7391  usuarios[carteira].ativo */\n      0x02\n      add\n      0x00\n      swap1\n      sload\n      swap1\n      0x0100\n      exp\n      swap1\n      div\n      0xff\n      and\n        /* \"derek_santos_smartcontract.sol\":7367:7399  usuarios[carteira].ativo == true */\n      iszero\n      iszero\n      eq\n        /* \"derek_santos_smartcontract.sol\":7359:7427  require(usuarios[carteira].ativo == true, unicode\"Usuário inativo\") */\n      tag_61\n      jumpi\n      mload(0x40)\n      0x08c379a000000000000000000000000000000000000000000000000000000000\n      dup2\n      mstore\n      0x04\n      add\n      tag_62\n      swap1\n      tag_63\n      jump\t// in\n    tag_62:\n      mload(0x40)\n      dup1\n      swap2\n      sub\n      swap1\n      revert\n    tag_61:\n        /* \"derek_santos_smartcontract.sol\":3202:3205  100 */\n      0x64\n        /* \"derek_santos_smartcontract.sol\":7501:7513  saldosTokens */\n      0x01\n        /* \"derek_santos_smartcontract.sol\":7501:7523  saldosTokens[carteira] */\n      0x00\n        /* \"derek_santos_smartcontract.sol\":7514:7522  carteira */\n      dup4\n        /* \"derek_santos_smartcontract.sol\":7501:7523  saldosTokens[carteira] */\n      0xffffffffffffffffffffffffffffffffffffffff\n      and\n      0xffffffffffffffffffffffffffffffffffffffff\n      and\n      dup2\n      mstore\n      0x20\n      add\n      swap1\n      dup2\n      mstore\n      0x20\n      add\n      0x00\n      keccak256\n      0x00\n        /* \"derek_santos_smartcontract.sol\":7501:7549  saldosTokens[carteira] += RECOMPENSA_POR_USUARIO */\n      dup3\n      dup3\n      sload\n      tag_64\n      swap2\n      swap1\n      tag_65\n      jump\t// in\n    tag_64:\n      swap3\n      pop\n      pop\n      dup2\n      swap1\n      sstore\n      pop\n        /* \"derek_santos_smartcontract.sol\":7646:7654  carteira */\n      dup1\n        /* \"derek_santos_smartcontract.sol\":7628:7710  RecompensaEnviada(carteira, RECOMPENSA_POR_USUARIO, unicode\"Registro de usuário\") */\n      0xffffffffffffffffffffffffffffffffffffffff\n      and\n      0xe2343909b8c695b14eb673fa9ffdf88525ac9bd45a365b66862b0c335f350422\n        /* \"derek_santos_smartcontract.sol\":3202:3205  100 */\n      0x64\n        /* \"derek_santos_smartcontract.sol\":7628:7710  RecompensaEnviada(carteira, RECOMPENSA_POR_USUARIO, unicode\"Registro de usuário\") */\n      mload(0x40)\n      tag_66\n      swap2\n      swap1\n      tag_67\n      jump\t// in\n    tag_66:\n      mload(0x40)\n      dup1\n      swap2\n      sub\n      swap1\n      log2\n        /* \"derek_santos_smartcontract.sol\":6916:7718  function recompensarUsuario(address carteira) public {... */\n      pop\n      jump\t// out\n        /* \"derek_santos_smartcontract.sol\":4644:5580  function registrarUsuario(string memory nome) public {... */\n    tag_33:\n        /* \"derek_santos_smartcontract.sol\":4812:4813  0 */\n      0x00\n        /* \"derek_santos_smartcontract.sol\":4797:4801  nome */\n      dup2\n        /* \"derek_santos_smartcontract.sol\":4791:4809  bytes(nome).length */\n      mload\n        /* \"derek_santos_smartcontract.sol\":4791:4813  bytes(nome).length > 0 */\n      gt\n        /* \"derek_santos_smartcontract.sol\":4783:4851  require(bytes(nome).length > 0, unicode\"Nome não pode estar vazio\") */\n      tag_69\n      jumpi\n      mload(0x40)\n      0x08c379a000000000000000000000000000000000000000000000000000000000\n      dup2\n      mstore\n      0x04\n      add\n      tag_70\n      swap1\n      tag_71\n      jump\t// in\n    tag_70:\n      mload(0x40)\n      dup1\n      swap2\n      sub\n      swap1\n      revert\n    tag_69:\n        /* \"derek_santos_smartcontract.sol\":4946:4963  usuarioRegistrado */\n      0x02\n        /* \"derek_santos_smartcontract.sol\":4946:4975  usuarioRegistrado[msg.sender] */\n      0x00\n        /* \"derek_santos_smartcontract.sol\":4964:4974  msg.sender */\n      caller\n        /* \"derek_santos_smartcontract.sol\":4946:4975  usuarioRegistrado[msg.sender] */\n      0xffffffffffffffffffffffffffffffffffffffff\n      and\n      0xffffffffffffffffffffffffffffffffffffffff\n      and\n      dup2\n      mstore\n      0x20\n      add\n      swap1\n      dup2\n      mstore\n      0x20\n      add\n      0x00\n      keccak256\n      0x00\n      swap1\n      sload\n      swap1\n      0x0100\n      exp\n      swap1\n      div\n      0xff\n      and\n        /* \"derek_santos_smartcontract.sol\":4945:4975  !usuarioRegistrado[msg.sender] */\n      iszero\n        /* \"derek_santos_smartcontract.sol\":4937:5010  require(!usuarioRegistrado[msg.sender], unicode\"Usuário já registrado\") */\n      tag_72\n      jumpi\n      mload(0x40)\n      0x08c379a000000000000000000000000000000000000000000000000000000000\n      dup2\n      mstore\n      0x04\n      add\n      tag_73\n      swap1\n      tag_74\n      jump\t// in\n    tag_73:\n      mload(0x40)\n      dup1\n      swap2\n      sub\n      swap1\n      revert\n    tag_72:\n        /* \"derek_santos_smartcontract.sol\":5099:5214  Usuario({... */\n      mload(0x40)\n      dup1\n      0x60\n      add\n      0x40\n      mstore\n      dup1\n        /* \"derek_santos_smartcontract.sol\":5128:5132  nome */\n      dup3\n        /* \"derek_santos_smartcontract.sol\":5099:5214  Usuario({... */\n      dup2\n      mstore\n      0x20\n      add\n        /* \"derek_santos_smartcontract.sol\":5161:5176  block.timestamp */\n      timestamp\n        /* \"derek_santos_smartcontract.sol\":5099:5214  Usuario({... */\n      dup2\n      mstore\n      0x20\n      add\n        /* \"derek_santos_smartcontract.sol\":5198:5202  true */\n      0x01\n        /* \"derek_santos_smartcontract.sol\":5099:5214  Usuario({... */\n      iszero\n      iszero\n      dup2\n      mstore\n      pop\n        /* \"derek_santos_smartcontract.sol\":5076:5084  usuarios */\n      0x00\n        /* \"derek_santos_smartcontract.sol\":5076:5096  usuarios[msg.sender] */\n      0x00\n        /* \"derek_santos_smartcontract.sol\":5085:5095  msg.sender */\n      caller\n        /* \"derek_santos_smartcontract.sol\":5076:5096  usuarios[msg.sender] */\n      0xffffffffffffffffffffffffffffffffffffffff\n      and\n      0xffffffffffffffffffffffffffffffffffffffff\n      and\n      dup2\n      mstore\n      0x20\n      add\n      swap1\n      dup2\n      mstore\n      0x20\n      add\n      0x00\n      keccak256\n        /* \"derek_santos_smartcontract.sol\":5076:5214  usuarios[msg.sender] = Usuario({... */\n      0x00\n      dup3\n      add\n      mload\n      dup2\n      0x00\n      add\n      swap1\n      dup2\n      tag_75\n      swap2\n      swap1\n      tag_76\n      jump\t// in\n    tag_75:\n      pop\n      0x20\n      dup3\n      add\n      mload\n      dup2\n      0x01\n      add\n      sstore\n      0x40\n      dup3\n      add\n      mload\n      dup2\n      0x02\n      add\n      exp(0x0100, 0x00)\n      dup2\n      sload\n      dup2\n      0xff\n      mul\n      not\n      and\n      swap1\n      dup4\n      iszero\n      iszero\n      mul\n      or\n      swap1\n      sstore\n      pop\n      swap1\n      pop\n      pop\n        /* \"derek_santos_smartcontract.sol\":5333:5337  true */\n      0x01\n        /* \"derek_santos_smartcontract.sol\":5301:5318  usuarioRegistrado */\n      0x02\n        /* \"derek_santos_smartcontract.sol\":5301:5330  usuarioRegistrado[msg.sender] */\n      0x00\n        /* \"derek_santos_smartcontract.sol\":5319:5329  msg.sender */\n      caller\n        /* \"derek_santos_smartcontract.sol\":5301:5330  usuarioRegistrado[msg.sender] */\n      0xffffffffffffffffffffffffffffffffffffffff\n      and\n      0xffffffffffffffffffffffffffffffffffffffff\n      and\n      dup2\n      mstore\n      0x20\n      add\n      swap1\n      dup2\n      mstore\n      0x20\n      add\n      0x00\n      keccak256\n      0x00\n        /* \"derek_santos_smartcontract.sol\":5301:5337  usuarioRegistrado[msg.sender] = true */\n      0x0100\n      exp\n      dup2\n      sload\n      dup2\n      0xff\n      mul\n      not\n      and\n      swap1\n      dup4\n      iszero\n      iszero\n      mul\n      or\n      swap1\n      sstore\n      pop\n        /* \"derek_santos_smartcontract.sol\":5396:5409  totalUsuarios */\n      0x03\n      0x00\n        /* \"derek_santos_smartcontract.sol\":5396:5411  totalUsuarios++ */\n      dup2\n      sload\n      dup1\n      swap3\n      swap2\n      swap1\n      tag_77\n      swap1\n      tag_78\n      jump\t// in\n    tag_77:\n      swap2\n      swap1\n      pop\n      sstore\n      pop\n        /* \"derek_santos_smartcontract.sol\":5538:5548  msg.sender */\n      caller\n        /* \"derek_santos_smartcontract.sol\":5520:5572  UsuarioRegistrado(msg.sender, nome, block.timestamp) */\n      0xffffffffffffffffffffffffffffffffffffffff\n      and\n      0x6b80d365f3ebb979d1707dbcc963d39e49752795929a8052289499c37e741683\n        /* \"derek_santos_smartcontract.sol\":5550:5554  nome */\n      dup3\n        /* \"derek_santos_smartcontract.sol\":5556:5571  block.timestamp */\n      timestamp\n        /* \"derek_santos_smartcontract.sol\":5520:5572  UsuarioRegistrado(msg.sender, nome, block.timestamp) */\n      mload(0x40)\n      tag_79\n      swap3\n      swap2\n      swap1\n      tag_80\n      jump\t// in\n    tag_79:\n      mload(0x40)\n      dup1\n      swap2\n      sub\n      swap1\n      log2\n        /* \"derek_santos_smartcontract.sol\":4644:5580  function registrarUsuario(string memory nome) public {... */\n      pop\n      jump\t// out\n        /* \"derek_santos_smartcontract.sol\":5927:6564  function consultarUsuario(address carteira) ... */\n    tag_36:\n        /* \"derek_santos_smartcontract.sol\":6036:6054  string memory nome */\n      0x60\n        /* \"derek_santos_smartcontract.sol\":6069:6089  uint256 dataRegistro */\n      0x00\n        /* \"derek_santos_smartcontract.sol\":6104:6114  bool ativo */\n      0x00\n        /* \"derek_santos_smartcontract.sol\":6129:6147  uint256 saldoToken */\n      0x00\n        /* \"derek_santos_smartcontract.sol\":6253:6270  usuarioRegistrado */\n      0x02\n        /* \"derek_santos_smartcontract.sol\":6253:6280  usuarioRegistrado[carteira] */\n      0x00\n        /* \"derek_santos_smartcontract.sol\":6271:6279  carteira */\n      dup7\n        /* \"derek_santos_smartcontract.sol\":6253:6280  usuarioRegistrado[carteira] */\n      0xffffffffffffffffffffffffffffffffffffffff\n      and\n      0xffffffffffffffffffffffffffffffffffffffff\n      and\n      dup2\n      mstore\n      0x20\n      add\n      swap1\n      dup2\n      mstore\n      0x20\n      add\n      0x00\n      keccak256\n      0x00\n      swap1\n      sload\n      swap1\n      0x0100\n      exp\n      swap1\n      div\n      0xff\n      and\n        /* \"derek_santos_smartcontract.sol\":6245:6316  require(usuarioRegistrado[carteira], unicode\"Usuário não encontrado\") */\n      tag_82\n      jumpi\n      mload(0x40)\n      0x08c379a000000000000000000000000000000000000000000000000000000000\n      dup2\n      mstore\n      0x04\n      add\n      tag_83\n      swap1\n      tag_84\n      jump\t// in\n    tag_83:\n      mload(0x40)\n      dup1\n      swap2\n      sub\n      swap1\n      revert\n    tag_82:\n        /* \"derek_santos_smartcontract.sol\":6400:6408  usuarios */\n      0x00\n        /* \"derek_santos_smartcontract.sol\":6400:6418  usuarios[carteira] */\n      0x00\n        /* \"derek_santos_smartcontract.sol\":6409:6417  carteira */\n      dup7\n        /* \"derek_santos_smartcontract.sol\":6400:6418  usuarios[carteira] */\n      0xffffffffffffffffffffffffffffffffffffffff\n      and\n      0xffffffffffffffffffffffffffffffffffffffff\n      and\n      dup2\n      mstore\n      0x20\n      add\n      swap1\n      dup2\n      mstore\n      0x20\n      add\n      0x00\n      keccak256\n        /* \"derek_santos_smartcontract.sol\":6400:6423  usuarios[carteira].nome */\n      0x00\n      add\n        /* \"derek_santos_smartcontract.sol\":6438:6446  usuarios */\n      0x00\n        /* \"derek_santos_smartcontract.sol\":6438:6456  usuarios[carteira] */\n      0x00\n        /* \"derek_santos_smartcontract.sol\":6447:6455  carteira */\n      dup8\n        /* \"derek_santos_smartcontract.sol\":6438:6456  usuarios[carteira] */\n      0xffffffffffffffffffffffffffffffffffffffff\n      and\n      0xffffffffffffffffffffffffffffffffffffffff\n      and\n      dup2\n      mstore\n      0x20\n      add\n      swap1\n      dup2\n      mstore\n      0x20\n      add\n      0x00\n      keccak256\n        /* \"derek_santos_smartcontract.sol\":6438:6469  usuarios[carteira].dataRegistro */\n      0x01\n      add\n      sload\n        /* \"derek_santos_smartcontract.sol\":6484:6492  usuarios */\n      0x00\n        /* \"derek_santos_smartcontract.sol\":6484:6502  usuarios[carteira] */\n      0x00\n        /* \"derek_santos_smartcontract.sol\":6493:6501  carteira */\n      dup9\n        /* \"derek_santos_smartcontract.sol\":6484:6502  usuarios[carteira] */\n      0xffffffffffffffffffffffffffffffffffffffff\n      and\n      0xffffffffffffffffffffffffffffffffffffffff\n      and\n      dup2\n      mstore\n      0x20\n      add\n      swap1\n      dup2\n      mstore\n      0x20\n      add\n      0x00\n      keccak256\n        /* \"derek_santos_smartcontract.sol\":6484:6508  usuarios[carteira].ativo */\n      0x02\n      add\n      0x00\n      swap1\n      sload\n      swap1\n      0x0100\n      exp\n      swap1\n      div\n      0xff\n      and\n        /* \"derek_santos_smartcontract.sol\":6523:6535  saldosTokens */\n      0x01\n        /* \"derek_santos_smartcontract.sol\":6523:6545  saldosTokens[carteira] */\n      0x00\n        /* \"derek_santos_smartcontract.sol\":6536:6544  carteira */\n      dup10\n        /* \"derek_santos_smartcontract.sol\":6523:6545  saldosTokens[carteira] */\n      0xffffffffffffffffffffffffffffffffffffffff\n      and\n      0xffffffffffffffffffffffffffffffffffffffff\n      and\n      dup2\n      mstore\n      0x20\n      add\n      swap1\n      dup2\n      mstore\n      0x20\n      add\n      0x00\n      keccak256\n      sload\n        /* \"derek_santos_smartcontract.sol\":6378:6556  return (... */\n      dup4\n      dup1\n      sload\n      tag_85\n      swap1\n      tag_86\n      jump\t// in\n    tag_85:\n      dup1\n      0x1f\n      add\n      0x20\n      dup1\n      swap2\n      div\n      mul\n      0x20\n      add\n      mload(0x40)\n      swap1\n      dup2\n      add\n      0x40\n      mstore\n      dup1\n      swap3\n      swap2\n      swap1\n      dup2\n      dup2\n      mstore\n      0x20\n      add\n      dup3\n      dup1\n      sload\n      tag_87\n      swap1\n      tag_86\n      jump\t// in\n    tag_87:\n      dup1\n      iszero\n      tag_88\n      jumpi\n      dup1\n      0x1f\n      lt\n      tag_89\n      jumpi\n      0x0100\n      dup1\n      dup4\n      sload\n      div\n      mul\n      dup4\n      mstore\n      swap2\n      0x20\n      add\n      swap2\n      jump(tag_88)\n    tag_89:\n      dup3\n      add\n      swap2\n      swap1\n      0x00\n      mstore\n      keccak256(0x00, 0x20)\n      swap1\n    tag_90:\n      dup2\n      sload\n      dup2\n      mstore\n      swap1\n      0x01\n      add\n      swap1\n      0x20\n      add\n      dup1\n      dup4\n      gt\n      tag_90\n      jumpi\n      dup3\n      swap1\n      sub\n      0x1f\n      and\n      dup3\n      add\n      swap2\n    tag_88:\n      pop\n      pop\n      pop\n      pop\n      pop\n      swap4\n      pop\n      swap4\n      pop\n      swap4\n      pop\n      swap4\n      pop\n      swap4\n      pop\n        /* \"derek_santos_smartcontract.sol\":5927:6564  function consultarUsuario(address carteira) ... */\n      swap2\n      swap4\n      pop\n      swap2\n      swap4\n      jump\t// out\n        /* \"derek_santos_smartcontract.sol\":8444:8569  function verificarRegistro(address carteira) public view returns (bool) {... */\n    tag_41:\n        /* \"derek_santos_smartcontract.sol\":8510:8514  bool */\n      0x00\n        /* \"derek_santos_smartcontract.sol\":8534:8551  usuarioRegistrado */\n      0x02\n        /* \"derek_santos_smartcontract.sol\":8534:8561  usuarioRegistrado[carteira] */\n      0x00\n        /* \"derek_santos_smartcontract.sol\":8552:8560  carteira */\n      dup4\n        /* \"derek_santos_smartcontract.sol\":8534:8561  usuarioRegistrado[carteira] */\n      0xffffffffffffffffffffffffffffffffffffffff\n      and\n      0xffffffffffffffffffffffffffffffffffffffff\n      and\n      dup2\n      mstore\n      0x20\n      add\n      swap1\n      dup2\n      mstore\n      0x20\n      add\n      0x00\n      keccak256\n      0x00\n      swap1\n      sload\n      swap1\n      0x0100\n      exp\n      swap1\n      div\n      0xff\n      and\n        /* \"derek_santos_smartcontract.sol\":8527:8561  return usuarioRegistrado[carteira] */\n      swap1\n      pop\n        /* \"derek_santos_smartcontract.sol\":8444:8569  function verificarRegistro(address carteira) public view returns (bool) {... */\n      swap2\n      swap1\n      pop\n      jump\t// out\n        /* \"derek_santos_smartcontract.sol\":2468:2511  mapping(address => Usuario) public usuarios */\n    tag_46:\n      mstore(0x20, 0x00)\n      dup1\n      0x00\n      mstore\n      keccak256(0x00, 0x40)\n      0x00\n      swap2\n      pop\n      swap1\n      pop\n      dup1\n      0x00\n      add\n      dup1\n      sload\n      tag_92\n      swap1\n      tag_86\n      jump\t// in\n    tag_92:\n      dup1\n      0x1f\n      add\n      0x20\n      dup1\n      swap2\n      div\n      mul\n      0x20\n      add\n      mload(0x40)\n      swap1\n      dup2\n      add\n      0x40\n      mstore\n      dup1\n      swap3\n      swap2\n      swap1\n      dup2\n      dup2\n      mstore\n      0x20\n      add\n      dup3\n      dup1\n      sload\n      tag_93\n      swap1\n      tag_86\n      jump\t// in\n    tag_93:\n      dup1\n      iszero\n      tag_94\n      jumpi\n      dup1\n      0x1f\n      lt\n      tag_95\n      jumpi\n      0x0100\n      dup1\n      dup4\n      sload\n      div\n      mul\n      dup4\n      mstore\n      swap2\n      0x20\n      add\n      swap2\n      jump(tag_94)\n    tag_95:\n      dup3\n      add\n      swap2\n      swap1\n      0x00\n      mstore\n      keccak256(0x00, 0x20)\n      swap1\n    tag_96:\n      dup2\n      sload\n      dup2\n      mstore\n      swap1\n      0x01\n      add\n      swap1\n      0x20\n      add\n      dup1\n      dup4\n      gt\n      tag_96\n      jumpi\n      dup3\n      swap1\n      sub\n      0x1f\n      and\n      dup3\n      add\n      swap2\n    tag_94:\n      pop\n      pop\n      pop\n      pop\n      pop\n      swap1\n      dup1\n      0x01\n      add\n      sload\n      swap1\n      dup1\n      0x02\n      add\n      0x00\n      swap1\n      sload\n      swap1\n      0x0100\n      exp\n      swap1\n      div\n      0xff\n      and\n      swap1\n      pop\n      dup4\n      jump\t// out\n        /* \"#utility.yul\":7:84   */\n    tag_97:\n        /* \"#utility.yul\":44:51   */\n      0x00\n        /* \"#utility.yul\":73:78   */\n      dup2\n        /* \"#utility.yul\":62:78   */\n      swap1\n      pop\n        /* \"#utility.yul\":7:84   */\n      swap2\n      swap1\n      pop\n      jump\t// out\n        /* \"#utility.yul\":90:208   */\n    tag_98:\n        /* \"#utility.yul\":177:201   */\n      tag_161\n        /* \"#utility.yul\":195:200   */\n      dup2\n        /* \"#utility.yul\":177:201   */\n      tag_97\n      jump\t// in\n    tag_161:\n        /* \"#utility.yul\":172:175   */\n      dup3\n        /* \"#utility.yul\":165:202   */\n      mstore\n        /* \"#utility.yul\":90:208   */\n      pop\n      pop\n      jump\t// out\n        /* \"#utility.yul\":214:436   */\n    tag_16:\n        /* \"#utility.yul\":307:311   */\n      0x00\n        /* \"#utility.yul\":345:347   */\n      0x20\n        /* \"#utility.yul\":334:343   */\n      dup3\n        /* \"#utility.yul\":330:348   */\n      add\n        /* \"#utility.yul\":322:348   */\n      swap1\n      pop\n        /* \"#utility.yul\":358:429   */\n      tag_163\n        /* \"#utility.yul\":426:427   */\n      0x00\n        /* \"#utility.yul\":415:424   */\n      dup4\n        /* \"#utility.yul\":411:428   */\n      add\n        /* \"#utility.yul\":402:408   */\n      dup5\n        /* \"#utility.yul\":358:429   */\n      tag_98\n      jump\t// in\n    tag_163:\n        /* \"#utility.yul\":214:436   */\n      swap3\n      swap2\n      pop\n      pop\n      jump\t// out\n        /* \"#utility.yul\":442:517   */\n    tag_99:\n        /* \"#utility.yul\":475:481   */\n      0x00\n        /* \"#utility.yul\":508:510   */\n      0x40\n        /* \"#utility.yul\":502:511   */\n      mload\n        /* \"#utility.yul\":492:511   */\n      swap1\n      pop\n        /* \"#utility.yul\":442:517   */\n      swap1\n      jump\t// out\n        /* \"#utility.yul\":523:640   */\n    tag_100:\n        /* \"#utility.yul\":632:633   */\n      0x00\n        /* \"#utility.yul\":629:630   */\n      0x00\n        /* \"#utility.yul\":622:634   */\n      revert\n        /* \"#utility.yul\":646:763   */\n    tag_101:\n        /* \"#utility.yul\":755:756   */\n      0x00\n        /* \"#utility.yul\":752:753   */\n      0x00\n        /* \"#utility.yul\":745:757   */\n      revert\n        /* \"#utility.yul\":769:895   */\n    tag_102:\n        /* \"#utility.yul\":806:813   */\n      0x00\n        /* \"#utility.yul\":846:888   */\n      0xffffffffffffffffffffffffffffffffffffffff\n        /* \"#utility.yul\":839:844   */\n      dup3\n        /* \"#utility.yul\":835:889   */\n      and\n        /* \"#utility.yul\":824:889   */\n      swap1\n      pop\n        /* \"#utility.yul\":769:895   */\n      swap2\n      swap1\n      pop\n      jump\t// out\n        /* \"#utility.yul\":901:997   */\n    tag_103:\n        /* \"#utility.yul\":938:945   */\n      0x00\n        /* \"#utility.yul\":967:991   */\n      tag_169\n        /* \"#utility.yul\":985:990   */\n      dup3\n        /* \"#utility.yul\":967:991   */\n      tag_102\n      jump\t// in\n    tag_169:\n        /* \"#utility.yul\":956:991   */\n      swap1\n      pop\n        /* \"#utility.yul\":901:997   */\n      swap2\n      swap1\n      pop\n      jump\t// out\n        /* \"#utility.yul\":1003:1125   */\n    tag_104:\n        /* \"#utility.yul\":1076:1100   */\n      tag_171\n        /* \"#utility.yul\":1094:1099   */\n      dup2\n        /* \"#utility.yul\":1076:1100   */\n      tag_103\n      jump\t// in\n    tag_171:\n        /* \"#utility.yul\":1069:1074   */\n      dup2\n        /* \"#utility.yul\":1066:1101   */\n      eq\n        /* \"#utility.yul\":1056:1119   */\n      tag_172\n      jumpi\n        /* \"#utility.yul\":1115:1116   */\n      0x00\n        /* \"#utility.yul\":1112:1113   */\n      0x00\n        /* \"#utility.yul\":1105:1117   */\n      revert\n        /* \"#utility.yul\":1056:1119   */\n    tag_172:\n        /* \"#utility.yul\":1003:1125   */\n      pop\n      jump\t// out\n        /* \"#utility.yul\":1131:1270   */\n    tag_105:\n        /* \"#utility.yul\":1177:1182   */\n      0x00\n        /* \"#utility.yul\":1215:1221   */\n      dup2\n        /* \"#utility.yul\":1202:1222   */\n      calldataload\n        /* \"#utility.yul\":1193:1222   */\n      swap1\n      pop\n        /* \"#utility.yul\":1231:1264   */\n      tag_174\n        /* \"#utility.yul\":1258:1263   */\n      dup2\n        /* \"#utility.yul\":1231:1264   */\n      tag_104\n      jump\t// in\n    tag_174:\n        /* \"#utility.yul\":1131:1270   */\n      swap3\n      swap2\n      pop\n      pop\n      jump\t// out\n        /* \"#utility.yul\":1276:1605   */\n    tag_21:\n        /* \"#utility.yul\":1335:1341   */\n      0x00\n        /* \"#utility.yul\":1384:1386   */\n      0x20\n        /* \"#utility.yul\":1372:1381   */\n      dup3\n        /* \"#utility.yul\":1363:1370   */\n      dup5\n        /* \"#utility.yul\":1359:1382   */\n      sub\n        /* \"#utility.yul\":1355:1387   */\n      slt\n        /* \"#utility.yul\":1352:1471   */\n      iszero\n      tag_176\n      jumpi\n        /* \"#utility.yul\":1390:1469   */\n      tag_177\n      tag_100\n      jump\t// in\n    tag_177:\n        /* \"#utility.yul\":1352:1471   */\n    tag_176:\n        /* \"#utility.yul\":1510:1511   */\n      0x00\n        /* \"#utility.yul\":1535:1588   */\n      tag_178\n        /* \"#utility.yul\":1580:1587   */\n      dup5\n        /* \"#utility.yul\":1571:1577   */\n      dup3\n        /* \"#utility.yul\":1560:1569   */\n      dup6\n        /* \"#utility.yul\":1556:1578   */\n      add\n        /* \"#utility.yul\":1535:1588   */\n      tag_105\n      jump\t// in\n    tag_178:\n        /* \"#utility.yul\":1525:1588   */\n      swap2\n      pop\n        /* \"#utility.yul\":1481:1598   */\n      pop\n        /* \"#utility.yul\":1276:1605   */\n      swap3\n      swap2\n      pop\n      pop\n      jump\t// out\n        /* \"#utility.yul\":1611:1728   */\n    tag_106:\n        /* \"#utility.yul\":1720:1721   */\n      0x00\n        /* \"#utility.yul\":1717:1718   */\n      0x00\n        /* \"#utility.yul\":1710:1722   */\n      revert\n        /* \"#utility.yul\":1734:1851   */\n    tag_107:\n        /* \"#utility.yul\":1843:1844   */\n      0x00\n        /* \"#utility.yul\":1840:1841   */\n      0x00\n        /* \"#utility.yul\":1833:1845   */\n      revert\n        /* \"#utility.yul\":1857:1959   */\n    tag_108:\n        /* \"#utility.yul\":1898:1904   */\n      0x00\n        /* \"#utility.yul\":1949:1951   */\n      0x1f\n        /* \"#utility.yul\":1945:1952   */\n      not\n        /* \"#utility.yul\":1940:1942   */\n      0x1f\n        /* \"#utility.yul\":1933:1938   */\n      dup4\n        /* \"#utility.yul\":1929:1943   */\n      add\n        /* \"#utility.yul\":1925:1953   */\n      and\n        /* \"#utility.yul\":1915:1953   */\n      swap1\n      pop\n        /* \"#utility.yul\":1857:1959   */\n      swap2\n      swap1\n      pop\n      jump\t// out\n        /* \"#utility.yul\":1965:2145   */\n    tag_109:\n        /* \"#utility.yul\":2013:2090   */\n      0x4e487b7100000000000000000000000000000000000000000000000000000000\n        /* \"#utility.yul\":2010:2011   */\n      0x00\n        /* \"#utility.yul\":2003:2091   */\n      mstore\n        /* \"#utility.yul\":2110:2114   */\n      0x41\n        /* \"#utility.yul\":2107:2108   */\n      0x04\n        /* \"#utility.yul\":2100:2115   */\n      mstore\n        /* \"#utility.yul\":2134:2138   */\n      0x24\n        /* \"#utility.yul\":2131:2132   */\n      0x00\n        /* \"#utility.yul\":2124:2139   */\n      revert\n        /* \"#utility.yul\":2151:2432   */\n    tag_110:\n        /* \"#utility.yul\":2234:2261   */\n      tag_184\n        /* \"#utility.yul\":2256:2260   */\n      dup3\n        /* \"#utility.yul\":2234:2261   */\n      tag_108\n      jump\t// in\n    tag_184:\n        /* \"#utility.yul\":2226:2232   */\n      dup2\n        /* \"#utility.yul\":2222:2262   */\n      add\n        /* \"#utility.yul\":2364:2370   */\n      dup2\n        /* \"#utility.yul\":2352:2362   */\n      dup2\n        /* \"#utility.yul\":2349:2371   */\n      lt\n        /* \"#utility.yul\":2328:2346   */\n      0xffffffffffffffff\n        /* \"#utility.yul\":2316:2326   */\n      dup3\n        /* \"#utility.yul\":2313:2347   */\n      gt\n        /* \"#utility.yul\":2310:2372   */\n      or\n        /* \"#utility.yul\":2307:2395   */\n      iszero\n      tag_185\n      jumpi\n        /* \"#utility.yul\":2375:2393   */\n      tag_186\n      tag_109\n      jump\t// in\n    tag_186:\n        /* \"#utility.yul\":2307:2395   */\n    tag_185:\n        /* \"#utility.yul\":2415:2425   */\n      dup1\n        /* \"#utility.yul\":2411:2413   */\n      0x40\n        /* \"#utility.yul\":2404:2426   */\n      mstore\n        /* \"#utility.yul\":2194:2432   */\n      pop\n        /* \"#utility.yul\":2151:2432   */\n      pop\n      pop\n      jump\t// out\n        /* \"#utility.yul\":2438:2567   */\n    tag_111:\n        /* \"#utility.yul\":2472:2478   */\n      0x00\n        /* \"#utility.yul\":2499:2519   */\n      tag_188\n      tag_99\n      jump\t// in\n    tag_188:\n        /* \"#utility.yul\":2489:2519   */\n      swap1\n      pop\n        /* \"#utility.yul\":2528:2561   */\n      tag_189\n        /* \"#utility.yul\":2556:2560   */\n      dup3\n        /* \"#utility.yul\":2548:2554   */\n      dup3\n        /* \"#utility.yul\":2528:2561   */\n      tag_110\n      jump\t// in\n    tag_189:\n        /* \"#utility.yul\":2438:2567   */\n      swap2\n      swap1\n      pop\n      jump\t// out\n        /* \"#utility.yul\":2573:2881   */\n    tag_112:\n        /* \"#utility.yul\":2635:2639   */\n      0x00\n        /* \"#utility.yul\":2725:2743   */\n      0xffffffffffffffff\n        /* \"#utility.yul\":2717:2723   */\n      dup3\n        /* \"#utility.yul\":2714:2744   */\n      gt\n        /* \"#utility.yul\":2711:2767   */\n      iszero\n      tag_191\n      jumpi\n        /* \"#utility.yul\":2747:2765   */\n      tag_192\n      tag_109\n      jump\t// in\n    tag_192:\n        /* \"#utility.yul\":2711:2767   */\n    tag_191:\n        /* \"#utility.yul\":2785:2814   */\n      tag_193\n        /* \"#utility.yul\":2807:2813   */\n      dup3\n        /* \"#utility.yul\":2785:2814   */\n      tag_108\n      jump\t// in\n    tag_193:\n        /* \"#utility.yul\":2777:2814   */\n      swap1\n      pop\n        /* \"#utility.yul\":2869:2873   */\n      0x20\n        /* \"#utility.yul\":2863:2867   */\n      dup2\n        /* \"#utility.yul\":2859:2874   */\n      add\n        /* \"#utility.yul\":2851:2874   */\n      swap1\n      pop\n        /* \"#utility.yul\":2573:2881   */\n      swap2\n      swap1\n      pop\n      jump\t// out\n        /* \"#utility.yul\":2887:3035   */\n    tag_113:\n        /* \"#utility.yul\":2985:2991   */\n      dup3\n        /* \"#utility.yul\":2980:2983   */\n      dup2\n        /* \"#utility.yul\":2975:2978   */\n      dup4\n        /* \"#utility.yul\":2962:2992   */\n      calldatacopy\n        /* \"#utility.yul\":3026:3027   */\n      0x00\n        /* \"#utility.yul\":3017:3023   */\n      dup4\n        /* \"#utility.yul\":3012:3015   */\n      dup4\n        /* \"#utility.yul\":3008:3024   */\n      add\n        /* \"#utility.yul\":3001:3028   */\n      mstore\n        /* \"#utility.yul\":2887:3035   */\n      pop\n      pop\n      pop\n      jump\t// out\n        /* \"#utility.yul\":3041:3466   */\n    tag_114:\n        /* \"#utility.yul\":3119:3124   */\n      0x00\n        /* \"#utility.yul\":3144:3210   */\n      tag_196\n        /* \"#utility.yul\":3160:3209   */\n      tag_197\n        /* \"#utility.yul\":3202:3208   */\n      dup5\n        /* \"#utility.yul\":3160:3209   */\n      tag_112\n      jump\t// in\n    tag_197:\n        /* \"#utility.yul\":3144:3210   */\n      tag_111\n      jump\t// in\n    tag_196:\n        /* \"#utility.yul\":3135:3210   */\n      swap1\n      pop\n        /* \"#utility.yul\":3233:3239   */\n      dup3\n        /* \"#utility.yul\":3226:3231   */\n      dup2\n        /* \"#utility.yul\":3219:3240   */\n      mstore\n        /* \"#utility.yul\":3271:3275   */\n      0x20\n        /* \"#utility.yul\":3264:3269   */\n      dup2\n        /* \"#utility.yul\":3260:3276   */\n      add\n        /* \"#utility.yul\":3309:3312   */\n      dup5\n        /* \"#utility.yul\":3300:3306   */\n      dup5\n        /* \"#utility.yul\":3295:3298   */\n      dup5\n        /* \"#utility.yul\":3291:3307   */\n      add\n        /* \"#utility.yul\":3288:3313   */\n      gt\n        /* \"#utility.yul\":3285:3397   */\n      iszero\n      tag_198\n      jumpi\n        /* \"#utility.yul\":3316:3395   */\n      tag_199\n      tag_107\n      jump\t// in\n    tag_199:\n        /* \"#utility.yul\":3285:3397   */\n    tag_198:\n        /* \"#utility.yul\":3406:3460   */\n      tag_200\n        /* \"#utility.yul\":3453:3459   */\n      dup5\n        /* \"#utility.yul\":3448:3451   */\n      dup3\n        /* \"#utility.yul\":3443:3446   */\n      dup6\n        /* \"#utility.yul\":3406:3460   */\n      tag_113\n      jump\t// in\n    tag_200:\n        /* \"#utility.yul\":3125:3466   */\n      pop\n        /* \"#utility.yul\":3041:3466   */\n      swap4\n      swap3\n      pop\n      pop\n      pop\n      jump\t// out\n        /* \"#utility.yul\":3486:3826   */\n    tag_115:\n        /* \"#utility.yul\":3542:3547   */\n      0x00\n        /* \"#utility.yul\":3591:3594   */\n      dup3\n        /* \"#utility.yul\":3584:3588   */\n      0x1f\n        /* \"#utility.yul\":3576:3582   */\n      dup4\n        /* \"#utility.yul\":3572:3589   */\n      add\n        /* \"#utility.yul\":3568:3595   */\n      slt\n        /* \"#utility.yul\":3558:3680   */\n      tag_202\n      jumpi\n        /* \"#utility.yul\":3599:3678   */\n      tag_203\n      tag_106\n      jump\t// in\n    tag_203:\n        /* \"#utility.yul\":3558:3680   */\n    tag_202:\n        /* \"#utility.yul\":3716:3722   */\n      dup2\n        /* \"#utility.yul\":3703:3723   */\n      calldataload\n        /* \"#utility.yul\":3741:3820   */\n      tag_204\n        /* \"#utility.yul\":3816:3819   */\n      dup5\n        /* \"#utility.yul\":3808:3814   */\n      dup3\n        /* \"#utility.yul\":3801:3805   */\n      0x20\n        /* \"#utility.yul\":3793:3799   */\n      dup7\n        /* \"#utility.yul\":3789:3806   */\n      add\n        /* \"#utility.yul\":3741:3820   */\n      tag_114\n      jump\t// in\n    tag_204:\n        /* \"#utility.yul\":3732:3820   */\n      swap2\n      pop\n        /* \"#utility.yul\":3548:3826   */\n      pop\n        /* \"#utility.yul\":3486:3826   */\n      swap3\n      swap2\n      pop\n      pop\n      jump\t// out\n        /* \"#utility.yul\":3832:4341   */\n    tag_32:\n        /* \"#utility.yul\":3901:3907   */\n      0x00\n        /* \"#utility.yul\":3950:3952   */\n      0x20\n        /* \"#utility.yul\":3938:3947   */\n      dup3\n        /* \"#utility.yul\":3929:3936   */\n      dup5\n        /* \"#utility.yul\":3925:3948   */\n      sub\n        /* \"#utility.yul\":3921:3953   */\n      slt\n        /* \"#utility.yul\":3918:4037   */\n      iszero\n      tag_206\n      jumpi\n        /* \"#utility.yul\":3956:4035   */\n      tag_207\n      tag_100\n      jump\t// in\n    tag_207:\n        /* \"#utility.yul\":3918:4037   */\n    tag_206:\n        /* \"#utility.yul\":4104:4105   */\n      0x00\n        /* \"#utility.yul\":4093:4102   */\n      dup3\n        /* \"#utility.yul\":4089:4106   */\n      add\n        /* \"#utility.yul\":4076:4107   */\n      calldataload\n        /* \"#utility.yul\":4134:4152   */\n      0xffffffffffffffff\n        /* \"#utility.yul\":4126:4132   */\n      dup2\n        /* \"#utility.yul\":4123:4153   */\n      gt\n        /* \"#utility.yul\":4120:4237   */\n      iszero\n      tag_208\n      jumpi\n        /* \"#utility.yul\":4156:4235   */\n      tag_209\n      tag_101\n      jump\t// in\n    tag_209:\n        /* \"#utility.yul\":4120:4237   */\n    tag_208:\n        /* \"#utility.yul\":4261:4324   */\n      tag_210\n        /* \"#utility.yul\":4316:4323   */\n      dup5\n        /* \"#utility.yul\":4307:4313   */\n      dup3\n        /* \"#utility.yul\":4296:4305   */\n      dup6\n        /* \"#utility.yul\":4292:4314   */\n      add\n        /* \"#utility.yul\":4261:4324   */\n      tag_115\n      jump\t// in\n    tag_210:\n        /* \"#utility.yul\":4251:4324   */\n      swap2\n      pop\n        /* \"#utility.yul\":4047:4334   */\n      pop\n        /* \"#utility.yul\":3832:4341   */\n      swap3\n      swap2\n      pop\n      pop\n      jump\t// out\n        /* \"#utility.yul\":4347:4446   */\n    tag_116:\n        /* \"#utility.yul\":4399:4405   */\n      0x00\n        /* \"#utility.yul\":4433:4438   */\n      dup2\n        /* \"#utility.yul\":4427:4439   */\n      mload\n        /* \"#utility.yul\":4417:4439   */\n      swap1\n      pop\n        /* \"#utility.yul\":4347:4446   */\n      swap2\n      swap1\n      pop\n      jump\t// out\n        /* \"#utility.yul\":4452:4621   */\n    tag_117:\n        /* \"#utility.yul\":4536:4547   */\n      0x00\n        /* \"#utility.yul\":4570:4576   */\n      dup3\n        /* \"#utility.yul\":4565:4568   */\n      dup3\n        /* \"#utility.yul\":4558:4577   */\n      mstore\n        /* \"#utility.yul\":4610:4614   */\n      0x20\n        /* \"#utility.yul\":4605:4608   */\n      dup3\n        /* \"#utility.yul\":4601:4615   */\n      add\n        /* \"#utility.yul\":4586:4615   */\n      swap1\n      pop\n        /* \"#utility.yul\":4452:4621   */\n      swap3\n      swap2\n      pop\n      pop\n      jump\t// out\n        /* \"#utility.yul\":4627:4766   */\n    tag_118:\n        /* \"#utility.yul\":4716:4722   */\n      dup3\n        /* \"#utility.yul\":4711:4714   */\n      dup2\n        /* \"#utility.yul\":4706:4709   */\n      dup4\n        /* \"#utility.yul\":4700:4723   */\n      mcopy\n        /* \"#utility.yul\":4757:4758   */\n      0x00\n        /* \"#utility.yul\":4748:4754   */\n      dup4\n        /* \"#utility.yul\":4743:4746   */\n      dup4\n        /* \"#utility.yul\":4739:4755   */\n      add\n        /* \"#utility.yul\":4732:4759   */\n      mstore\n        /* \"#utility.yul\":4627:4766   */\n      pop\n      pop\n      pop\n      jump\t// out\n        /* \"#utility.yul\":4772:5149   */\n    tag_119:\n        /* \"#utility.yul\":4860:4863   */\n      0x00\n        /* \"#utility.yul\":4888:4927   */\n      tag_215\n        /* \"#utility.yul\":4921:4926   */\n      dup3\n        /* \"#utility.yul\":4888:4927   */\n      tag_116\n      jump\t// in\n    tag_215:\n        /* \"#utility.yul\":4943:5014   */\n      tag_216\n        /* \"#utility.yul\":5007:5013   */\n      dup2\n        /* \"#utility.yul\":5002:5005   */\n      dup6\n        /* \"#utility.yul\":4943:5014   */\n      tag_117\n      jump\t// in\n    tag_216:\n        /* \"#utility.yul\":4936:5014   */\n      swap4\n      pop\n        /* \"#utility.yul\":5023:5088   */\n      tag_217\n        /* \"#utility.yul\":5081:5087   */\n      dup2\n        /* \"#utility.yul\":5076:5079   */\n      dup6\n        /* \"#utility.yul\":5069:5073   */\n      0x20\n        /* \"#utility.yul\":5062:5067   */\n      dup7\n        /* \"#utility.yul\":5058:5074   */\n      add\n        /* \"#utility.yul\":5023:5088   */\n      tag_118\n      jump\t// in\n    tag_217:\n        /* \"#utility.yul\":5113:5142   */\n      tag_218\n        /* \"#utility.yul\":5135:5141   */\n      dup2\n        /* \"#utility.yul\":5113:5142   */\n      tag_108\n      jump\t// in\n    tag_218:\n        /* \"#utility.yul\":5108:5111   */\n      dup5\n        /* \"#utility.yul\":5104:5143   */\n      add\n        /* \"#utility.yul\":5097:5143   */\n      swap2\n      pop\n        /* \"#utility.yul\":4864:5149   */\n      pop\n        /* \"#utility.yul\":4772:5149   */\n      swap3\n      swap2\n      pop\n      pop\n      jump\t// out\n        /* \"#utility.yul\":5155:5245   */\n    tag_120:\n        /* \"#utility.yul\":5189:5196   */\n      0x00\n        /* \"#utility.yul\":5232:5237   */\n      dup2\n        /* \"#utility.yul\":5225:5238   */\n      iszero\n        /* \"#utility.yul\":5218:5239   */\n      iszero\n        /* \"#utility.yul\":5207:5239   */\n      swap1\n      pop\n        /* \"#utility.yul\":5155:5245   */\n      swap2\n      swap1\n      pop\n      jump\t// out\n        /* \"#utility.yul\":5251:5360   */\n    tag_121:\n        /* \"#utility.yul\":5332:5353   */\n      tag_221\n        /* \"#utility.yul\":5347:5352   */\n      dup2\n        /* \"#utility.yul\":5332:5353   */\n      tag_120\n      jump\t// in\n    tag_221:\n        /* \"#utility.yul\":5327:5330   */\n      dup3\n        /* \"#utility.yul\":5320:5354   */\n      mstore\n        /* \"#utility.yul\":5251:5360   */\n      pop\n      pop\n      jump\t// out\n        /* \"#utility.yul\":5366:5998   */\n    tag_38:\n        /* \"#utility.yul\":5557:5561   */\n      0x00\n        /* \"#utility.yul\":5595:5598   */\n      0x80\n        /* \"#utility.yul\":5584:5593   */\n      dup3\n        /* \"#utility.yul\":5580:5599   */\n      add\n        /* \"#utility.yul\":5572:5599   */\n      swap1\n      pop\n        /* \"#utility.yul\":5645:5654   */\n      dup2\n        /* \"#utility.yul\":5639:5643   */\n      dup2\n        /* \"#utility.yul\":5635:5655   */\n      sub\n        /* \"#utility.yul\":5631:5632   */\n      0x00\n        /* \"#utility.yul\":5620:5629   */\n      dup4\n        /* \"#utility.yul\":5616:5633   */\n      add\n        /* \"#utility.yul\":5609:5656   */\n      mstore\n        /* \"#utility.yul\":5673:5751   */\n      tag_223\n        /* \"#utility.yul\":5746:5750   */\n      dup2\n        /* \"#utility.yul\":5737:5743   */\n      dup8\n        /* \"#utility.yul\":5673:5751   */\n      tag_119\n      jump\t// in\n    tag_223:\n        /* \"#utility.yul\":5665:5751   */\n      swap1\n      pop\n        /* \"#utility.yul\":5761:5833   */\n      tag_224\n        /* \"#utility.yul\":5829:5831   */\n      0x20\n        /* \"#utility.yul\":5818:5827   */\n      dup4\n        /* \"#utility.yul\":5814:5832   */\n      add\n        /* \"#utility.yul\":5805:5811   */\n      dup7\n        /* \"#utility.yul\":5761:5833   */\n      tag_98\n      jump\t// in\n    tag_224:\n        /* \"#utility.yul\":5843:5909   */\n      tag_225\n        /* \"#utility.yul\":5905:5907   */\n      0x40\n        /* \"#utility.yul\":5894:5903   */\n      dup4\n        /* \"#utility.yul\":5890:5908   */\n      add\n        /* \"#utility.yul\":5881:5887   */\n      dup6\n        /* \"#utility.yul\":5843:5909   */\n      tag_121\n      jump\t// in\n    tag_225:\n        /* \"#utility.yul\":5919:5991   */\n      tag_226\n        /* \"#utility.yul\":5987:5989   */\n      0x60\n        /* \"#utility.yul\":5976:5985   */\n      dup4\n        /* \"#utility.yul\":5972:5990   */\n      add\n        /* \"#utility.yul\":5963:5969   */\n      dup5\n        /* \"#utility.yul\":5919:5991   */\n      tag_98\n      jump\t// in\n    tag_226:\n        /* \"#utility.yul\":5366:5998   */\n      swap6\n      swap5\n      pop\n      pop\n      pop\n      pop\n      pop\n      jump\t// out\n        /* \"#utility.yul\":6004:6214   */\n    tag_43:\n        /* \"#utility.yul\":6091:6095   */\n      0x00\n        /* \"#utility.yul\":6129:6131   */\n      0x20\n        /* \"#utility.yul\":6118:6127   */\n      dup3\n        /* \"#utility.yul\":6114:6132   */\n      add\n        /* \"#utility.yul\":6106:6132   */\n      swap1\n      pop\n        /* \"#utility.yul\":6142:6207   */\n      tag_228\n        /* \"#utility.yul\":6204:6205   */\n      0x00\n        /* \"#utility.yul\":6193:6202   */\n      dup4\n        /* \"#utility.yul\":6189:6206   */\n      add\n        /* \"#utility.yul\":6180:6186   */\n      dup5\n        /* \"#utility.yul\":6142:6207   */\n      tag_121\n      jump\t// in\n    tag_228:\n        /* \"#utility.yul\":6004:6214   */\n      swap3\n      swap2\n      pop\n      pop\n      jump\t// out\n        /* \"#utility.yul\":6220:6741   */\n    tag_48:\n        /* \"#utility.yul\":6383:6387   */\n      0x00\n        /* \"#utility.yul\":6421:6423   */\n      0x60\n        /* \"#utility.yul\":6410:6419   */\n      dup3\n        /* \"#utility.yul\":6406:6424   */\n      add\n        /* \"#utility.yul\":6398:6424   */\n      swap1\n      pop\n        /* \"#utility.yul\":6470:6479   */\n      dup2\n        /* \"#utility.yul\":6464:6468   */\n      dup2\n        /* \"#utility.yul\":6460:6480   */\n      sub\n        /* \"#utility.yul\":6456:6457   */\n      0x00\n        /* \"#utility.yul\":6445:6454   */\n      dup4\n        /* \"#utility.yul\":6441:6458   */\n      add\n        /* \"#utility.yul\":6434:6481   */\n      mstore\n        /* \"#utility.yul\":6498:6576   */\n      tag_230\n        /* \"#utility.yul\":6571:6575   */\n      dup2\n        /* \"#utility.yul\":6562:6568   */\n      dup7\n        /* \"#utility.yul\":6498:6576   */\n      tag_119\n      jump\t// in\n    tag_230:\n        /* \"#utility.yul\":6490:6576   */\n      swap1\n      pop\n        /* \"#utility.yul\":6586:6658   */\n      tag_231\n        /* \"#utility.yul\":6654:6656   */\n      0x20\n        /* \"#utility.yul\":6643:6652   */\n      dup4\n        /* \"#utility.yul\":6639:6657   */\n      add\n        /* \"#utility.yul\":6630:6636   */\n      dup6\n        /* \"#utility.yul\":6586:6658   */\n      tag_98\n      jump\t// in\n    tag_231:\n        /* \"#utility.yul\":6668:6734   */\n      tag_232\n        /* \"#utility.yul\":6730:6732   */\n      0x40\n        /* \"#utility.yul\":6719:6728   */\n      dup4\n        /* \"#utility.yul\":6715:6733   */\n      add\n        /* \"#utility.yul\":6706:6712   */\n      dup5\n        /* \"#utility.yul\":6668:6734   */\n      tag_121\n      jump\t// in\n    tag_232:\n        /* \"#utility.yul\":6220:6741   */\n      swap5\n      swap4\n      pop\n      pop\n      pop\n      pop\n      jump\t// out\n        /* \"#utility.yul\":6747:6961   */\n    tag_122:\n        /* \"#utility.yul\":6887:6953   */\n      0x557375c3a172696f206ec3a36f207265676973747261646f0000000000000000\n        /* \"#utility.yul\":6883:6884   */\n      0x00\n        /* \"#utility.yul\":6875:6881   */\n      dup3\n        /* \"#utility.yul\":6871:6885   */\n      add\n        /* \"#utility.yul\":6864:6954   */\n      mstore\n        /* \"#utility.yul\":6747:6961   */\n      pop\n      jump\t// out\n        /* \"#utility.yul\":6967:7333   */\n    tag_123:\n        /* \"#utility.yul\":7109:7112   */\n      0x00\n        /* \"#utility.yul\":7130:7197   */\n      tag_235\n        /* \"#utility.yul\":7194:7196   */\n      0x18\n        /* \"#utility.yul\":7189:7192   */\n      dup4\n        /* \"#utility.yul\":7130:7197   */\n      tag_117\n      jump\t// in\n    tag_235:\n        /* \"#utility.yul\":7123:7197   */\n      swap2\n      pop\n        /* \"#utility.yul\":7206:7299   */\n      tag_236\n        /* \"#utility.yul\":7295:7298   */\n      dup3\n        /* \"#utility.yul\":7206:7299   */\n      tag_122\n      jump\t// in\n    tag_236:\n        /* \"#utility.yul\":7324:7326   */\n      0x20\n        /* \"#utility.yul\":7319:7322   */\n      dup3\n        /* \"#utility.yul\":7315:7327   */\n      add\n        /* \"#utility.yul\":7308:7327   */\n      swap1\n      pop\n        /* \"#utility.yul\":6967:7333   */\n      swap2\n      swap1\n      pop\n      jump\t// out\n        /* \"#utility.yul\":7339:7758   */\n    tag_52:\n        /* \"#utility.yul\":7505:7509   */\n      0x00\n        /* \"#utility.yul\":7543:7545   */\n      0x20\n        /* \"#utility.yul\":7532:7541   */\n      dup3\n        /* \"#utility.yul\":7528:7546   */\n      add\n        /* \"#utility.yul\":7520:7546   */\n      swap1\n      pop\n        /* \"#utility.yul\":7592:7601   */\n      dup2\n        /* \"#utility.yul\":7586:7590   */\n      dup2\n        /* \"#utility.yul\":7582:7602   */\n      sub\n        /* \"#utility.yul\":7578:7579   */\n      0x00\n        /* \"#utility.yul\":7567:7576   */\n      dup4\n        /* \"#utility.yul\":7563:7580   */\n      add\n        /* \"#utility.yul\":7556:7603   */\n      mstore\n        /* \"#utility.yul\":7620:7751   */\n      tag_238\n        /* \"#utility.yul\":7746:7750   */\n      dup2\n        /* \"#utility.yul\":7620:7751   */\n      tag_123\n      jump\t// in\n    tag_238:\n        /* \"#utility.yul\":7612:7751   */\n      swap1\n      pop\n        /* \"#utility.yul\":7339:7758   */\n      swap2\n      swap1\n      pop\n      jump\t// out\n        /* \"#utility.yul\":7764:7849   */\n    tag_124:\n        /* \"#utility.yul\":7809:7816   */\n      0x00\n        /* \"#utility.yul\":7838:7843   */\n      dup2\n        /* \"#utility.yul\":7827:7843   */\n      swap1\n      pop\n        /* \"#utility.yul\":7764:7849   */\n      swap2\n      swap1\n      pop\n      jump\t// out\n        /* \"#utility.yul\":7855:7915   */\n    tag_125:\n        /* \"#utility.yul\":7883:7886   */\n      0x00\n        /* \"#utility.yul\":7904:7909   */\n      dup2\n        /* \"#utility.yul\":7897:7909   */\n      swap1\n      pop\n        /* \"#utility.yul\":7855:7915   */\n      swap2\n      swap1\n      pop\n      jump\t// out\n        /* \"#utility.yul\":7921:8079   */\n    tag_126:\n        /* \"#utility.yul\":7979:7988   */\n      0x00\n        /* \"#utility.yul\":8012:8073   */\n      tag_242\n        /* \"#utility.yul\":8030:8072   */\n      tag_243\n        /* \"#utility.yul\":8039:8071   */\n      tag_244\n        /* \"#utility.yul\":8065:8070   */\n      dup5\n        /* \"#utility.yul\":8039:8071   */\n      tag_124\n      jump\t// in\n    tag_244:\n        /* \"#utility.yul\":8030:8072   */\n      tag_125\n      jump\t// in\n    tag_243:\n        /* \"#utility.yul\":8012:8073   */\n      tag_97\n      jump\t// in\n    tag_242:\n        /* \"#utility.yul\":7999:8073   */\n      swap1\n      pop\n        /* \"#utility.yul\":7921:8079   */\n      swap2\n      swap1\n      pop\n      jump\t// out\n        /* \"#utility.yul\":8085:8232   */\n    tag_127:\n        /* \"#utility.yul\":8180:8225   */\n      tag_246\n        /* \"#utility.yul\":8219:8224   */\n      dup2\n        /* \"#utility.yul\":8180:8225   */\n      tag_126\n      jump\t// in\n    tag_246:\n        /* \"#utility.yul\":8175:8178   */\n      dup3\n        /* \"#utility.yul\":8168:8226   */\n      mstore\n        /* \"#utility.yul\":8085:8232   */\n      pop\n      pop\n      jump\t// out\n        /* \"#utility.yul\":8238:8404   */\n    tag_128:\n        /* \"#utility.yul\":8378:8396   */\n      0x436f6e7461206465736174697661646100000000000000000000000000000000\n        /* \"#utility.yul\":8374:8375   */\n      0x00\n        /* \"#utility.yul\":8366:8372   */\n      dup3\n        /* \"#utility.yul\":8362:8376   */\n      add\n        /* \"#utility.yul\":8355:8397   */\n      mstore\n        /* \"#utility.yul\":8238:8404   */\n      pop\n      jump\t// out\n        /* \"#utility.yul\":8410:8776   */\n    tag_129:\n        /* \"#utility.yul\":8552:8555   */\n      0x00\n        /* \"#utility.yul\":8573:8640   */\n      tag_249\n        /* \"#utility.yul\":8637:8639   */\n      0x10\n        /* \"#utility.yul\":8632:8635   */\n      dup4\n        /* \"#utility.yul\":8573:8640   */\n      tag_117\n      jump\t// in\n    tag_249:\n        /* \"#utility.yul\":8566:8640   */\n      swap2\n      pop\n        /* \"#utility.yul\":8649:8742   */\n      tag_250\n        /* \"#utility.yul\":8738:8741   */\n      dup3\n        /* \"#utility.yul\":8649:8742   */\n      tag_128\n      jump\t// in\n    tag_250:\n        /* \"#utility.yul\":8767:8769   */\n      0x20\n        /* \"#utility.yul\":8762:8765   */\n      dup3\n        /* \"#utility.yul\":8758:8770   */\n      add\n        /* \"#utility.yul\":8751:8770   */\n      swap1\n      pop\n        /* \"#utility.yul\":8410:8776   */\n      swap2\n      swap1\n      pop\n      jump\t// out\n        /* \"#utility.yul\":8782:9327   */\n    tag_54:\n        /* \"#utility.yul\":8984:8988   */\n      0x00\n        /* \"#utility.yul\":9022:9024   */\n      0x40\n        /* \"#utility.yul\":9011:9020   */\n      dup3\n        /* \"#utility.yul\":9007:9025   */\n      add\n        /* \"#utility.yul\":8999:9025   */\n      swap1\n      pop\n        /* \"#utility.yul\":9035:9114   */\n      tag_252\n        /* \"#utility.yul\":9111:9112   */\n      0x00\n        /* \"#utility.yul\":9100:9109   */\n      dup4\n        /* \"#utility.yul\":9096:9113   */\n      add\n        /* \"#utility.yul\":9087:9093   */\n      dup5\n        /* \"#utility.yul\":9035:9114   */\n      tag_127\n      jump\t// in\n    tag_252:\n        /* \"#utility.yul\":9161:9170   */\n      dup2\n        /* \"#utility.yul\":9155:9159   */\n      dup2\n        /* \"#utility.yul\":9151:9171   */\n      sub\n        /* \"#utility.yul\":9146:9148   */\n      0x20\n        /* \"#utility.yul\":9135:9144   */\n      dup4\n        /* \"#utility.yul\":9131:9149   */\n      add\n        /* \"#utility.yul\":9124:9172   */\n      mstore\n        /* \"#utility.yul\":9189:9320   */\n      tag_253\n        /* \"#utility.yul\":9315:9319   */\n      dup2\n        /* \"#utility.yul\":9189:9320   */\n      tag_129\n      jump\t// in\n    tag_253:\n        /* \"#utility.yul\":9181:9320   */\n      swap1\n      pop\n        /* \"#utility.yul\":8782:9327   */\n      swap3\n      swap2\n      pop\n      pop\n      jump\t// out\n        /* \"#utility.yul\":9333:9547   */\n    tag_130:\n        /* \"#utility.yul\":9473:9539   */\n      0x456e64657265c3a76f20696e76c3a16c69646f00000000000000000000000000\n        /* \"#utility.yul\":9469:9470   */\n      0x00\n        /* \"#utility.yul\":9461:9467   */\n      dup3\n        /* \"#utility.yul\":9457:9471   */\n      add\n        /* \"#utility.yul\":9450:9540   */\n      mstore\n        /* \"#utility.yul\":9333:9547   */\n      pop\n      jump\t// out\n        /* \"#utility.yul\":9553:9919   */\n    tag_131:\n        /* \"#utility.yul\":9695:9698   */\n      0x00\n        /* \"#utility.yul\":9716:9783   */\n      tag_256\n        /* \"#utility.yul\":9780:9782   */\n      0x13\n        /* \"#utility.yul\":9775:9778   */\n      dup4\n        /* \"#utility.yul\":9716:9783   */\n      tag_117\n      jump\t// in\n    tag_256:\n        /* \"#utility.yul\":9709:9783   */\n      swap2\n      pop\n        /* \"#utility.yul\":9792:9885   */\n      tag_257\n        /* \"#utility.yul\":9881:9884   */\n      dup3\n        /* \"#utility.yul\":9792:9885   */\n      tag_130\n      jump\t// in\n    tag_257:\n        /* \"#utility.yul\":9910:9912   */\n      0x20\n        /* \"#utility.yul\":9905:9908   */\n      dup3\n        /* \"#utility.yul\":9901:9913   */\n      add\n        /* \"#utility.yul\":9894:9913   */\n      swap1\n      pop\n        /* \"#utility.yul\":9553:9919   */\n      swap2\n      swap1\n      pop\n      jump\t// out\n        /* \"#utility.yul\":9925:10344   */\n    tag_58:\n        /* \"#utility.yul\":10091:10095   */\n      0x00\n        /* \"#utility.yul\":10129:10131   */\n      0x20\n        /* \"#utility.yul\":10118:10127   */\n      dup3\n        /* \"#utility.yul\":10114:10132   */\n      add\n        /* \"#utility.yul\":10106:10132   */\n      swap1\n      pop\n        /* \"#utility.yul\":10178:10187   */\n      dup2\n        /* \"#utility.yul\":10172:10176   */\n      dup2\n        /* \"#utility.yul\":10168:10188   */\n      sub\n        /* \"#utility.yul\":10164:10165   */\n      0x00\n        /* \"#utility.yul\":10153:10162   */\n      dup4\n        /* \"#utility.yul\":10149:10166   */\n      add\n        /* \"#utility.yul\":10142:10189   */\n      mstore\n        /* \"#utility.yul\":10206:10337   */\n      tag_259\n        /* \"#utility.yul\":10332:10336   */\n      dup2\n        /* \"#utility.yul\":10206:10337   */\n      tag_131\n      jump\t// in\n    tag_259:\n        /* \"#utility.yul\":10198:10337   */\n      swap1\n      pop\n        /* \"#utility.yul\":9925:10344   */\n      swap2\n      swap1\n      pop\n      jump\t// out\n        /* \"#utility.yul\":10350:10564   */\n    tag_132:\n        /* \"#utility.yul\":10490:10556   */\n      0x557375c3a172696f20696e617469766f00000000000000000000000000000000\n        /* \"#utility.yul\":10486:10487   */\n      0x00\n        /* \"#utility.yul\":10478:10484   */\n      dup3\n        /* \"#utility.yul\":10474:10488   */\n      add\n        /* \"#utility.yul\":10467:10557   */\n      mstore\n        /* \"#utility.yul\":10350:10564   */\n      pop\n      jump\t// out\n        /* \"#utility.yul\":10570:10936   */\n    tag_133:\n        /* \"#utility.yul\":10712:10715   */\n      0x00\n        /* \"#utility.yul\":10733:10800   */\n      tag_262\n        /* \"#utility.yul\":10797:10799   */\n      0x10\n        /* \"#utility.yul\":10792:10795   */\n      dup4\n        /* \"#utility.yul\":10733:10800   */\n      tag_117\n      jump\t// in\n    tag_262:\n        /* \"#utility.yul\":10726:10800   */\n      swap2\n      pop\n        /* \"#utility.yul\":10809:10902   */\n      tag_263\n        /* \"#utility.yul\":10898:10901   */\n      dup3\n        /* \"#utility.yul\":10809:10902   */\n      tag_132\n      jump\t// in\n    tag_263:\n        /* \"#utility.yul\":10927:10929   */\n      0x20\n        /* \"#utility.yul\":10922:10925   */\n      dup3\n        /* \"#utility.yul\":10918:10930   */\n      add\n        /* \"#utility.yul\":10911:10930   */\n      swap1\n      pop\n        /* \"#utility.yul\":10570:10936   */\n      swap2\n      swap1\n      pop\n      jump\t// out\n        /* \"#utility.yul\":10942:11361   */\n    tag_63:\n        /* \"#utility.yul\":11108:11112   */\n      0x00\n        /* \"#utility.yul\":11146:11148   */\n      0x20\n        /* \"#utility.yul\":11135:11144   */\n      dup3\n        /* \"#utility.yul\":11131:11149   */\n      add\n        /* \"#utility.yul\":11123:11149   */\n      swap1\n      pop\n        /* \"#utility.yul\":11195:11204   */\n      dup2\n        /* \"#utility.yul\":11189:11193   */\n      dup2\n        /* \"#utility.yul\":11185:11205   */\n      sub\n        /* \"#utility.yul\":11181:11182   */\n      0x00\n        /* \"#utility.yul\":11170:11179   */\n      dup4\n        /* \"#utility.yul\":11166:11183   */\n      add\n        /* \"#utility.yul\":11159:11206   */\n      mstore\n        /* \"#utility.yul\":11223:11354   */\n      tag_265\n        /* \"#utility.yul\":11349:11353   */\n      dup2\n        /* \"#utility.yul\":11223:11354   */\n      tag_133\n      jump\t// in\n    tag_265:\n        /* \"#utility.yul\":11215:11354   */\n      swap1\n      pop\n        /* \"#utility.yul\":10942:11361   */\n      swap2\n      swap1\n      pop\n      jump\t// out\n        /* \"#utility.yul\":11367:11547   */\n    tag_134:\n        /* \"#utility.yul\":11415:11492   */\n      0x4e487b7100000000000000000000000000000000000000000000000000000000\n        /* \"#utility.yul\":11412:11413   */\n      0x00\n        /* \"#utility.yul\":11405:11493   */\n      mstore\n        /* \"#utility.yul\":11512:11516   */\n      0x11\n        /* \"#utility.yul\":11509:11510   */\n      0x04\n        /* \"#utility.yul\":11502:11517   */\n      mstore\n        /* \"#utility.yul\":11536:11540   */\n      0x24\n        /* \"#utility.yul\":11533:11534   */\n      0x00\n        /* \"#utility.yul\":11526:11541   */\n      revert\n        /* \"#utility.yul\":11553:11744   */\n    tag_65:\n        /* \"#utility.yul\":11593:11596   */\n      0x00\n        /* \"#utility.yul\":11612:11632   */\n      tag_268\n        /* \"#utility.yul\":11630:11631   */\n      dup3\n        /* \"#utility.yul\":11612:11632   */\n      tag_97\n      jump\t// in\n    tag_268:\n        /* \"#utility.yul\":11607:11632   */\n      swap2\n      pop\n        /* \"#utility.yul\":11646:11666   */\n      tag_269\n        /* \"#utility.yul\":11664:11665   */\n      dup4\n        /* \"#utility.yul\":11646:11666   */\n      tag_97\n      jump\t// in\n    tag_269:\n        /* \"#utility.yul\":11641:11666   */\n      swap3\n      pop\n        /* \"#utility.yul\":11689:11690   */\n      dup3\n        /* \"#utility.yul\":11686:11687   */\n      dup3\n        /* \"#utility.yul\":11682:11691   */\n      add\n        /* \"#utility.yul\":11675:11691   */\n      swap1\n      pop\n        /* \"#utility.yul\":11710:11713   */\n      dup1\n        /* \"#utility.yul\":11707:11708   */\n      dup3\n        /* \"#utility.yul\":11704:11714   */\n      gt\n        /* \"#utility.yul\":11701:11737   */\n      iszero\n      tag_270\n      jumpi\n        /* \"#utility.yul\":11717:11735   */\n      tag_271\n      tag_134\n      jump\t// in\n    tag_271:\n        /* \"#utility.yul\":11701:11737   */\n    tag_270:\n        /* \"#utility.yul\":11553:11744   */\n      swap3\n      swap2\n      pop\n      pop\n      jump\t// out\n        /* \"#utility.yul\":11750:11964   */\n    tag_135:\n        /* \"#utility.yul\":11890:11956   */\n      0x526567697374726f20646520757375c3a172696f000000000000000000000000\n        /* \"#utility.yul\":11886:11887   */\n      0x00\n        /* \"#utility.yul\":11878:11884   */\n      dup3\n        /* \"#utility.yul\":11874:11888   */\n      add\n        /* \"#utility.yul\":11867:11957   */\n      mstore\n        /* \"#utility.yul\":11750:11964   */\n      pop\n      jump\t// out\n        /* \"#utility.yul\":11970:12336   */\n    tag_136:\n        /* \"#utility.yul\":12112:12115   */\n      0x00\n        /* \"#utility.yul\":12133:12200   */\n      tag_274\n        /* \"#utility.yul\":12197:12199   */\n      0x14\n        /* \"#utility.yul\":12192:12195   */\n      dup4\n        /* \"#utility.yul\":12133:12200   */\n      tag_117\n      jump\t// in\n    tag_274:\n        /* \"#utility.yul\":12126:12200   */\n      swap2\n      pop\n        /* \"#utility.yul\":12209:12302   */\n      tag_275\n        /* \"#utility.yul\":12298:12301   */\n      dup3\n        /* \"#utility.yul\":12209:12302   */\n      tag_135\n      jump\t// in\n    tag_275:\n        /* \"#utility.yul\":12327:12329   */\n      0x20\n        /* \"#utility.yul\":12322:12325   */\n      dup3\n        /* \"#utility.yul\":12318:12330   */\n      add\n        /* \"#utility.yul\":12311:12330   */\n      swap1\n      pop\n        /* \"#utility.yul\":11970:12336   */\n      swap2\n      swap1\n      pop\n      jump\t// out\n        /* \"#utility.yul\":12342:12871   */\n    tag_67:\n        /* \"#utility.yul\":12536:12540   */\n      0x00\n        /* \"#utility.yul\":12574:12576   */\n      0x40\n        /* \"#utility.yul\":12563:12572   */\n      dup3\n        /* \"#utility.yul\":12559:12577   */\n      add\n        /* \"#utility.yul\":12551:12577   */\n      swap1\n      pop\n        /* \"#utility.yul\":12587:12658   */\n      tag_277\n        /* \"#utility.yul\":12655:12656   */\n      0x00\n        /* \"#utility.yul\":12644:12653   */\n      dup4\n        /* \"#utility.yul\":12640:12657   */\n      add\n        /* \"#utility.yul\":12631:12637   */\n      dup5\n        /* \"#utility.yul\":12587:12658   */\n      tag_98\n      jump\t// in\n    tag_277:\n        /* \"#utility.yul\":12705:12714   */\n      dup2\n        /* \"#utility.yul\":12699:12703   */\n      dup2\n        /* \"#utility.yul\":12695:12715   */\n      sub\n        /* \"#utility.yul\":12690:12692   */\n      0x20\n        /* \"#utility.yul\":12679:12688   */\n      dup4\n        /* \"#utility.yul\":12675:12693   */\n      add\n        /* \"#utility.yul\":12668:12716   */\n      mstore\n        /* \"#utility.yul\":12733:12864   */\n      tag_278\n        /* \"#utility.yul\":12859:12863   */\n      dup2\n        /* \"#utility.yul\":12733:12864   */\n      tag_136\n      jump\t// in\n    tag_278:\n        /* \"#utility.yul\":12725:12864   */\n      swap1\n      pop\n        /* \"#utility.yul\":12342:12871   */\n      swap3\n      swap2\n      pop\n      pop\n      jump\t// out\n        /* \"#utility.yul\":12877:13091   */\n    tag_137:\n        /* \"#utility.yul\":13017:13083   */\n      0x4e6f6d65206ec3a36f20706f64652065737461722076617a696f000000000000\n        /* \"#utility.yul\":13013:13014   */\n      0x00\n        /* \"#utility.yul\":13005:13011   */\n      dup3\n        /* \"#utility.yul\":13001:13015   */\n      add\n        /* \"#utility.yul\":12994:13084   */\n      mstore\n        /* \"#utility.yul\":12877:13091   */\n      pop\n      jump\t// out\n        /* \"#utility.yul\":13097:13463   */\n    tag_138:\n        /* \"#utility.yul\":13239:13242   */\n      0x00\n        /* \"#utility.yul\":13260:13327   */\n      tag_281\n        /* \"#utility.yul\":13324:13326   */\n      0x1a\n        /* \"#utility.yul\":13319:13322   */\n      dup4\n        /* \"#utility.yul\":13260:13327   */\n      tag_117\n      jump\t// in\n    tag_281:\n        /* \"#utility.yul\":13253:13327   */\n      swap2\n      pop\n        /* \"#utility.yul\":13336:13429   */\n      tag_282\n        /* \"#utility.yul\":13425:13428   */\n      dup3\n        /* \"#utility.yul\":13336:13429   */\n      tag_137\n      jump\t// in\n    tag_282:\n        /* \"#utility.yul\":13454:13456   */\n      0x20\n        /* \"#utility.yul\":13449:13452   */\n      dup3\n        /* \"#utility.yul\":13445:13457   */\n      add\n        /* \"#utility.yul\":13438:13457   */\n      swap1\n      pop\n        /* \"#utility.yul\":13097:13463   */\n      swap2\n      swap1\n      pop\n      jump\t// out\n        /* \"#utility.yul\":13469:13888   */\n    tag_71:\n        /* \"#utility.yul\":13635:13639   */\n      0x00\n        /* \"#utility.yul\":13673:13675   */\n      0x20\n        /* \"#utility.yul\":13662:13671   */\n      dup3\n        /* \"#utility.yul\":13658:13676   */\n      add\n        /* \"#utility.yul\":13650:13676   */\n      swap1\n      pop\n        /* \"#utility.yul\":13722:13731   */\n      dup2\n        /* \"#utility.yul\":13716:13720   */\n      dup2\n        /* \"#utility.yul\":13712:13732   */\n      sub\n        /* \"#utility.yul\":13708:13709   */\n      0x00\n        /* \"#utility.yul\":13697:13706   */\n      dup4\n        /* \"#utility.yul\":13693:13710   */\n      add\n        /* \"#utility.yul\":13686:13733   */\n      mstore\n        /* \"#utility.yul\":13750:13881   */\n      tag_284\n        /* \"#utility.yul\":13876:13880   */\n      dup2\n        /* \"#utility.yul\":13750:13881   */\n      tag_138\n      jump\t// in\n    tag_284:\n        /* \"#utility.yul\":13742:13881   */\n      swap1\n      pop\n        /* \"#utility.yul\":13469:13888   */\n      swap2\n      swap1\n      pop\n      jump\t// out\n        /* \"#utility.yul\":13894:14108   */\n    tag_139:\n        /* \"#utility.yul\":14034:14100   */\n      0x557375c3a172696f206ac3a1207265676973747261646f000000000000000000\n        /* \"#utility.yul\":14030:14031   */\n      0x00\n        /* \"#utility.yul\":14022:14028   */\n      dup3\n        /* \"#utility.yul\":14018:14032   */\n      add\n        /* \"#utility.yul\":14011:14101   */\n      mstore\n        /* \"#utility.yul\":13894:14108   */\n      pop\n      jump\t// out\n        /* \"#utility.yul\":14114:14480   */\n    tag_140:\n        /* \"#utility.yul\":14256:14259   */\n      0x00\n        /* \"#utility.yul\":14277:14344   */\n      tag_287\n        /* \"#utility.yul\":14341:14343   */\n      0x17\n        /* \"#utility.yul\":14336:14339   */\n      dup4\n        /* \"#utility.yul\":14277:14344   */\n      tag_117\n      jump\t// in\n    tag_287:\n        /* \"#utility.yul\":14270:14344   */\n      swap2\n      pop\n        /* \"#utility.yul\":14353:14446   */\n      tag_288\n        /* \"#utility.yul\":14442:14445   */\n      dup3\n        /* \"#utility.yul\":14353:14446   */\n      tag_139\n      jump\t// in\n    tag_288:\n        /* \"#utility.yul\":14471:14473   */\n      0x20\n        /* \"#utility.yul\":14466:14469   */\n      dup3\n        /* \"#utility.yul\":14462:14474   */\n      add\n        /* \"#utility.yul\":14455:14474   */\n      swap1\n      pop\n        /* \"#utility.yul\":14114:14480   */\n      swap2\n      swap1\n      pop\n      jump\t// out\n        /* \"#utility.yul\":14486:14905   */\n    tag_74:\n        /* \"#utility.yul\":14652:14656   */\n      0x00\n        /* \"#utility.yul\":14690:14692   */\n      0x20\n        /* \"#utility.yul\":14679:14688   */\n      dup3\n        /* \"#utility.yul\":14675:14693   */\n      add\n        /* \"#utility.yul\":14667:14693   */\n      swap1\n      pop\n        /* \"#utility.yul\":14739:14748   */\n      dup2\n        /* \"#utility.yul\":14733:14737   */\n      dup2\n        /* \"#utility.yul\":14729:14749   */\n      sub\n        /* \"#utility.yul\":14725:14726   */\n      0x00\n        /* \"#utility.yul\":14714:14723   */\n      dup4\n        /* \"#utility.yul\":14710:14727   */\n      add\n        /* \"#utility.yul\":14703:14750   */\n      mstore\n        /* \"#utility.yul\":14767:14898   */\n      tag_290\n        /* \"#utility.yul\":14893:14897   */\n      dup2\n        /* \"#utility.yul\":14767:14898   */\n      tag_140\n      jump\t// in\n    tag_290:\n        /* \"#utility.yul\":14759:14898   */\n      swap1\n      pop\n        /* \"#utility.yul\":14486:14905   */\n      swap2\n      swap1\n      pop\n      jump\t// out\n        /* \"#utility.yul\":14911:15091   */\n    tag_141:\n        /* \"#utility.yul\":14959:15036   */\n      0x4e487b7100000000000000000000000000000000000000000000000000000000\n        /* \"#utility.yul\":14956:14957   */\n      0x00\n        /* \"#utility.yul\":14949:15037   */\n      mstore\n        /* \"#utility.yul\":15056:15060   */\n      0x22\n        /* \"#utility.yul\":15053:15054   */\n      0x04\n        /* \"#utility.yul\":15046:15061   */\n      mstore\n        /* \"#utility.yul\":15080:15084   */\n      0x24\n        /* \"#utility.yul\":15077:15078   */\n      0x00\n        /* \"#utility.yul\":15070:15085   */\n      revert\n        /* \"#utility.yul\":15097:15417   */\n    tag_86:\n        /* \"#utility.yul\":15141:15147   */\n      0x00\n        /* \"#utility.yul\":15178:15179   */\n      0x02\n        /* \"#utility.yul\":15172:15176   */\n      dup3\n        /* \"#utility.yul\":15168:15180   */\n      div\n        /* \"#utility.yul\":15158:15180   */\n      swap1\n      pop\n        /* \"#utility.yul\":15225:15226   */\n      0x01\n        /* \"#utility.yul\":15219:15223   */\n      dup3\n        /* \"#utility.yul\":15215:15227   */\n      and\n        /* \"#utility.yul\":15246:15264   */\n      dup1\n        /* \"#utility.yul\":15236:15317   */\n      tag_293\n      jumpi\n        /* \"#utility.yul\":15302:15306   */\n      0x7f\n        /* \"#utility.yul\":15294:15300   */\n      dup3\n        /* \"#utility.yul\":15290:15307   */\n      and\n        /* \"#utility.yul\":15280:15307   */\n      swap2\n      pop\n        /* \"#utility.yul\":15236:15317   */\n    tag_293:\n        /* \"#utility.yul\":15364:15366   */\n      0x20\n        /* \"#utility.yul\":15356:15362   */\n      dup3\n        /* \"#utility.yul\":15353:15367   */\n      lt\n        /* \"#utility.yul\":15333:15351   */\n      dup2\n        /* \"#utility.yul\":15330:15368   */\n      sub\n        /* \"#utility.yul\":15327:15411   */\n      tag_294\n      jumpi\n        /* \"#utility.yul\":15383:15401   */\n      tag_295\n      tag_141\n      jump\t// in\n    tag_295:\n        /* \"#utility.yul\":15327:15411   */\n    tag_294:\n        /* \"#utility.yul\":15148:15417   */\n      pop\n        /* \"#utility.yul\":15097:15417   */\n      swap2\n      swap1\n      pop\n      jump\t// out\n        /* \"#utility.yul\":15423:15564   */\n    tag_142:\n        /* \"#utility.yul\":15472:15476   */\n      0x00\n        /* \"#utility.yul\":15495:15498   */\n      dup2\n        /* \"#utility.yul\":15487:15498   */\n      swap1\n      pop\n        /* \"#utility.yul\":15518:15521   */\n      dup2\n        /* \"#utility.yul\":15515:15516   */\n      0x00\n        /* \"#utility.yul\":15508:15522   */\n      mstore\n        /* \"#utility.yul\":15552:15556   */\n      0x20\n        /* \"#utility.yul\":15549:15550   */\n      0x00\n        /* \"#utility.yul\":15539:15557   */\n      keccak256\n        /* \"#utility.yul\":15531:15557   */\n      swap1\n      pop\n        /* \"#utility.yul\":15423:15564   */\n      swap2\n      swap1\n      pop\n      jump\t// out\n        /* \"#utility.yul\":15570:15663   */\n    tag_143:\n        /* \"#utility.yul\":15607:15613   */\n      0x00\n        /* \"#utility.yul\":15654:15656   */\n      0x20\n        /* \"#utility.yul\":15649:15651   */\n      0x1f\n        /* \"#utility.yul\":15642:15647   */\n      dup4\n        /* \"#utility.yul\":15638:15652   */\n      add\n        /* \"#utility.yul\":15634:15657   */\n      div\n        /* \"#utility.yul\":15624:15657   */\n      swap1\n      pop\n        /* \"#utility.yul\":15570:15663   */\n      swap2\n      swap1\n      pop\n      jump\t// out\n        /* \"#utility.yul\":15669:15776   */\n    tag_144:\n        /* \"#utility.yul\":15713:15721   */\n      0x00\n        /* \"#utility.yul\":15763:15768   */\n      dup3\n        /* \"#utility.yul\":15757:15761   */\n      dup3\n        /* \"#utility.yul\":15753:15769   */\n      shl\n        /* \"#utility.yul\":15732:15769   */\n      swap1\n      pop\n        /* \"#utility.yul\":15669:15776   */\n      swap3\n      swap2\n      pop\n      pop\n      jump\t// out\n        /* \"#utility.yul\":15782:16175   */\n    tag_145:\n        /* \"#utility.yul\":15851:15857   */\n      0x00\n        /* \"#utility.yul\":15901:15902   */\n      0x08\n        /* \"#utility.yul\":15889:15899   */\n      dup4\n        /* \"#utility.yul\":15885:15903   */\n      mul\n        /* \"#utility.yul\":15924:16021   */\n      tag_300\n        /* \"#utility.yul\":15954:16020   */\n      0xffffffffffffffffffffffffffffffffffffffffffffffffffffffffffffffff\n        /* \"#utility.yul\":15943:15952   */\n      dup3\n        /* \"#utility.yul\":15924:16021   */\n      tag_144\n      jump\t// in\n    tag_300:\n        /* \"#utility.yul\":16042:16081   */\n      tag_301\n        /* \"#utility.yul\":16072:16080   */\n      dup7\n        /* \"#utility.yul\":16061:16070   */\n      dup4\n        /* \"#utility.yul\":16042:16081   */\n      tag_144\n      jump\t// in\n    tag_301:\n        /* \"#utility.yul\":16030:16081   */\n      swap6\n      pop\n        /* \"#utility.yul\":16114:16118   */\n      dup1\n        /* \"#utility.yul\":16110:16119   */\n      not\n        /* \"#utility.yul\":16103:16108   */\n      dup5\n        /* \"#utility.yul\":16099:16120   */\n      and\n        /* \"#utility.yul\":16090:16120   */\n      swap4\n      pop\n        /* \"#utility.yul\":16163:16167   */\n      dup1\n        /* \"#utility.yul\":16153:16161   */\n      dup7\n        /* \"#utility.yul\":16149:16168   */\n      and\n        /* \"#utility.yul\":16142:16147   */\n      dup5\n        /* \"#utility.yul\":16139:16169   */\n      or\n        /* \"#utility.yul\":16129:16169   */\n      swap3\n      pop\n        /* \"#utility.yul\":15858:16175   */\n      pop\n      pop\n        /* \"#utility.yul\":15782:16175   */\n      swap4\n      swap3\n      pop\n      pop\n      pop\n      jump\t// out\n        /* \"#utility.yul\":16181:16323   */\n    tag_146:\n        /* \"#utility.yul\":16231:16240   */\n      0x00\n        /* \"#utility.yul\":16264:16317   */\n      tag_303\n        /* \"#utility.yul\":16282:16316   */\n      tag_304\n        /* \"#utility.yul\":16291:16315   */\n      tag_305\n        /* \"#utility.yul\":16309:16314   */\n      dup5\n        /* \"#utility.yul\":16291:16315   */\n      tag_97\n      jump\t// in\n    tag_305:\n        /* \"#utility.yul\":16282:16316   */\n      tag_125\n      jump\t// in\n    tag_304:\n        /* \"#utility.yul\":16264:16317   */\n      tag_97\n      jump\t// in\n    tag_303:\n        /* \"#utility.yul\":16251:16317   */\n      swap1\n      pop\n        /* \"#utility.yul\":16181:16323   */\n      swap2\n      swap1\n      pop\n      jump\t// out\n        /* \"#utility.yul\":16329:16404   */\n    tag_147:\n        /* \"#utility.yul\":16372:16375   */\n      0x00\n        /* \"#utility.yul\":16393:16398   */\n      dup2\n        /* \"#utility.yul\":16386:16398   */\n      swap1\n      pop\n        /* \"#utility.yul\":16329:16404   */\n      swap2\n      swap1\n      pop\n      jump\t// out\n        /* \"#utility.yul\":16410:16679   */\n    tag_148:\n        /* \"#utility.yul\":16520:16559   */\n      tag_308\n        /* \"#utility.yul\":16551:16558   */\n      dup4\n        /* \"#utility.yul\":16520:16559   */\n      tag_146\n      jump\t// in\n    tag_308:\n        /* \"#utility.yul\":16581:16672   */\n      tag_309\n        /* \"#utility.yul\":16630:16671   */\n      tag_310\n        /* \"#utility.yul\":16654:16670   */\n      dup3\n        /* \"#utility.yul\":16630:16671   */\n      tag_147\n      jump\t// in\n    tag_310:\n        /* \"#utility.yul\":16622:16628   */\n      dup5\n        /* \"#utility.yul\":16615:16619   */\n      dup5\n        /* \"#utility.yul\":16609:16620   */\n      sload\n        /* \"#utility.yul\":16581:16672   */\n      tag_145\n      jump\t// in\n    tag_309:\n        /* \"#utility.yul\":16575:16579   */\n      dup3\n        /* \"#utility.yul\":16568:16673   */\n      sstore\n        /* \"#utility.yul\":16486:16679   */\n      pop\n        /* \"#utility.yul\":16410:16679   */\n      pop\n      pop\n      pop\n      jump\t// out\n        /* \"#utility.yul\":16685:16758   */\n    tag_149:\n        /* \"#utility.yul\":16730:16733   */\n      0x00\n        /* \"#utility.yul\":16751:16752   */\n      0x00\n        /* \"#utility.yul\":16744:16752   */\n      swap1\n      pop\n        /* \"#utility.yul\":16685:16758   */\n      swap1\n      jump\t// out\n        /* \"#utility.yul\":16764:16953   */\n    tag_150:\n        /* \"#utility.yul\":16841:16873   */\n      tag_313\n      tag_149\n      jump\t// in\n    tag_313:\n        /* \"#utility.yul\":16882:16947   */\n      tag_314\n        /* \"#utility.yul\":16940:16946   */\n      dup2\n        /* \"#utility.yul\":16932:16938   */\n      dup5\n        /* \"#utility.yul\":16926:16930   */\n      dup5\n        /* \"#utility.yul\":16882:16947   */\n      tag_148\n      jump\t// in\n    tag_314:\n        /* \"#utility.yul\":16817:16953   */\n      pop\n        /* \"#utility.yul\":16764:16953   */\n      pop\n      pop\n      jump\t// out\n        /* \"#utility.yul\":16959:17145   */\n    tag_151:\n        /* \"#utility.yul\":17019:17139   */\n    tag_316:\n        /* \"#utility.yul\":17036:17039   */\n      dup2\n        /* \"#utility.yul\":17029:17034   */\n      dup2\n        /* \"#utility.yul\":17026:17040   */\n      lt\n        /* \"#utility.yul\":17019:17139   */\n      iszero\n      tag_318\n      jumpi\n        /* \"#utility.yul\":17090:17129   */\n      tag_319\n        /* \"#utility.yul\":17127:17128   */\n      0x00\n        /* \"#utility.yul\":17120:17125   */\n      dup3\n        /* \"#utility.yul\":17090:17129   */\n      tag_150\n      jump\t// in\n    tag_319:\n        /* \"#utility.yul\":17063:17064   */\n      0x01\n        /* \"#utility.yul\":17056:17061   */\n      dup2\n        /* \"#utility.yul\":17052:17065   */\n      add\n        /* \"#utility.yul\":17043:17065   */\n      swap1\n      pop\n        /* \"#utility.yul\":17019:17139   */\n      jump(tag_316)\n    tag_318:\n        /* \"#utility.yul\":16959:17145   */\n      pop\n      pop\n      jump\t// out\n        /* \"#utility.yul\":17151:17694   */\n    tag_152:\n        /* \"#utility.yul\":17252:17254   */\n      0x1f\n        /* \"#utility.yul\":17247:17250   */\n      dup3\n        /* \"#utility.yul\":17244:17255   */\n      gt\n        /* \"#utility.yul\":17241:17687   */\n      iszero\n      tag_321\n      jumpi\n        /* \"#utility.yul\":17286:17324   */\n      tag_322\n        /* \"#utility.yul\":17318:17323   */\n      dup2\n        /* \"#utility.yul\":17286:17324   */\n      tag_142\n      jump\t// in\n    tag_322:\n        /* \"#utility.yul\":17370:17399   */\n      tag_323\n        /* \"#utility.yul\":17388:17398   */\n      dup5\n        /* \"#utility.yul\":17370:17399   */\n      tag_143\n      jump\t// in\n    tag_323:\n        /* \"#utility.yul\":17360:17368   */\n      dup2\n        /* \"#utility.yul\":17356:17400   */\n      add\n        /* \"#utility.yul\":17553:17555   */\n      0x20\n        /* \"#utility.yul\":17541:17551   */\n      dup6\n        /* \"#utility.yul\":17538:17556   */\n      lt\n        /* \"#utility.yul\":17535:17584   */\n      iszero\n      tag_324\n      jumpi\n        /* \"#utility.yul\":17574:17582   */\n      dup2\n        /* \"#utility.yul\":17559:17582   */\n      swap1\n      pop\n        /* \"#utility.yul\":17535:17584   */\n    tag_324:\n        /* \"#utility.yul\":17597:17677   */\n      tag_325\n        /* \"#utility.yul\":17653:17675   */\n      tag_326\n        /* \"#utility.yul\":17671:17674   */\n      dup6\n        /* \"#utility.yul\":17653:17675   */\n      tag_143\n      jump\t// in\n    tag_326:\n        /* \"#utility.yul\":17643:17651   */\n      dup4\n        /* \"#utility.yul\":17639:17676   */\n      add\n        /* \"#utility.yul\":17626:17637   */\n      dup3\n        /* \"#utility.yul\":17597:17677   */\n      tag_151\n      jump\t// in\n    tag_325:\n        /* \"#utility.yul\":17256:17687   */\n      pop\n      pop\n        /* \"#utility.yul\":17241:17687   */\n    tag_321:\n        /* \"#utility.yul\":17151:17694   */\n      pop\n      pop\n      pop\n      jump\t// out\n        /* \"#utility.yul\":17700:17817   */\n    tag_153:\n        /* \"#utility.yul\":17754:17762   */\n      0x00\n        /* \"#utility.yul\":17804:17809   */\n      dup3\n        /* \"#utility.yul\":17798:17802   */\n      dup3\n        /* \"#utility.yul\":17794:17810   */\n      shr\n        /* \"#utility.yul\":17773:17810   */\n      swap1\n      pop\n        /* \"#utility.yul\":17700:17817   */\n      swap3\n      swap2\n      pop\n      pop\n      jump\t// out\n        /* \"#utility.yul\":17823:17992   */\n    tag_154:\n        /* \"#utility.yul\":17867:17873   */\n      0x00\n        /* \"#utility.yul\":17900:17951   */\n      tag_329\n        /* \"#utility.yul\":17948:17949   */\n      0x00\n        /* \"#utility.yul\":17944:17950   */\n      not\n        /* \"#utility.yul\":17936:17941   */\n      dup5\n        /* \"#utility.yul\":17933:17934   */\n      0x08\n        /* \"#utility.yul\":17929:17942   */\n      mul\n        /* \"#utility.yul\":17900:17951   */\n      tag_153\n      jump\t// in\n    tag_329:\n        /* \"#utility.yul\":17896:17952   */\n      not\n        /* \"#utility.yul\":17981:17985   */\n      dup1\n        /* \"#utility.yul\":17975:17979   */\n      dup4\n        /* \"#utility.yul\":17971:17986   */\n      and\n        /* \"#utility.yul\":17961:17986   */\n      swap2\n      pop\n        /* \"#utility.yul\":17874:17992   */\n      pop\n        /* \"#utility.yul\":17823:17992   */\n      swap3\n      swap2\n      pop\n      pop\n      jump\t// out\n        /* \"#utility.yul\":17997:18292   */\n    tag_155:\n        /* \"#utility.yul\":18073:18077   */\n      0x00\n        /* \"#utility.yul\":18219:18248   */\n      tag_331\n        /* \"#utility.yul\":18244:18247   */\n      dup4\n        /* \"#utility.yul\":18238:18242   */\n      dup4\n        /* \"#utility.yul\":18219:18248   */\n      tag_154\n      jump\t// in\n    tag_331:\n        /* \"#utility.yul\":18211:18248   */\n      swap2\n      pop\n        /* \"#utility.yul\":18281:18284   */\n      dup3\n        /* \"#utility.yul\":18278:18279   */\n      0x02\n        /* \"#utility.yul\":18274:18285   */\n      mul\n        /* \"#utility.yul\":18268:18272   */\n      dup3\n        /* \"#utility.yul\":18265:18286   */\n      or\n        /* \"#utility.yul\":18257:18286   */\n      swap1\n      pop\n        /* \"#utility.yul\":17997:18292   */\n      swap3\n      swap2\n      pop\n      pop\n      jump\t// out\n        /* \"#utility.yul\":18297:19692   */\n    tag_76:\n        /* \"#utility.yul\":18414:18451   */\n      tag_333\n        /* \"#utility.yul\":18447:18450   */\n      dup3\n        /* \"#utility.yul\":18414:18451   */\n      tag_116\n      jump\t// in\n    tag_333:\n        /* \"#utility.yul\":18516:18534   */\n      0xffffffffffffffff\n        /* \"#utility.yul\":18508:18514   */\n      dup2\n        /* \"#utility.yul\":18505:18535   */\n      gt\n        /* \"#utility.yul\":18502:18558   */\n      iszero\n      tag_334\n      jumpi\n        /* \"#utility.yul\":18538:18556   */\n      tag_335\n      tag_109\n      jump\t// in\n    tag_335:\n        /* \"#utility.yul\":18502:18558   */\n    tag_334:\n        /* \"#utility.yul\":18582:18620   */\n      tag_336\n        /* \"#utility.yul\":18614:18618   */\n      dup3\n        /* \"#utility.yul\":18608:18619   */\n      sload\n        /* \"#utility.yul\":18582:18620   */\n      tag_86\n      jump\t// in\n    tag_336:\n        /* \"#utility.yul\":18667:18734   */\n      tag_337\n        /* \"#utility.yul\":18727:18733   */\n      dup3\n        /* \"#utility.yul\":18719:18725   */\n      dup3\n        /* \"#utility.yul\":18713:18717   */\n      dup6\n        /* \"#utility.yul\":18667:18734   */\n      tag_152\n      jump\t// in\n    tag_337:\n        /* \"#utility.yul\":18761:18762   */\n      0x00\n        /* \"#utility.yul\":18785:18789   */\n      0x20\n        /* \"#utility.yul\":18772:18789   */\n      swap1\n      pop\n        /* \"#utility.yul\":18817:18819   */\n      0x1f\n        /* \"#utility.yul\":18809:18815   */\n      dup4\n        /* \"#utility.yul\":18806:18820   */\n      gt\n        /* \"#utility.yul\":18834:18835   */\n      0x01\n        /* \"#utility.yul\":18829:19447   */\n      dup2\n      eq\n      tag_339\n      jumpi\n        /* \"#utility.yul\":19491:19492   */\n      0x00\n        /* \"#utility.yul\":19508:19514   */\n      dup5\n        /* \"#utility.yul\":19505:19582   */\n      iszero\n      tag_340\n      jumpi\n        /* \"#utility.yul\":19557:19566   */\n      dup3\n        /* \"#utility.yul\":19552:19555   */\n      dup8\n        /* \"#utility.yul\":19548:19567   */\n      add\n        /* \"#utility.yul\":19542:19568   */\n      mload\n        /* \"#utility.yul\":19533:19568   */\n      swap1\n      pop\n        /* \"#utility.yul\":19505:19582   */\n    tag_340:\n        /* \"#utility.yul\":19608:19675   */\n      tag_341\n        /* \"#utility.yul\":19668:19674   */\n      dup6\n        /* \"#utility.yul\":19661:19666   */\n      dup3\n        /* \"#utility.yul\":19608:19675   */\n      tag_155\n      jump\t// in\n    tag_341:\n        /* \"#utility.yul\":19602:19606   */\n      dup7\n        /* \"#utility.yul\":19595:19676   */\n      sstore\n        /* \"#utility.yul\":19464:19686   */\n      pop\n        /* \"#utility.yul\":18799:19686   */\n      jump(tag_338)\n        /* \"#utility.yul\":18829:19447   */\n    tag_339:\n        /* \"#utility.yul\":18881:18885   */\n      0x1f\n        /* \"#utility.yul\":18877:18886   */\n      not\n        /* \"#utility.yul\":18869:18875   */\n      dup5\n        /* \"#utility.yul\":18865:18887   */\n      and\n        /* \"#utility.yul\":18915:18952   */\n      tag_342\n        /* \"#utility.yul\":18947:18951   */\n      dup7\n        /* \"#utility.yul\":18915:18952   */\n      tag_142\n      jump\t// in\n    tag_342:\n        /* \"#utility.yul\":18974:18975   */\n      0x00\n        /* \"#utility.yul\":18988:19196   */\n    tag_343:\n        /* \"#utility.yul\":19002:19009   */\n      dup3\n        /* \"#utility.yul\":18999:19000   */\n      dup2\n        /* \"#utility.yul\":18996:19010   */\n      lt\n        /* \"#utility.yul\":18988:19196   */\n      iszero\n      tag_345\n      jumpi\n        /* \"#utility.yul\":19081:19090   */\n      dup5\n        /* \"#utility.yul\":19076:19079   */\n      dup10\n        /* \"#utility.yul\":19072:19091   */\n      add\n        /* \"#utility.yul\":19066:19092   */\n      mload\n        /* \"#utility.yul\":19058:19064   */\n      dup3\n        /* \"#utility.yul\":19051:19093   */\n      sstore\n        /* \"#utility.yul\":19132:19133   */\n      0x01\n        /* \"#utility.yul\":19124:19130   */\n      dup3\n        /* \"#utility.yul\":19120:19134   */\n      add\n        /* \"#utility.yul\":19110:19134   */\n      swap2\n      pop\n        /* \"#utility.yul\":19179:19181   */\n      0x20\n        /* \"#utility.yul\":19168:19177   */\n      dup6\n        /* \"#utility.yul\":19164:19182   */\n      add\n        /* \"#utility.yul\":19151:19182   */\n      swap5\n      pop\n        /* \"#utility.yul\":19025:19029   */\n      0x20\n        /* \"#utility.yul\":19022:19023   */\n      dup2\n        /* \"#utility.yul\":19018:19030   */\n      add\n        /* \"#utility.yul\":19013:19030   */\n      swap1\n      pop\n        /* \"#utility.yul\":18988:19196   */\n      jump(tag_343)\n    tag_345:\n        /* \"#utility.yul\":19224:19230   */\n      dup7\n        /* \"#utility.yul\":19215:19222   */\n      dup4\n        /* \"#utility.yul\":19212:19231   */\n      lt\n        /* \"#utility.yul\":19209:19388   */\n      iszero\n      tag_346\n      jumpi\n        /* \"#utility.yul\":19282:19291   */\n      dup5\n        /* \"#utility.yul\":19277:19280   */\n      dup10\n        /* \"#utility.yul\":19273:19292   */\n      add\n        /* \"#utility.yul\":19267:19293   */\n      mload\n        /* \"#utility.yul\":19325:19373   */\n      tag_347\n        /* \"#utility.yul\":19367:19371   */\n      0x1f\n        /* \"#utility.yul\":19359:19365   */\n      dup10\n        /* \"#utility.yul\":19355:19372   */\n      and\n        /* \"#utility.yul\":19344:19353   */\n      dup3\n        /* \"#utility.yul\":19325:19373   */\n      tag_154\n      jump\t// in\n    tag_347:\n        /* \"#utility.yul\":19317:19323   */\n      dup4\n        /* \"#utility.yul\":19310:19374   */\n      sstore\n        /* \"#utility.yul\":19232:19388   */\n      pop\n        /* \"#utility.yul\":19209:19388   */\n    tag_346:\n        /* \"#utility.yul\":19434:19435   */\n      0x01\n        /* \"#utility.yul\":19430:19431   */\n      0x02\n        /* \"#utility.yul\":19422:19428   */\n      dup9\n        /* \"#utility.yul\":19418:19432   */\n      mul\n        /* \"#utility.yul\":19414:19436   */\n      add\n        /* \"#utility.yul\":19408:19412   */\n      dup9\n        /* \"#utility.yul\":19401:19437   */\n      sstore\n        /* \"#utility.yul\":18836:19447   */\n      pop\n      pop\n      pop\n        /* \"#utility.yul\":18799:19686   */\n    tag_338:\n      pop\n        /* \"#utility.yul\":18389:19692   */\n      pop\n      pop\n      pop\n        /* \"#utility.yul\":18297:19692   */\n      pop\n      pop\n      jump\t// out\n        /* \"#utility.yul\":19698:19931   */\n    tag_78:\n        /* \"#utility.yul\":19737:19740   */\n      0x00\n        /* \"#utility.yul\":19760:19784   */\n      tag_349\n        /* \"#utility.yul\":19778:19783   */\n      dup3\n        /* \"#utility.yul\":19760:19784   */\n      tag_97\n      jump\t// in\n    tag_349:\n        /* \"#utility.yul\":19751:19784   */\n      swap2\n      pop\n        /* \"#utility.yul\":19806:19872   */\n      0xffffffffffffffffffffffffffffffffffffffffffffffffffffffffffffffff\n        /* \"#utility.yul\":19799:19804   */\n      dup3\n        /* \"#utility.yul\":19796:19873   */\n      sub\n        /* \"#utility.yul\":19793:19896   */\n      tag_350\n      jumpi\n        /* \"#utility.yul\":19876:19894   */\n      tag_351\n      tag_134\n      jump\t// in\n    tag_351:\n        /* \"#utility.yul\":19793:19896   */\n    tag_350:\n        /* \"#utility.yul\":19923:19924   */\n      0x01\n        /* \"#utility.yul\":19916:19921   */\n      dup3\n        /* \"#utility.yul\":19912:19925   */\n      add\n        /* \"#utility.yul\":19905:19925   */\n      swap1\n      pop\n        /* \"#utility.yul\":19698:19931   */\n      swap2\n      swap1\n      pop\n      jump\t// out\n        /* \"#utility.yul\":19937:20360   */\n    tag_80:\n        /* \"#utility.yul\":20078:20082   */\n      0x00\n        /* \"#utility.yul\":20116:20118   */\n      0x40\n        /* \"#utility.yul\":20105:20114   */\n      dup3\n        /* \"#utility.yul\":20101:20119   */\n      add\n        /* \"#utility.yul\":20093:20119   */\n      swap1\n      pop\n        /* \"#utility.yul\":20165:20174   */\n      dup2\n        /* \"#utility.yul\":20159:20163   */\n      dup2\n        /* \"#utility.yul\":20155:20175   */\n      sub\n        /* \"#utility.yul\":20151:20152   */\n      0x00\n        /* \"#utility.yul\":20140:20149   */\n      dup4\n        /* \"#utility.yul\":20136:20153   */\n      add\n        /* \"#utility.yul\":20129:20176   */\n      mstore\n        /* \"#utility.yul\":20193:20271   */\n      tag_353\n        /* \"#utility.yul\":20266:20270   */\n      dup2\n        /* \"#utility.yul\":20257:20263   */\n      dup6\n        /* \"#utility.yul\":20193:20271   */\n      tag_119\n      jump\t// in\n    tag_353:\n        /* \"#utility.yul\":20185:20271   */\n      swap1\n      pop\n        /* \"#utility.yul\":20281:20353   */\n      tag_354\n        /* \"#utility.yul\":20349:20351   */\n      0x20\n        /* \"#utility.yul\":20338:20347   */\n      dup4\n        /* \"#utility.yul\":20334:20352   */\n      add\n        /* \"#utility.yul\":20325:20331   */\n      dup5\n        /* \"#utility.yul\":20281:20353   */\n      tag_98\n      jump\t// in\n    tag_354:\n        /* \"#utility.yul\":19937:20360   */\n      swap4\n      swap3\n      pop\n      pop\n      pop\n      jump\t// out\n        /* \"#utility.yul\":20366:20580   */\n    tag_156:\n        /* \"#utility.yul\":20506:20572   */\n      0x557375c3a172696f206ec3a36f20656e636f6e747261646f0000000000000000\n        /* \"#utility.yul\":20502:20503   */\n      0x00\n        /* \"#utility.yul\":20494:20500   */\n      dup3\n        /* \"#utility.yul\":20490:20504   */\n      add\n        /* \"#utility.yul\":20483:20573   */\n      mstore\n        /* \"#utility.yul\":20366:20580   */\n      pop\n      jump\t// out\n        /* \"#utility.yul\":20586:20952   */\n    tag_157:\n        /* \"#utility.yul\":20728:20731   */\n      0x00\n        /* \"#utility.yul\":20749:20816   */\n      tag_357\n        /* \"#utility.yul\":20813:20815   */\n      0x18\n        /* \"#utility.yul\":20808:20811   */\n      dup4\n        /* \"#utility.yul\":20749:20816   */\n      tag_117\n      jump\t// in\n    tag_357:\n        /* \"#utility.yul\":20742:20816   */\n      swap2\n      pop\n        /* \"#utility.yul\":20825:20918   */\n      tag_358\n        /* \"#utility.yul\":20914:20917   */\n      dup3\n        /* \"#utility.yul\":20825:20918   */\n      tag_156\n      jump\t// in\n    tag_358:\n        /* \"#utility.yul\":20943:20945   */\n      0x20\n        /* \"#utility.yul\":20938:20941   */\n      dup3\n        /* \"#utility.yul\":20934:20946   */\n      add\n        /* \"#utility.yul\":20927:20946   */\n      swap1\n      pop\n        /* \"#utility.yul\":20586:20952   */\n      swap2\n      swap1\n      pop\n      jump\t// out\n        /* \"#utility.yul\":20958:21377   */\n    tag_84:\n        /* \"#utility.yul\":21124:21128   */\n      0x00\n        /* \"#utility.yul\":21162:21164   */\n      0x20\n        /* \"#utility.yul\":21151:21160   */\n      dup3\n        /* \"#utility.yul\":21147:21165   */\n      add\n        /* \"#utility.yul\":21139:21165   */\n      swap1\n      pop\n        /* \"#utility.yul\":21211:21220   */\n      dup2\n        /* \"#utility.yul\":21205:21209   */\n      dup2\n        /* \"#utility.yul\":21201:21221   */\n      sub\n        /* \"#utility.yul\":21197:21198   */\n      0x00\n        /* \"#utility.yul\":21186:21195   */\n      dup4\n        /* \"#utility.yul\":21182:21199   */\n      add\n        /* \"#utility.yul\":21175:21222   */\n      mstore\n        /* \"#utility.yul\":21239:21370   */\n      tag_360\n        /* \"#utility.yul\":21365:21369   */\n      dup2\n        /* \"#utility.yul\":21239:21370   */\n      tag_157\n      jump\t// in\n    tag_360:\n        /* \"#utility.yul\":21231:21370   */\n      swap1\n      pop\n        /* \"#utility.yul\":20958:21377   */\n      swap2\n      swap1\n      pop\n      jump\t// out\n\n    auxdata: 0xa2646970667358221220cad2b01a1366feb06b8df320b980ec521c803993e12d3599fe149ec430ee622864736f6c634300081e0033\n}\n",
				"bytecode": {
					"linkReferences": {},
					"object": "6080604052348015600e575f5ffd5b506115838061001c5f395ff3fe608060405234801561000f575f5ffd5b5060043610610091575f3560e01c8063ada4823a11610064578063ada4823a1461010b578063bff5929114610127578063cd4205bd14610143578063d9b03e3714610176578063f6b91ea9146101a657610091565b80634b33ddde146100955780636e8fbc70146100b35780638d83f04b146100bd578063a7312953146100ed575b5f5ffd5b61009d6101d8565b6040516100aa9190610acc565b60405180910390f35b6100bb6101dd565b005b6100d760048036038101906100d29190610b50565b61030c565b6040516100e49190610acc565b60405180910390f35b6100f5610321565b6040516101029190610acc565b60405180910390f35b61012560048036038101906101209190610b50565b610327565b005b610141600480360381019061013c9190610cb7565b610556565b005b61015d60048036038101906101589190610b50565b61077c565b60405161016d9493929190610d78565b60405180910390f35b610190600480360381019061018b9190610b50565b6109ab565b60405161019d9190610dc2565b60405180910390f35b6101c060048036038101906101bb9190610b50565b6109fd565b6040516101cf93929190610ddb565b60405180910390f35b606481565b60025f3373ffffffffffffffffffffffffffffffffffffffff1673ffffffffffffffffffffffffffffffffffffffff1681526020019081526020015f205f9054906101000a900460ff16610266576040517f08c379a000000000000000000000000000000000000000000000000000000000815260040161025d90610e61565b60405180910390fd5b5f5f5f3373ffffffffffffffffffffffffffffffffffffffff1673ffffffffffffffffffffffffffffffffffffffff1681526020019081526020015f206002015f6101000a81548160ff0219169083151502179055503373ffffffffffffffffffffffffffffffffffffffff167fe2343909b8c695b14eb673fa9ffdf88525ac9bd45a365b66862b0c335f3504225f6040516103029190610f0b565b60405180910390a2565b6001602052805f5260405f205f915090505481565b60035481565b5f73ffffffffffffffffffffffffffffffffffffffff168173ffffffffffffffffffffffffffffffffffffffff1603610395576040517f08c379a000000000000000000000000000000000000000000000000000000000815260040161038c90610f81565b60405180910390fd5b60025f8273ffffffffffffffffffffffffffffffffffffffff1673ffffffffffffffffffffffffffffffffffffffff1681526020019081526020015f205f9054906101000a900460ff1661041e576040517f08c379a000000000000000000000000000000000000000000000000000000000815260040161041590610e61565b60405180910390fd5b600115155f5f8373ffffffffffffffffffffffffffffffffffffffff1673ffffffffffffffffffffffffffffffffffffffff1681526020019081526020015f206002015f9054906101000a900460ff161515146104b0576040517f08c379a00000000000000000000000000000000000000000000000000000000081526004016104a790610fe9565b60405180910390fd5b606460015f8373ffffffffffffffffffffffffffffffffffffffff1673ffffffffffffffffffffffffffffffffffffffff1681526020019081526020015f205f8282546104fd9190611034565b925050819055508073ffffffffffffffffffffffffffffffffffffffff167fe2343909b8c695b14eb673fa9ffdf88525ac9bd45a365b66862b0c335f350422606460405161054b91906110b1565b60405180910390a250565b5f815111610599576040517f08c379a000000000000000000000000000000000000000000000000000000000815260040161059090611127565b60405180910390fd5b60025f3373ffffffffffffffffffffffffffffffffffffffff1673ffffffffffffffffffffffffffffffffffffffff1681526020019081526020015f205f9054906101000a900460ff1615610623576040517f08c379a000000000000000000000000000000000000000000000000000000000815260040161061a9061118f565b60405180910390fd5b6040518060600160405280828152602001428152602001600115158152505f5f3373ffffffffffffffffffffffffffffffffffffffff1673ffffffffffffffffffffffffffffffffffffffff1681526020019081526020015f205f820151815f01908161069091906113a1565b50602082015181600101556040820151816002015f6101000a81548160ff021916908315150217905550905050600160025f3373ffffffffffffffffffffffffffffffffffffffff1673ffffffffffffffffffffffffffffffffffffffff1681526020019081526020015f205f6101000a81548160ff02191690831515021790555060035f81548092919061072490611470565b91905055503373ffffffffffffffffffffffffffffffffffffffff167f6b80d365f3ebb979d1707dbcc963d39e49752795929a8052289499c37e74168382426040516107719291906114b7565b60405180910390a250565b60605f5f5f60025f8673ffffffffffffffffffffffffffffffffffffffff1673ffffffffffffffffffffffffffffffffffffffff1681526020019081526020015f205f9054906101000a900460ff1661080a576040517f08c379a00000000000000000000000000000000000000000000000000000000081526004016108019061152f565b60405180910390fd5b5f5f8673ffffffffffffffffffffffffffffffffffffffff1673ffffffffffffffffffffffffffffffffffffffff1681526020019081526020015f205f015f5f8773ffffffffffffffffffffffffffffffffffffffff1673ffffffffffffffffffffffffffffffffffffffff1681526020019081526020015f20600101545f5f8873ffffffffffffffffffffffffffffffffffffffff1673ffffffffffffffffffffffffffffffffffffffff1681526020019081526020015f206002015f9054906101000a900460ff1660015f8973ffffffffffffffffffffffffffffffffffffffff1673ffffffffffffffffffffffffffffffffffffffff1681526020019081526020015f205483805461091e906111da565b80601f016020809104026020016040519081016040528092919081815260200182805461094a906111da565b80156109955780601f1061096c57610100808354040283529160200191610995565b820191905f5260205f20905b81548152906001019060200180831161097857829003601f168201915b5050505050935093509350935093509193509193565b5f60025f8373ffffffffffffffffffffffffffffffffffffffff1673ffffffffffffffffffffffffffffffffffffffff1681526020019081526020015f205f9054906101000a900460ff169050919050565b5f602052805f5260405f205f91509050805f018054610a1b906111da565b80601f0160208091040260200160405190810160405280929190818152602001828054610a47906111da565b8015610a925780601f10610a6957610100808354040283529160200191610a92565b820191905f5260205f20905b815481529060010190602001808311610a7557829003601f168201915b505050505090806001015490806002015f9054906101000a900460ff16905083565b5f819050919050565b610ac681610ab4565b82525050565b5f602082019050610adf5f830184610abd565b92915050565b5f604051905090565b5f5ffd5b5f5ffd5b5f73ffffffffffffffffffffffffffffffffffffffff82169050919050565b5f610b1f82610af6565b9050919050565b610b2f81610b15565b8114610b39575f5ffd5b50565b5f81359050610b4a81610b26565b92915050565b5f60208284031215610b6557610b64610aee565b5b5f610b7284828501610b3c565b91505092915050565b5f5ffd5b5f5ffd5b5f601f19601f8301169050919050565b7f4e487b71000000000000000000000000000000000000000000000000000000005f52604160045260245ffd5b610bc982610b83565b810181811067ffffffffffffffff82111715610be857610be7610b93565b5b80604052505050565b5f610bfa610ae5565b9050610c068282610bc0565b919050565b5f67ffffffffffffffff821115610c2557610c24610b93565b5b610c2e82610b83565b9050602081019050919050565b828183375f83830152505050565b5f610c5b610c5684610c0b565b610bf1565b905082815260208101848484011115610c7757610c76610b7f565b5b610c82848285610c3b565b509392505050565b5f82601f830112610c9e57610c9d610b7b565b5b8135610cae848260208601610c49565b91505092915050565b5f60208284031215610ccc57610ccb610aee565b5b5f82013567ffffffffffffffff811115610ce957610ce8610af2565b5b610cf584828501610c8a565b91505092915050565b5f81519050919050565b5f82825260208201905092915050565b8281835e5f83830152505050565b5f610d3082610cfe565b610d3a8185610d08565b9350610d4a818560208601610d18565b610d5381610b83565b840191505092915050565b5f8115159050919050565b610d7281610d5e565b82525050565b5f6080820190508181035f830152610d908187610d26565b9050610d9f6020830186610abd565b610dac6040830185610d69565b610db96060830184610abd565b95945050505050565b5f602082019050610dd55f830184610d69565b92915050565b5f6060820190508181035f830152610df38186610d26565b9050610e026020830185610abd565b610e0f6040830184610d69565b949350505050565b7f557375c3a172696f206ec3a36f207265676973747261646f00000000000000005f82015250565b5f610e4b601883610d08565b9150610e5682610e17565b602082019050919050565b5f6020820190508181035f830152610e7881610e3f565b9050919050565b5f819050919050565b5f819050919050565b5f610eab610ea6610ea184610e7f565b610e88565b610ab4565b9050919050565b610ebb81610e91565b82525050565b7f436f6e74612064657361746976616461000000000000000000000000000000005f82015250565b5f610ef5601083610d08565b9150610f0082610ec1565b602082019050919050565b5f604082019050610f1e5f830184610eb2565b8181036020830152610f2f81610ee9565b905092915050565b7f456e64657265c3a76f20696e76c3a16c69646f000000000000000000000000005f82015250565b5f610f6b601383610d08565b9150610f7682610f37565b602082019050919050565b5f6020820190508181035f830152610f9881610f5f565b9050919050565b7f557375c3a172696f20696e617469766f000000000000000000000000000000005f82015250565b5f610fd3601083610d08565b9150610fde82610f9f565b602082019050919050565b5f6020820190508181035f83015261100081610fc7565b9050919050565b7f4e487b71000000000000000000000000000000000000000000000000000000005f52601160045260245ffd5b5f61103e82610ab4565b915061104983610ab4565b925082820190508082111561106157611060611007565b5b92915050565b7f526567697374726f20646520757375c3a172696f0000000000000000000000005f82015250565b5f61109b601483610d08565b91506110a682611067565b602082019050919050565b5f6040820190506110c45f830184610abd565b81810360208301526110d58161108f565b905092915050565b7f4e6f6d65206ec3a36f20706f64652065737461722076617a696f0000000000005f82015250565b5f611111601a83610d08565b915061111c826110dd565b602082019050919050565b5f6020820190508181035f83015261113e81611105565b9050919050565b7f557375c3a172696f206ac3a1207265676973747261646f0000000000000000005f82015250565b5f611179601783610d08565b915061118482611145565b602082019050919050565b5f6020820190508181035f8301526111a68161116d565b9050919050565b7f4e487b71000000000000000000000000000000000000000000000000000000005f52602260045260245ffd5b5f60028204905060018216806111f157607f821691505b602082108103611204576112036111ad565b5b50919050565b5f819050815f5260205f209050919050565b5f6020601f8301049050919050565b5f82821b905092915050565b5f600883026112667fffffffffffffffffffffffffffffffffffffffffffffffffffffffffffffffff8261122b565b611270868361122b565b95508019841693508086168417925050509392505050565b5f6112a261129d61129884610ab4565b610e88565b610ab4565b9050919050565b5f819050919050565b6112bb83611288565b6112cf6112c7826112a9565b848454611237565b825550505050565b5f5f905090565b6112e66112d7565b6112f18184846112b2565b505050565b5b81811015611314576113095f826112de565b6001810190506112f7565b5050565b601f8211156113595761132a8161120a565b6113338461121c565b81016020851015611342578190505b61135661134e8561121c565b8301826112f6565b50505b505050565b5f82821c905092915050565b5f6113795f198460080261135e565b1980831691505092915050565b5f611391838361136a565b9150826002028217905092915050565b6113aa82610cfe565b67ffffffffffffffff8111156113c3576113c2610b93565b5b6113cd82546111da565b6113d8828285611318565b5f60209050601f831160018114611409575f84156113f7578287015190505b6114018582611386565b865550611468565b601f1984166114178661120a565b5f5b8281101561143e57848901518255600182019150602085019450602081019050611419565b8683101561145b5784890151611457601f89168261136a565b8355505b6001600288020188555050505b505050505050565b5f61147a82610ab4565b91507fffffffffffffffffffffffffffffffffffffffffffffffffffffffffffffffff82036114ac576114ab611007565b5b600182019050919050565b5f6040820190508181035f8301526114cf8185610d26565b90506114de6020830184610abd565b9392505050565b7f557375c3a172696f206ec3a36f20656e636f6e747261646f00000000000000005f82015250565b5f611519601883610d08565b9150611524826114e5565b602082019050919050565b5f6020820190508181035f8301526115468161150d565b905091905056fea2646970667358221220cad2b01a1366feb06b8df320b980ec521c803993e12d3599fe149ec430ee622864736f6c634300081e0033",
					"opcodes": "PUSH1 0x80 PUSH1 0x40 MSTORE CALLVALUE DUP1 ISZERO PUSH1 0xE JUMPI PUSH0 PUSH0 REVERT JUMPDEST POP PUSH2 0x1583 DUP1 PUSH2 0x1C PUSH0 CODECOPY PUSH0 RETURN INVALID PUSH1 0x80 PUSH1 0x40 MSTORE CALLVALUE DUP1 ISZERO PUSH2 0xF JUMPI PUSH0 PUSH0 REVERT JUMPDEST POP PUSH1 0x4 CALLDATASIZE LT PUSH2 0x91 JUMPI PUSH0 CALLDATALOAD PUSH1 0xE0 SHR DUP1 PUSH4 0xADA4823A GT PUSH2 0x64 JUMPI DUP1 PUSH4 0xADA4823A EQ PUSH2 0x10B JUMPI DUP1 PUSH4 0xBFF59291 EQ PUSH2 0x127 JUMPI DUP1 PUSH4 0xCD4205BD EQ PUSH2 0x143 JUMPI DUP1 PUSH4 0xD9B03E37 EQ PUSH2 0x176 JUMPI DUP1 PUSH4 0xF6B91EA9 EQ PUSH2 0x1A6 JUMPI PUSH2 0x91 JUMP JUMPDEST DUP1 PUSH4 0x4B33DDDE EQ PUSH2 0x95 JUMPI DUP1 PUSH4 0x6E8FBC70 EQ PUSH2 0xB3 JUMPI DUP1 PUSH4 0x8D83F04B EQ PUSH2 0xBD JUMPI DUP1 PUSH4 0xA7312953 EQ PUSH2 0xED JUMPI JUMPDEST PUSH0 PUSH0 REVERT JUMPDEST PUSH2 0x9D PUSH2 0x1D8 JUMP JUMPDEST PUSH1 0x40 MLOAD PUSH2 0xAA SWAP2 SWAP1 PUSH2 0xACC JUMP JUMPDEST PUSH1 0x40 MLOAD DUP1 SWAP2 SUB SWAP1 RETURN JUMPDEST PUSH2 0xBB PUSH2 0x1DD JUMP JUMPDEST STOP JUMPDEST PUSH2 0xD7 PUSH1 0x4 DUP1 CALLDATASIZE SUB DUP2 ADD SWAP1 PUSH2 0xD2 SWAP2 SWAP1 PUSH2 0xB50 JUMP JUMPDEST PUSH2 0x30C JUMP JUMPDEST PUSH1 0x40 MLOAD PUSH2 0xE4 SWAP2 SWAP1 PUSH2 0xACC JUMP JUMPDEST PUSH1 0x40 MLOAD DUP1 SWAP2 SUB SWAP1 RETURN JUMPDEST PUSH2 0xF5 PUSH2 0x321 JUMP JUMPDEST PUSH1 0x40 MLOAD PUSH2 0x102 SWAP2 SWAP1 PUSH2 0xACC JUMP JUMPDEST PUSH1 0x40 MLOAD DUP1 SWAP2 SUB SWAP1 RETURN JUMPDEST PUSH2 0x125 PUSH1 0x4 DUP1 CALLDATASIZE SUB DUP2 ADD SWAP1 PUSH2 0x120 SWAP2 SWAP1 PUSH2 0xB50 JUMP JUMPDEST PUSH2 0x327 JUMP JUMPDEST STOP JUMPDEST PUSH2 0x141 PUSH1 0x4 DUP1 CALLDATASIZE SUB DUP2 ADD SWAP1 PUSH2 0x13C SWAP2 SWAP1 PUSH2 0xCB7 JUMP JUMPDEST PUSH2 0x556 JUMP JUMPDEST STOP JUMPDEST PUSH2 0x15D PUSH1 0x4 DUP1 CALLDATASIZE SUB DUP2 ADD SWAP1 PUSH2 0x158 SWAP2 SWAP1 PUSH2 0xB50 JUMP JUMPDEST PUSH2 0x77C JUMP JUMPDEST PUSH1 0x40 MLOAD PUSH2 0x16D SWAP5 SWAP4 SWAP3 SWAP2 SWAP1 PUSH2 0xD78 JUMP JUMPDEST PUSH1 0x40 MLOAD DUP1 SWAP2 SUB SWAP1 RETURN JUMPDEST PUSH2 0x190 PUSH1 0x4 DUP1 CALLDATASIZE SUB DUP2 ADD SWAP1 PUSH2 0x18B SWAP2 SWAP1 PUSH2 0xB50 JUMP JUMPDEST PUSH2 0x9AB JUMP JUMPDEST PUSH1 0x40 MLOAD PUSH2 0x19D SWAP2 SWAP1 PUSH2 0xDC2 JUMP JUMPDEST PUSH1 0x40 MLOAD DUP1 SWAP2 SUB SWAP1 RETURN JUMPDEST PUSH2 0x1C0 PUSH1 0x4 DUP1 CALLDATASIZE SUB DUP2 ADD SWAP1 PUSH2 0x1BB SWAP2 SWAP1 PUSH2 0xB50 JUMP JUMPDEST PUSH2 0x9FD JUMP JUMPDEST PUSH1 0x40 MLOAD PUSH2 0x1CF SWAP4 SWAP3 SWAP2 SWAP1 PUSH2 0xDDB JUMP JUMPDEST PUSH1 0x40 MLOAD DUP1 SWAP2 SUB SWAP1 RETURN JUMPDEST PUSH1 0x64 DUP2 JUMP JUMPDEST PUSH1 0x2 PUSH0 CALLER PUSH20 0xFFFFFFFFFFFFFFFFFFFFFFFFFFFFFFFFFFFFFFFF AND PUSH20 0xFFFFFFFFFFFFFFFFFFFFFFFFFFFFFFFFFFFFFFFF AND DUP2 MSTORE PUSH1 0x20 ADD SWAP1 DUP2 MSTORE PUSH1 0x20 ADD PUSH0 KECCAK256 PUSH0 SWAP1 SLOAD SWAP1 PUSH2 0x100 EXP SWAP1 DIV PUSH1 0xFF AND PUSH2 0x266 JUMPI PUSH1 0x40 MLOAD PUSH32 0x8C379A000000000000000000000000000000000000000000000000000000000 DUP2 MSTORE PUSH1 0x4 ADD PUSH2 0x25D SWAP1 PUSH2 0xE61 JUMP JUMPDEST PUSH1 0x40 MLOAD DUP1 SWAP2 SUB SWAP1 REVERT JUMPDEST PUSH0 PUSH0 PUSH0 CALLER PUSH20 0xFFFFFFFFFFFFFFFFFFFFFFFFFFFFFFFFFFFFFFFF AND PUSH20 0xFFFFFFFFFFFFFFFFFFFFFFFFFFFFFFFFFFFFFFFF AND DUP2 MSTORE PUSH1 0x20 ADD SWAP1 DUP2 MSTORE PUSH1 0x20 ADD PUSH0 KECCAK256 PUSH1 0x2 ADD PUSH0 PUSH2 0x100 EXP DUP2 SLOAD DUP2 PUSH1 0xFF MUL NOT AND SWAP1 DUP4 ISZERO ISZERO MUL OR SWAP1 SSTORE POP CALLER PUSH20 0xFFFFFFFFFFFFFFFFFFFFFFFFFFFFFFFFFFFFFFFF AND PUSH32 0xE2343909B8C695B14EB673FA9FFDF88525AC9BD45A365B66862B0C335F350422 PUSH0 PUSH1 0x40 MLOAD PUSH2 0x302 SWAP2 SWAP1 PUSH2 0xF0B JUMP JUMPDEST PUSH1 0x40 MLOAD DUP1 SWAP2 SUB SWAP1 LOG2 JUMP JUMPDEST PUSH1 0x1 PUSH1 0x20 MSTORE DUP1 PUSH0 MSTORE PUSH1 0x40 PUSH0 KECCAK256 PUSH0 SWAP2 POP SWAP1 POP SLOAD DUP2 JUMP JUMPDEST PUSH1 0x3 SLOAD DUP2 JUMP JUMPDEST PUSH0 PUSH20 0xFFFFFFFFFFFFFFFFFFFFFFFFFFFFFFFFFFFFFFFF AND DUP2 PUSH20 0xFFFFFFFFFFFFFFFFFFFFFFFFFFFFFFFFFFFFFFFF AND SUB PUSH2 0x395 JUMPI PUSH1 0x40 MLOAD PUSH32 0x8C379A000000000000000000000000000000000000000000000000000000000 DUP2 MSTORE PUSH1 0x4 ADD PUSH2 0x38C SWAP1 PUSH2 0xF81 JUMP JUMPDEST PUSH1 0x40 MLOAD DUP1 SWAP2 SUB SWAP1 REVERT JUMPDEST PUSH1 0x2 PUSH0 DUP3 PUSH20 0xFFFFFFFFFFFFFFFFFFFFFFFFFFFFFFFFFFFFFFFF AND PUSH20 0xFFFFFFFFFFFFFFFFFFFFFFFFFFFFFFFFFFFFFFFF AND DUP2 MSTORE PUSH1 0x20 ADD SWAP1 DUP2 MSTORE PUSH1 0x20 ADD PUSH0 KECCAK256 PUSH0 SWAP1 SLOAD SWAP1 PUSH2 0x100 EXP SWAP1 DIV PUSH1 0xFF AND PUSH2 0x41E JUMPI PUSH1 0x40 MLOAD PUSH32 0x8C379A000000000000000000000000000000000000000000000000000000000 DUP2 MSTORE PUSH1 0x4 ADD PUSH2 0x415 SWAP1 PUSH2 0xE61 JUMP JUMPDEST PUSH1 0x40 MLOAD DUP1 SWAP2 SUB SWAP1 REVERT JUMPDEST PUSH1 0x1 ISZERO ISZERO PUSH0 PUSH0 DUP4 PUSH20 0xFFFFFFFFFFFFFFFFFFFFFFFFFFFFFFFFFFFFFFFF AND PUSH20 0xFFFFFFFFFFFFFFFFFFFFFFFFFFFFFFFFFFFFFFFF AND DUP2 MSTORE PUSH1 0x20 ADD SWAP1 DUP2 MSTORE PUSH1 0x20 ADD PUSH0 KECCAK256 PUSH1 0x2 ADD PUSH0 SWAP1 SLOAD SWAP1 PUSH2 0x100 EXP SWAP1 DIV PUSH1 0xFF AND ISZERO ISZERO EQ PUSH2 0x4B0 JUMPI PUSH1 0x40 MLOAD PUSH32 0x8C379A000000000000000000000000000000000000000000000000000000000 DUP2 MSTORE PUSH1 0x4 ADD PUSH2 0x4A7 SWAP1 PUSH2 0xFE9 JUMP JUMPDEST PUSH1 0x40 MLOAD DUP1 SWAP2 SUB SWAP1 REVERT JUMPDEST PUSH1 0x64 PUSH1 0x1 PUSH0 DUP4 PUSH20 0xFFFFFFFFFFFFFFFFFFFFFFFFFFFFFFFFFFFFFFFF AND PUSH20 0xFFFFFFFFFFFFFFFFFFFFFFFFFFFFFFFFFFFFFFFF AND DUP2 MSTORE PUSH1 0x20 ADD SWAP1 DUP2 MSTORE PUSH1 0x20 ADD PUSH0 KECCAK256 PUSH0 DUP3 DUP3 SLOAD PUSH2 0x4FD SWAP2 SWAP1 PUSH2 0x1034 JUMP JUMPDEST SWAP3 POP POP DUP2 SWAP1 SSTORE POP DUP1 PUSH20 0xFFFFFFFFFFFFFFFFFFFFFFFFFFFFFFFFFFFFFFFF AND PUSH32 0xE2343909B8C695B14EB673FA9FFDF88525AC9BD45A365B66862B0C335F350422 PUSH1 0x64 PUSH1 0x40 MLOAD PUSH2 0x54B SWAP2 SWAP1 PUSH2 0x10B1 JUMP JUMPDEST PUSH1 0x40 MLOAD DUP1 SWAP2 SUB SWAP1 LOG2 POP JUMP JUMPDEST PUSH0 DUP2 MLOAD GT PUSH2 0x599 JUMPI PUSH1 0x40 MLOAD PUSH32 0x8C379A000000000000000000000000000000000000000000000000000000000 DUP2 MSTORE PUSH1 0x4 ADD PUSH2 0x590 SWAP1 PUSH2 0x1127 JUMP JUMPDEST PUSH1 0x40 MLOAD DUP1 SWAP2 SUB SWAP1 REVERT JUMPDEST PUSH1 0x2 PUSH0 CALLER PUSH20 0xFFFFFFFFFFFFFFFFFFFFFFFFFFFFFFFFFFFFFFFF AND PUSH20 0xFFFFFFFFFFFFFFFFFFFFFFFFFFFFFFFFFFFFFFFF AND DUP2 MSTORE PUSH1 0x20 ADD SWAP1 DUP2 MSTORE PUSH1 0x20 ADD PUSH0 KECCAK256 PUSH0 SWAP1 SLOAD SWAP1 PUSH2 0x100 EXP SWAP1 DIV PUSH1 0xFF AND ISZERO PUSH2 0x623 JUMPI PUSH1 0x40 MLOAD PUSH32 0x8C379A000000000000000000000000000000000000000000000000000000000 DUP2 MSTORE PUSH1 0x4 ADD PUSH2 0x61A SWAP1 PUSH2 0x118F JUMP JUMPDEST PUSH1 0x40 MLOAD DUP1 SWAP2 SUB SWAP1 REVERT JUMPDEST PUSH1 0x40 MLOAD DUP1 PUSH1 0x60 ADD PUSH1 0x40 MSTORE DUP1 DUP3 DUP2 MSTORE PUSH1 0x20 ADD TIMESTAMP DUP2 MSTORE PUSH1 0x20 ADD PUSH1 0x1 ISZERO ISZERO DUP2 MSTORE POP PUSH0 PUSH0 CALLER PUSH20 0xFFFFFFFFFFFFFFFFFFFFFFFFFFFFFFFFFFFFFFFF AND PUSH20 0xFFFFFFFFFFFFFFFFFFFFFFFFFFFFFFFFFFFFFFFF AND DUP2 MSTORE PUSH1 0x20 ADD SWAP1 DUP2 MSTORE PUSH1 0x20 ADD PUSH0 KECCAK256 PUSH0 DUP3 ADD MLOAD DUP2 PUSH0 ADD SWAP1 DUP2 PUSH2 0x690 SWAP2 SWAP1 PUSH2 0x13A1 JUMP JUMPDEST POP PUSH1 0x20 DUP3 ADD MLOAD DUP2 PUSH1 0x1 ADD SSTORE PUSH1 0x40 DUP3 ADD MLOAD DUP2 PUSH1 0x2 ADD PUSH0 PUSH2 0x100 EXP DUP2 SLOAD DUP2 PUSH1 0xFF MUL NOT AND SWAP1 DUP4 ISZERO ISZERO MUL OR SWAP1 SSTORE POP SWAP1 POP POP PUSH1 0x1 PUSH1 0x2 PUSH0 CALLER PUSH20 0xFFFFFFFFFFFFFFFFFFFFFFFFFFFFFFFFFFFFFFFF AND PUSH20 0xFFFFFFFFFFFFFFFFFFFFFFFFFFFFFFFFFFFFFFFF AND DUP2 MSTORE PUSH1 0x20 ADD SWAP1 DUP2 MSTORE PUSH1 0x20 ADD PUSH0 KECCAK256 PUSH0 PUSH2 0x100 EXP DUP2 SLOAD DUP2 PUSH1 0xFF MUL NOT AND SWAP1 DUP4 ISZERO ISZERO MUL OR SWAP1 SSTORE POP PUSH1 0x3 PUSH0 DUP2 SLOAD DUP1 SWAP3 SWAP2 SWAP1 PUSH2 0x724 SWAP1 PUSH2 0x1470 JUMP JUMPDEST SWAP2 SWAP1 POP SSTORE POP CALLER PUSH20 0xFFFFFFFFFFFFFFFFFFFFFFFFFFFFFFFFFFFFFFFF AND PUSH32 0x6B80D365F3EBB979D1707DBCC963D39E49752795929A8052289499C37E741683 DUP3 TIMESTAMP PUSH1 0x40 MLOAD PUSH2 0x771 SWAP3 SWAP2 SWAP1 PUSH2 0x14B7 JUMP JUMPDEST PUSH1 0x40 MLOAD DUP1 SWAP2 SUB SWAP1 LOG2 POP JUMP JUMPDEST PUSH1 0x60 PUSH0 PUSH0 PUSH0 PUSH1 0x2 PUSH0 DUP7 PUSH20 0xFFFFFFFFFFFFFFFFFFFFFFFFFFFFFFFFFFFFFFFF AND PUSH20 0xFFFFFFFFFFFFFFFFFFFFFFFFFFFFFFFFFFFFFFFF AND DUP2 MSTORE PUSH1 0x20 ADD SWAP1 DUP2 MSTORE PUSH1 0x20 ADD PUSH0 KECCAK256 PUSH0 SWAP1 SLOAD SWAP1 PUSH2 0x100 EXP SWAP1 DIV PUSH1 0xFF AND PUSH2 0x80A JUMPI PUSH1 0x40 MLOAD PUSH32 0x8C379A000000000000000000000000000000000000000000000000000000000 DUP2 MSTORE PUSH1 0x4 ADD PUSH2 0x801 SWAP1 PUSH2 0x152F JUMP JUMPDEST PUSH1 0x40 MLOAD DUP1 SWAP2 SUB SWAP1 REVERT JUMPDEST PUSH0 PUSH0 DUP7 PUSH20 0xFFFFFFFFFFFFFFFFFFFFFFFFFFFFFFFFFFFFFFFF AND PUSH20 0xFFFFFFFFFFFFFFFFFFFFFFFFFFFFFFFFFFFFFFFF AND DUP2 MSTORE PUSH1 0x20 ADD SWAP1 DUP2 MSTORE PUSH1 0x20 ADD PUSH0 KECCAK256 PUSH0 ADD PUSH0 PUSH0 DUP8 PUSH20 0xFFFFFFFFFFFFFFFFFFFFFFFFFFFFFFFFFFFFFFFF AND PUSH20 0xFFFFFFFFFFFFFFFFFFFFFFFFFFFFFFFFFFFFFFFF AND DUP2 MSTORE PUSH1 0x20 ADD SWAP1 DUP2 MSTORE PUSH1 0x20 ADD PUSH0 KECCAK256 PUSH1 0x1 ADD SLOAD PUSH0 PUSH0 DUP9 PUSH20 0xFFFFFFFFFFFFFFFFFFFFFFFFFFFFFFFFFFFFFFFF AND PUSH20 0xFFFFFFFFFFFFFFFFFFFFFFFFFFFFFFFFFFFFFFFF AND DUP2 MSTORE PUSH1 0x20 ADD SWAP1 DUP2 MSTORE PUSH1 0x20 ADD PUSH0 KECCAK256 PUSH1 0x2 ADD PUSH0 SWAP1 SLOAD SWAP1 PUSH2 0x100 EXP SWAP1 DIV PUSH1 0xFF AND PUSH1 0x1 PUSH0 DUP10 PUSH20 0xFFFFFFFFFFFFFFFFFFFFFFFFFFFFFFFFFFFFFFFF AND PUSH20 0xFFFFFFFFFFFFFFFFFFFFFFFFFFFFFFFFFFFFFFFF AND DUP2 MSTORE PUSH1 0x20 ADD SWAP1 DUP2 MSTORE PUSH1 0x20 ADD PUSH0 KECCAK256 SLOAD DUP4 DUP1 SLOAD PUSH2 0x91E SWAP1 PUSH2 0x11DA JUMP JUMPDEST DUP1 PUSH1 0x1F ADD PUSH1 0x20 DUP1 SWAP2 DIV MUL PUSH1 0x20 ADD PUSH1 0x40 MLOAD SWAP1 DUP2 ADD PUSH1 0x40 MSTORE DUP1 SWAP3 SWAP2 SWAP1 DUP2 DUP2 MSTORE PUSH1 0x20 ADD DUP3 DUP1 SLOAD PUSH2 0x94A SWAP1 PUSH2 0x11DA JUMP JUMPDEST DUP1 ISZERO PUSH2 0x995 JUMPI DUP1 PUSH1 0x1F LT PUSH2 0x96C JUMPI PUSH2 0x100 DUP1 DUP4 SLOAD DIV MUL DUP4 MSTORE SWAP2 PUSH1 0x20 ADD SWAP2 PUSH2 0x995 JUMP JUMPDEST DUP3 ADD SWAP2 SWAP1 PUSH0 MSTORE PUSH1 0x20 PUSH0 KECCAK256 SWAP1 JUMPDEST DUP2 SLOAD DUP2 MSTORE SWAP1 PUSH1 0x1 ADD SWAP1 PUSH1 0x20 ADD DUP1 DUP4 GT PUSH2 0x978 JUMPI DUP3 SWAP1 SUB PUSH1 0x1F AND DUP3 ADD SWAP2 JUMPDEST POP POP POP POP POP SWAP4 POP SWAP4 POP SWAP4 POP SWAP4 POP SWAP4 POP SWAP2 SWAP4 POP SWAP2 SWAP4 JUMP JUMPDEST PUSH0 PUSH1 0x2 PUSH0 DUP4 PUSH20 0xFFFFFFFFFFFFFFFFFFFFFFFFFFFFFFFFFFFFFFFF AND PUSH20 0xFFFFFFFFFFFFFFFFFFFFFFFFFFFFFFFFFFFFFFFF AND DUP2 MSTORE PUSH1 0x20 ADD SWAP1 DUP2 MSTORE PUSH1 0x20 ADD PUSH0 KECCAK256 PUSH0 SWAP1 SLOAD SWAP1 PUSH2 0x100 EXP SWAP1 DIV PUSH1 0xFF AND SWAP1 POP SWAP2 SWAP1 POP JUMP JUMPDEST PUSH0 PUSH1 0x20 MSTORE DUP1 PUSH0 MSTORE PUSH1 0x40 PUSH0 KECCAK256 PUSH0 SWAP2 POP SWAP1 POP DUP1 PUSH0 ADD DUP1 SLOAD PUSH2 0xA1B SWAP1 PUSH2 0x11DA JUMP JUMPDEST DUP1 PUSH1 0x1F ADD PUSH1 0x20 DUP1 SWAP2 DIV MUL PUSH1 0x20 ADD PUSH1 0x40 MLOAD SWAP1 DUP2 ADD PUSH1 0x40 MSTORE DUP1 SWAP3 SWAP2 SWAP1 DUP2 DUP2 MSTORE PUSH1 0x20 ADD DUP3 DUP1 SLOAD PUSH2 0xA47 SWAP1 PUSH2 0x11DA JUMP JUMPDEST DUP1 ISZERO PUSH2 0xA92 JUMPI DUP1 PUSH1 0x1F LT PUSH2 0xA69 JUMPI PUSH2 0x100 DUP1 DUP4 SLOAD DIV MUL DUP4 MSTORE SWAP2 PUSH1 0x20 ADD SWAP2 PUSH2 0xA92 JUMP JUMPDEST DUP3 ADD SWAP2 SWAP1 PUSH0 MSTORE PUSH1 0x20 PUSH0 KECCAK256 SWAP1 JUMPDEST DUP2 SLOAD DUP2 MSTORE SWAP1 PUSH1 0x1 ADD SWAP1 PUSH1 0x20 ADD DUP1 DUP4 GT PUSH2 0xA75 JUMPI DUP3 SWAP1 SUB PUSH1 0x1F AND DUP3 ADD SWAP2 JUMPDEST POP POP POP POP POP SWAP1 DUP1 PUSH1 0x1 ADD SLOAD SWAP1 DUP1 PUSH1 0x2 ADD PUSH0 SWAP1 SLOAD SWAP1 PUSH2 0x100 EXP SWAP1 DIV PUSH1 0xFF AND SWAP1 POP DUP4 JUMP JUMPDEST PUSH0 DUP2 SWAP1 POP SWAP2 SWAP1 POP JUMP JUMPDEST PUSH2 0xAC6 DUP2 PUSH2 0xAB4 JUMP JUMPDEST DUP3 MSTORE POP POP JUMP JUMPDEST PUSH0 PUSH1 0x20 DUP3 ADD SWAP1 POP PUSH2 0xADF PUSH0 DUP4 ADD DUP5 PUSH2 0xABD JUMP JUMPDEST SWAP3 SWAP2 POP POP JUMP JUMPDEST PUSH0 PUSH1 0x40 MLOAD SWAP1 POP SWAP1 JUMP JUMPDEST PUSH0 PUSH0 REVERT JUMPDEST PUSH0 PUSH0 REVERT JUMPDEST PUSH0 PUSH20 0xFFFFFFFFFFFFFFFFFFFFFFFFFFFFFFFFFFFFFFFF DUP3 AND SWAP1 POP SWAP2 SWAP1 POP JUMP JUMPDEST PUSH0 PUSH2 0xB1F DUP3 PUSH2 0xAF6 JUMP JUMPDEST SWAP1 POP SWAP2 SWAP1 POP JUMP JUMPDEST PUSH2 0xB2F DUP2 PUSH2 0xB15 JUMP JUMPDEST DUP2 EQ PUSH2 0xB39 JUMPI PUSH0 PUSH0 REVERT JUMPDEST POP JUMP JUMPDEST PUSH0 DUP2 CALLDATALOAD SWAP1 POP PUSH2 0xB4A DUP2 PUSH2 0xB26 JUMP JUMPDEST SWAP3 SWAP2 POP POP JUMP JUMPDEST PUSH0 PUSH1 0x20 DUP3 DUP5 SUB SLT ISZERO PUSH2 0xB65 JUMPI PUSH2 0xB64 PUSH2 0xAEE JUMP JUMPDEST JUMPDEST PUSH0 PUSH2 0xB72 DUP5 DUP3 DUP6 ADD PUSH2 0xB3C JUMP JUMPDEST SWAP2 POP POP SWAP3 SWAP2 POP POP JUMP JUMPDEST PUSH0 PUSH0 REVERT JUMPDEST PUSH0 PUSH0 REVERT JUMPDEST PUSH0 PUSH1 0x1F NOT PUSH1 0x1F DUP4 ADD AND SWAP1 POP SWAP2 SWAP1 POP JUMP JUMPDEST PUSH32 0x4E487B7100000000000000000000000000000000000000000000000000000000 PUSH0 MSTORE PUSH1 0x41 PUSH1 0x4 MSTORE PUSH1 0x24 PUSH0 REVERT JUMPDEST PUSH2 0xBC9 DUP3 PUSH2 0xB83 JUMP JUMPDEST DUP2 ADD DUP2 DUP2 LT PUSH8 0xFFFFFFFFFFFFFFFF DUP3 GT OR ISZERO PUSH2 0xBE8 JUMPI PUSH2 0xBE7 PUSH2 0xB93 JUMP JUMPDEST JUMPDEST DUP1 PUSH1 0x40 MSTORE POP POP POP JUMP JUMPDEST PUSH0 PUSH2 0xBFA PUSH2 0xAE5 JUMP JUMPDEST SWAP1 POP PUSH2 0xC06 DUP3 DUP3 PUSH2 0xBC0 JUMP JUMPDEST SWAP2 SWAP1 POP JUMP JUMPDEST PUSH0 PUSH8 0xFFFFFFFFFFFFFFFF DUP3 GT ISZERO PUSH2 0xC25 JUMPI PUSH2 0xC24 PUSH2 0xB93 JUMP JUMPDEST JUMPDEST PUSH2 0xC2E DUP3 PUSH2 0xB83 JUMP JUMPDEST SWAP1 POP PUSH1 0x20 DUP2 ADD SWAP1 POP SWAP2 SWAP1 POP JUMP JUMPDEST DUP3 DUP2 DUP4 CALLDATACOPY PUSH0 DUP4 DUP4 ADD MSTORE POP POP POP JUMP JUMPDEST PUSH0 PUSH2 0xC5B PUSH2 0xC56 DUP5 PUSH2 0xC0B JUMP JUMPDEST PUSH2 0xBF1 JUMP JUMPDEST SWAP1 POP DUP3 DUP2 MSTORE PUSH1 0x20 DUP2 ADD DUP5 DUP5 DUP5 ADD GT ISZERO PUSH2 0xC77 JUMPI PUSH2 0xC76 PUSH2 0xB7F JUMP JUMPDEST JUMPDEST PUSH2 0xC82 DUP5 DUP3 DUP6 PUSH2 0xC3B JUMP JUMPDEST POP SWAP4 SWAP3 POP POP POP JUMP JUMPDEST PUSH0 DUP3 PUSH1 0x1F DUP4 ADD SLT PUSH2 0xC9E JUMPI PUSH2 0xC9D PUSH2 0xB7B JUMP JUMPDEST JUMPDEST DUP2 CALLDATALOAD PUSH2 0xCAE DUP5 DUP3 PUSH1 0x20 DUP7 ADD PUSH2 0xC49 JUMP JUMPDEST SWAP2 POP POP SWAP3 SWAP2 POP POP JUMP JUMPDEST PUSH0 PUSH1 0x20 DUP3 DUP5 SUB SLT ISZERO PUSH2 0xCCC JUMPI PUSH2 0xCCB PUSH2 0xAEE JUMP JUMPDEST JUMPDEST PUSH0 DUP3 ADD CALLDATALOAD PUSH8 0xFFFFFFFFFFFFFFFF DUP2 GT ISZERO PUSH2 0xCE9 JUMPI PUSH2 0xCE8 PUSH2 0xAF2 JUMP JUMPDEST JUMPDEST PUSH2 0xCF5 DUP5 DUP3 DUP6 ADD PUSH2 0xC8A JUMP JUMPDEST SWAP2 POP POP SWAP3 SWAP2 POP POP JUMP JUMPDEST PUSH0 DUP2 MLOAD SWAP1 POP SWAP2 SWAP1 POP JUMP JUMPDEST PUSH0 DUP3 DUP3 MSTORE PUSH1 0x20 DUP3 ADD SWAP1 POP SWAP3 SWAP2 POP POP JUMP JUMPDEST DUP3 DUP2 DUP4 MCOPY PUSH0 DUP4 DUP4 ADD MSTORE POP POP POP JUMP JUMPDEST PUSH0 PUSH2 0xD30 DUP3 PUSH2 0xCFE JUMP JUMPDEST PUSH2 0xD3A DUP2 DUP6 PUSH2 0xD08 JUMP JUMPDEST SWAP4 POP PUSH2 0xD4A DUP2 DUP6 PUSH1 0x20 DUP7 ADD PUSH2 0xD18 JUMP JUMPDEST PUSH2 0xD53 DUP2 PUSH2 0xB83 JUMP JUMPDEST DUP5 ADD SWAP2 POP POP SWAP3 SWAP2 POP POP JUMP JUMPDEST PUSH0 DUP2 ISZERO ISZERO SWAP1 POP SWAP2 SWAP1 POP JUMP JUMPDEST PUSH2 0xD72 DUP2 PUSH2 0xD5E JUMP JUMPDEST DUP3 MSTORE POP POP JUMP JUMPDEST PUSH0 PUSH1 0x80 DUP3 ADD SWAP1 POP DUP2 DUP2 SUB PUSH0 DUP4 ADD MSTORE PUSH2 0xD90 DUP2 DUP8 PUSH2 0xD26 JUMP JUMPDEST SWAP1 POP PUSH2 0xD9F PUSH1 0x20 DUP4 ADD DUP7 PUSH2 0xABD JUMP JUMPDEST PUSH2 0xDAC PUSH1 0x40 DUP4 ADD DUP6 PUSH2 0xD69 JUMP JUMPDEST PUSH2 0xDB9 PUSH1 0x60 DUP4 ADD DUP5 PUSH2 0xABD JUMP JUMPDEST SWAP6 SWAP5 POP POP POP POP POP JUMP JUMPDEST PUSH0 PUSH1 0x20 DUP3 ADD SWAP1 POP PUSH2 0xDD5 PUSH0 DUP4 ADD DUP5 PUSH2 0xD69 JUMP JUMPDEST SWAP3 SWAP2 POP POP JUMP JUMPDEST PUSH0 PUSH1 0x60 DUP3 ADD SWAP1 POP DUP2 DUP2 SUB PUSH0 DUP4 ADD MSTORE PUSH2 0xDF3 DUP2 DUP7 PUSH2 0xD26 JUMP JUMPDEST SWAP1 POP PUSH2 0xE02 PUSH1 0x20 DUP4 ADD DUP6 PUSH2 0xABD JUMP JUMPDEST PUSH2 0xE0F PUSH1 0x40 DUP4 ADD DUP5 PUSH2 0xD69 JUMP JUMPDEST SWAP5 SWAP4 POP POP POP POP JUMP JUMPDEST PUSH32 0x557375C3A172696F206EC3A36F207265676973747261646F0000000000000000 PUSH0 DUP3 ADD MSTORE POP JUMP JUMPDEST PUSH0 PUSH2 0xE4B PUSH1 0x18 DUP4 PUSH2 0xD08 JUMP JUMPDEST SWAP2 POP PUSH2 0xE56 DUP3 PUSH2 0xE17 JUMP JUMPDEST PUSH1 0x20 DUP3 ADD SWAP1 POP SWAP2 SWAP1 POP JUMP JUMPDEST PUSH0 PUSH1 0x20 DUP3 ADD SWAP1 POP DUP2 DUP2 SUB PUSH0 DUP4 ADD MSTORE PUSH2 0xE78 DUP2 PUSH2 0xE3F JUMP JUMPDEST SWAP1 POP SWAP2 SWAP1 POP JUMP JUMPDEST PUSH0 DUP2 SWAP1 POP SWAP2 SWAP1 POP JUMP JUMPDEST PUSH0 DUP2 SWAP1 POP SWAP2 SWAP1 POP JUMP JUMPDEST PUSH0 PUSH2 0xEAB PUSH2 0xEA6 PUSH2 0xEA1 DUP5 PUSH2 0xE7F JUMP JUMPDEST PUSH2 0xE88 JUMP JUMPDEST PUSH2 0xAB4 JUMP JUMPDEST SWAP1 POP SWAP2 SWAP1 POP JUMP JUMPDEST PUSH2 0xEBB DUP2 PUSH2 0xE91 JUMP JUMPDEST DUP3 MSTORE POP POP JUMP JUMPDEST PUSH32 0x436F6E7461206465736174697661646100000000000000000000000000000000 PUSH0 DUP3 ADD MSTORE POP JUMP JUMPDEST PUSH0 PUSH2 0xEF5 PUSH1 0x10 DUP4 PUSH2 0xD08 JUMP JUMPDEST SWAP2 POP PUSH2 0xF00 DUP3 PUSH2 0xEC1 JUMP JUMPDEST PUSH1 0x20 DUP3 ADD SWAP1 POP SWAP2 SWAP1 POP JUMP JUMPDEST PUSH0 PUSH1 0x40 DUP3 ADD SWAP1 POP PUSH2 0xF1E PUSH0 DUP4 ADD DUP5 PUSH2 0xEB2 JUMP JUMPDEST DUP2 DUP2 SUB PUSH1 0x20 DUP4 ADD MSTORE PUSH2 0xF2F DUP2 PUSH2 0xEE9 JUMP JUMPDEST SWAP1 POP SWAP3 SWAP2 POP POP JUMP JUMPDEST PUSH32 0x456E64657265C3A76F20696E76C3A16C69646F00000000000000000000000000 PUSH0 DUP3 ADD MSTORE POP JUMP JUMPDEST PUSH0 PUSH2 0xF6B PUSH1 0x13 DUP4 PUSH2 0xD08 JUMP JUMPDEST SWAP2 POP PUSH2 0xF76 DUP3 PUSH2 0xF37 JUMP JUMPDEST PUSH1 0x20 DUP3 ADD SWAP1 POP SWAP2 SWAP1 POP JUMP JUMPDEST PUSH0 PUSH1 0x20 DUP3 ADD SWAP1 POP DUP2 DUP2 SUB PUSH0 DUP4 ADD MSTORE PUSH2 0xF98 DUP2 PUSH2 0xF5F JUMP JUMPDEST SWAP1 POP SWAP2 SWAP1 POP JUMP JUMPDEST PUSH32 0x557375C3A172696F20696E617469766F00000000000000000000000000000000 PUSH0 DUP3 ADD MSTORE POP JUMP JUMPDEST PUSH0 PUSH2 0xFD3 PUSH1 0x10 DUP4 PUSH2 0xD08 JUMP JUMPDEST SWAP2 POP PUSH2 0xFDE DUP3 PUSH2 0xF9F JUMP JUMPDEST PUSH1 0x20 DUP3 ADD SWAP1 POP SWAP2 SWAP1 POP JUMP JUMPDEST PUSH0 PUSH1 0x20 DUP3 ADD SWAP1 POP DUP2 DUP2 SUB PUSH0 DUP4 ADD MSTORE PUSH2 0x1000 DUP2 PUSH2 0xFC7 JUMP JUMPDEST SWAP1 POP SWAP2 SWAP1 POP JUMP JUMPDEST PUSH32 0x4E487B7100000000000000000000000000000000000000000000000000000000 PUSH0 MSTORE PUSH1 0x11 PUSH1 0x4 MSTORE PUSH1 0x24 PUSH0 REVERT JUMPDEST PUSH0 PUSH2 0x103E DUP3 PUSH2 0xAB4 JUMP JUMPDEST SWAP2 POP PUSH2 0x1049 DUP4 PUSH2 0xAB4 JUMP JUMPDEST SWAP3 POP DUP3 DUP3 ADD SWAP1 POP DUP1 DUP3 GT ISZERO PUSH2 0x1061 JUMPI PUSH2 0x1060 PUSH2 0x1007 JUMP JUMPDEST JUMPDEST SWAP3 SWAP2 POP POP JUMP JUMPDEST PUSH32 0x526567697374726F20646520757375C3A172696F000000000000000000000000 PUSH0 DUP3 ADD MSTORE POP JUMP JUMPDEST PUSH0 PUSH2 0x109B PUSH1 0x14 DUP4 PUSH2 0xD08 JUMP JUMPDEST SWAP2 POP PUSH2 0x10A6 DUP3 PUSH2 0x1067 JUMP JUMPDEST PUSH1 0x20 DUP3 ADD SWAP1 POP SWAP2 SWAP1 POP JUMP JUMPDEST PUSH0 PUSH1 0x40 DUP3 ADD SWAP1 POP PUSH2 0x10C4 PUSH0 DUP4 ADD DUP5 PUSH2 0xABD JUMP JUMPDEST DUP2 DUP2 SUB PUSH1 0x20 DUP4 ADD MSTORE PUSH2 0x10D5 DUP2 PUSH2 0x108F JUMP JUMPDEST SWAP1 POP SWAP3 SWAP2 POP POP JUMP JUMPDEST PUSH32 0x4E6F6D65206EC3A36F20706F64652065737461722076617A696F000000000000 PUSH0 DUP3 ADD MSTORE POP JUMP JUMPDEST PUSH0 PUSH2 0x1111 PUSH1 0x1A DUP4 PUSH2 0xD08 JUMP JUMPDEST SWAP2 POP PUSH2 0x111C DUP3 PUSH2 0x10DD JUMP JUMPDEST PUSH1 0x20 DUP3 ADD SWAP1 POP SWAP2 SWAP1 POP JUMP JUMPDEST PUSH0 PUSH1 0x20 DUP3 ADD SWAP1 POP DUP2 DUP2 SUB PUSH0 DUP4 ADD MSTORE PUSH2 0x113E DUP2 PUSH2 0x1105 JUMP JUMPDEST SWAP1 POP SWAP2 SWAP1 POP JUMP JUMPDEST PUSH32 0x557375C3A172696F206AC3A1207265676973747261646F000000000000000000 PUSH0 DUP3 ADD MSTORE POP JUMP JUMPDEST PUSH0 PUSH2 0x1179 PUSH1 0x17 DUP4 PUSH2 0xD08 JUMP JUMPDEST SWAP2 POP PUSH2 0x1184 DUP3 PUSH2 0x1145 JUMP JUMPDEST PUSH1 0x20 DUP3 ADD SWAP1 POP SWAP2 SWAP1 POP JUMP JUMPDEST PUSH0 PUSH1 0x20 DUP3 ADD SWAP1 POP DUP2 DUP2 SUB PUSH0 DUP4 ADD MSTORE PUSH2 0x11A6 DUP2 PUSH2 0x116D JUMP JUMPDEST SWAP1 POP SWAP2 SWAP1 POP JUMP JUMPDEST PUSH32 0x4E487B7100000000000000000000000000000000000000000000000000000000 PUSH0 MSTORE PUSH1 0x22 PUSH1 0x4 MSTORE PUSH1 0x24 PUSH0 REVERT JUMPDEST PUSH0 PUSH1 0x2 DUP3 DIV SWAP1 POP PUSH1 0x1 DUP3 AND DUP1 PUSH2 0x11F1 JUMPI PUSH1 0x7F DUP3 AND SWAP2 POP JUMPDEST PUSH1 0x20 DUP3 LT DUP2 SUB PUSH2 0x1204 JUMPI PUSH2 0x1203 PUSH2 0x11AD JUMP JUMPDEST JUMPDEST POP SWAP2 SWAP1 POP JUMP JUMPDEST PUSH0 DUP2 SWAP1 POP DUP2 PUSH0 MSTORE PUSH1 0x20 PUSH0 KECCAK256 SWAP1 POP SWAP2 SWAP1 POP JUMP JUMPDEST PUSH0 PUSH1 0x20 PUSH1 0x1F DUP4 ADD DIV SWAP1 POP SWAP2 SWAP1 POP JUMP JUMPDEST PUSH0 DUP3 DUP3 SHL SWAP1 POP SWAP3 SWAP2 POP POP JUMP JUMPDEST PUSH0 PUSH1 0x8 DUP4 MUL PUSH2 0x1266 PUSH32 0xFFFFFFFFFFFFFFFFFFFFFFFFFFFFFFFFFFFFFFFFFFFFFFFFFFFFFFFFFFFFFFFF DUP3 PUSH2 0x122B JUMP JUMPDEST PUSH2 0x1270 DUP7 DUP4 PUSH2 0x122B JUMP JUMPDEST SWAP6 POP DUP1 NOT DUP5 AND SWAP4 POP DUP1 DUP7 AND DUP5 OR SWAP3 POP POP POP SWAP4 SWAP3 POP POP POP JUMP JUMPDEST PUSH0 PUSH2 0x12A2 PUSH2 0x129D PUSH2 0x1298 DUP5 PUSH2 0xAB4 JUMP JUMPDEST PUSH2 0xE88 JUMP JUMPDEST PUSH2 0xAB4 JUMP JUMPDEST SWAP1 POP SWAP2 SWAP1 POP JUMP JUMPDEST PUSH0 DUP2 SWAP1 POP SWAP2 SWAP1 POP JUMP JUMPDEST PUSH2 0x12BB DUP4 PUSH2 0x1288 JUMP JUMPDEST PUSH2 0x12CF PUSH2 0x12C7 DUP3 PUSH2 0x12A9 JUMP JUMPDEST DUP5 DUP5 SLOAD PUSH2 0x1237 JUMP JUMPDEST DUP3 SSTORE POP POP POP POP JUMP JUMPDEST PUSH0 PUSH0 SWAP1 POP SWAP1 JUMP JUMPDEST PUSH2 0x12E6 PUSH2 0x12D7 JUMP JUMPDEST PUSH2 0x12F1 DUP2 DUP5 DUP5 PUSH2 0x12B2 JUMP JUMPDEST POP POP POP JUMP JUMPDEST JUMPDEST DUP2 DUP2 LT ISZERO PUSH2 0x1314 JUMPI PUSH2 0x1309 PUSH0 DUP3 PUSH2 0x12DE JUMP JUMPDEST PUSH1 0x1 DUP2 ADD SWAP1 POP PUSH2 0x12F7 JUMP JUMPDEST POP POP JUMP JUMPDEST PUSH1 0x1F DUP3 GT ISZERO PUSH2 0x1359 JUMPI PUSH2 0x132A DUP2 PUSH2 0x120A JUMP JUMPDEST PUSH2 0x1333 DUP5 PUSH2 0x121C JUMP JUMPDEST DUP2 ADD PUSH1 0x20 DUP6 LT ISZERO PUSH2 0x1342 JUMPI DUP2 SWAP1 POP JUMPDEST PUSH2 0x1356 PUSH2 0x134E DUP6 PUSH2 0x121C JUMP JUMPDEST DUP4 ADD DUP3 PUSH2 0x12F6 JUMP JUMPDEST POP POP JUMPDEST POP POP POP JUMP JUMPDEST PUSH0 DUP3 DUP3 SHR SWAP1 POP SWAP3 SWAP2 POP POP JUMP JUMPDEST PUSH0 PUSH2 0x1379 PUSH0 NOT DUP5 PUSH1 0x8 MUL PUSH2 0x135E JUMP JUMPDEST NOT DUP1 DUP4 AND SWAP2 POP POP SWAP3 SWAP2 POP POP JUMP JUMPDEST PUSH0 PUSH2 0x1391 DUP4 DUP4 PUSH2 0x136A JUMP JUMPDEST SWAP2 POP DUP3 PUSH1 0x2 MUL DUP3 OR SWAP1 POP SWAP3 SWAP2 POP POP JUMP JUMPDEST PUSH2 0x13AA DUP3 PUSH2 0xCFE JUMP JUMPDEST PUSH8 0xFFFFFFFFFFFFFFFF DUP2 GT ISZERO PUSH2 0x13C3 JUMPI PUSH2 0x13C2 PUSH2 0xB93 JUMP JUMPDEST JUMPDEST PUSH2 0x13CD DUP3 SLOAD PUSH2 0x11DA JUMP JUMPDEST PUSH2 0x13D8 DUP3 DUP3 DUP6 PUSH2 0x1318 JUMP JUMPDEST PUSH0 PUSH1 0x20 SWAP1 POP PUSH1 0x1F DUP4 GT PUSH1 0x1 DUP2 EQ PUSH2 0x1409 JUMPI PUSH0 DUP5 ISZERO PUSH2 0x13F7 JUMPI DUP3 DUP8 ADD MLOAD SWAP1 POP JUMPDEST PUSH2 0x1401 DUP6 DUP3 PUSH2 0x1386 JUMP JUMPDEST DUP7 SSTORE POP PUSH2 0x1468 JUMP JUMPDEST PUSH1 0x1F NOT DUP5 AND PUSH2 0x1417 DUP7 PUSH2 0x120A JUMP JUMPDEST PUSH0 JUMPDEST DUP3 DUP2 LT ISZERO PUSH2 0x143E JUMPI DUP5 DUP10 ADD MLOAD DUP3 SSTORE PUSH1 0x1 DUP3 ADD SWAP2 POP PUSH1 0x20 DUP6 ADD SWAP5 POP PUSH1 0x20 DUP2 ADD SWAP1 POP PUSH2 0x1419 JUMP JUMPDEST DUP7 DUP4 LT ISZERO PUSH2 0x145B JUMPI DUP5 DUP10 ADD MLOAD PUSH2 0x1457 PUSH1 0x1F DUP10 AND DUP3 PUSH2 0x136A JUMP JUMPDEST DUP4 SSTORE POP JUMPDEST PUSH1 0x1 PUSH1 0x2 DUP9 MUL ADD DUP9 SSTORE POP POP POP JUMPDEST POP POP POP POP POP POP JUMP JUMPDEST PUSH0 PUSH2 0x147A DUP3 PUSH2 0xAB4 JUMP JUMPDEST SWAP2 POP PUSH32 0xFFFFFFFFFFFFFFFFFFFFFFFFFFFFFFFFFFFFFFFFFFFFFFFFFFFFFFFFFFFFFFFF DUP3 SUB PUSH2 0x14AC JUMPI PUSH2 0x14AB PUSH2 0x1007 JUMP JUMPDEST JUMPDEST PUSH1 0x1 DUP3 ADD SWAP1 POP SWAP2 SWAP1 POP JUMP JUMPDEST PUSH0 PUSH1 0x40 DUP3 ADD SWAP1 POP DUP2 DUP2 SUB PUSH0 DUP4 ADD MSTORE PUSH2 0x14CF DUP2 DUP6 PUSH2 0xD26 JUMP JUMPDEST SWAP1 POP PUSH2 0x14DE PUSH1 0x20 DUP4 ADD DUP5 PUSH2 0xABD JUMP JUMPDEST SWAP4 SWAP3 POP POP POP JUMP JUMPDEST PUSH32 0x557375C3A172696F206EC3A36F20656E636F6E747261646F0000000000000000 PUSH0 DUP3 ADD MSTORE POP JUMP JUMPDEST PUSH0 PUSH2 0x1519 PUSH1 0x18 DUP4 PUSH2 0xD08 JUMP JUMPDEST SWAP2 POP PUSH2 0x1524 DUP3 PUSH2 0x14E5 JUMP JUMPDEST PUSH1 0x20 DUP3 ADD SWAP1 POP SWAP2 SWAP1 POP JUMP JUMPDEST PUSH0 PUSH1 0x20 DUP3 ADD SWAP1 POP DUP2 DUP2 SUB PUSH0 DUP4 ADD MSTORE PUSH2 0x1546 DUP2 PUSH2 0x150D JUMP JUMPDEST SWAP1 POP SWAP2 SWAP1 POP JUMP INVALID LOG2 PUSH5 0x6970667358 0x22 SLT KECCAK256 0xCA 0xD2 0xB0 BYTE SGT PUSH7 0xFEB06B8DF320B9 DUP1 EOFCREATE 0x52 SHR DUP1 CODECOPY SWAP4 RJUMPI 0x2D35 SWAP10 INVALID EQ SWAP15 0xC4 ADDRESS RETURNCONTRACT 0x62 0x28 PUSH5 0x736F6C6343 STOP ADDMOD 0x1E STOP CALLER "
				},
				"gasEstimates": {
					"creation": {
						"codeDepositCost": "1101400",
						"executionCost": "1145",
						"totalCost": "1102545"
					},
					"external": {
						"RECOMPENSA_POR_USUARIO()": "326",
						"consultarUsuario(address)": "infinite",
						"desativarConta()": "29425",
						"recompensarUsuario(address)": "infinite",
						"registrarUsuario(string)": "infinite",
						"saldosTokens(address)": "2847",
						"totalUsuarios()": "2492",
						"usuarios(address)": "infinite",
						"verificarRegistro(address)": "2936"
					}
				},
				"methodIdentifiers": {
					"RECOMPENSA_POR_USUARIO()": "4b33ddde",
					"consultarUsuario(address)": "cd4205bd",
					"desativarConta()": "6e8fbc70",
					"recompensarUsuario(address)": "ada4823a",
					"registrarUsuario(string)": "bff59291",
					"saldosTokens(address)": "8d83f04b",
					"totalUsuarios()": "a7312953",
					"usuarios(address)": "f6b91ea9",
					"verificarRegistro(address)": "d9b03e37"
				}
			},
			"storageLayout": {
				"storage": [
					{
						"astId": 16,
						"contract": "derek_santos_smartcontract.sol:RegistroDeUsuariosComRecompensa",
						"label": "usuarios",
						"offset": 0,
						"slot": "0",
						"type": "t_mapping(t_address,t_struct(Usuario)10_storage)"
					},
					{
						"astId": 21,
						"contract": "derek_santos_smartcontract.sol:RegistroDeUsuariosComRecompensa",
						"label": "saldosTokens",
						"offset": 0,
						"slot": "1",
						"type": "t_mapping(t_address,t_uint256)"
					},
					{
						"astId": 26,
						"contract": "derek_santos_smartcontract.sol:RegistroDeUsuariosComRecompensa",
						"label": "usuarioRegistrado",
						"offset": 0,
						"slot": "2",
						"type": "t_mapping(t_address,t_bool)"
					},
					{
						"astId": 29,
						"contract": "derek_santos_smartcontract.sol:RegistroDeUsuariosComRecompensa",
						"label": "totalUsuarios",
						"offset": 0,
						"slot": "3",
						"type": "t_uint256"
					}
				],
				"types": {
					"t_address": {
						"encoding": "inplace",
						"label": "address",
						"numberOfBytes": "20"
					},
					"t_bool": {
						"encoding": "inplace",
						"label": "bool",
						"numberOfBytes": "1"
					},
					"t_mapping(t_address,t_bool)": {
						"encoding": "mapping",
						"key": "t_address",
						"label": "mapping(address => bool)",
						"numberOfBytes": "32",
						"value": "t_bool"
					},
					"t_mapping(t_address,t_struct(Usuario)10_storage)": {
						"encoding": "mapping",
						"key": "t_address",
						"label": "mapping(address => struct RegistroDeUsuariosComRecompensa.Usuario)",
						"numberOfBytes": "32",
						"value": "t_struct(Usuario)10_storage"
					},
					"t_mapping(t_address,t_uint256)": {
						"encoding": "mapping",
						"key": "t_address",
						"label": "mapping(address => uint256)",
						"numberOfBytes": "32",
						"value": "t_uint256"
					},
					"t_string_storage": {
						"encoding": "bytes",
						"label": "string",
						"numberOfBytes": "32"
					},
					"t_struct(Usuario)10_storage": {
						"encoding": "inplace",
						"label": "struct RegistroDeUsuariosComRecompensa.Usuario",
						"members": [
							{
								"astId": 5,
								"contract": "derek_santos_smartcontract.sol:RegistroDeUsuariosComRecompensa",
								"label": "nome",
								"offset": 0,
								"slot": "0",
								"type": "t_string_storage"
							},
							{
								"astId": 7,
								"contract": "derek_santos_smartcontract.sol:RegistroDeUsuariosComRecompensa",
								"label": "dataRegistro",
								"offset": 0,
								"slot": "1",
								"type": "t_uint256"
							},
							{
								"astId": 9,
								"contract": "derek_santos_smartcontract.sol:RegistroDeUsuariosComRecompensa",
								"label": "ativo",
								"offset": 0,
								"slot": "2",
								"type": "t_bool"
							}
						],
						"numberOfBytes": "96"
					},
					"t_uint256": {
						"encoding": "inplace",
						"label": "uint256",
						"numberOfBytes": "32"
					}
				}
			},
			"userdoc": {
				"kind": "user",
				"methods": {},
				"version": 1
			}
		}
	}
}