{
	"data": {
		"bytecode": {
			"linkReferences": {},
			"object": "6080604052348015600e575f5ffd5b506115838061001c5f395ff3fe608060405234801561000f575f5ffd5b5060043610610091575f3560e01c8063ada4823a11610064578063ada4823a1461010b578063bff5929114610127578063cd4205bd14610143578063d9b03e3714610176578063f6b91ea9146101a657610091565b80634b33ddde146100955780636e8fbc70146100b35780638d83f04b146100bd578063a7312953146100ed575b5f5ffd5b61009d6101d8565b6040516100aa9190610acc565b60405180910390f35b6100bb6101dd565b005b6100d760048036038101906100d29190610b50565b61030c565b6040516100e49190610acc565b60405180910390f35b6100f5610321565b6040516101029190610acc565b60405180910390f35b61012560048036038101906101209190610b50565b610327565b005b610141600480360381019061013c9190610cb7565b610556565b005b61015d60048036038101906101589190610b50565b61077c565b60405161016d9493929190610d78565b60405180910390f35b610190600480360381019061018b9190610b50565b6109ab565b60405161019d9190610dc2565b60405180910390f35b6101c060048036038101906101bb9190610b50565b6109fd565b6040516101cf93929190610ddb565b60405180910390f35b606481565b60025f3373ffffffffffffffffffffffffffffffffffffffff1673ffffffffffffffffffffffffffffffffffffffff1681526020019081526020015f205f9054906101000a900460ff16610266576040517f08c379a000000000000000000000000000000000000000000000000000000000815260040161025d90610e61565b60405180910390fd5b5f5f5f3373ffffffffffffffffffffffffffffffffffffffff1673ffffffffffffffffffffffffffffffffffffffff1681526020019081526020015f206002015f6101000a81548160ff0219169083151502179055503373ffffffffffffffffffffffffffffffffffffffff167fe2343909b8c695b14eb673fa9ffdf88525ac9bd45a365b66862b0c335f3504225f6040516103029190610f0b565b60405180910390a2565b6001602052805f5260405f205f915090505481565b60035481565b5f73ffffffffffffffffffffffffffffffffffffffff168173ffffffffffffffffffffffffffffffffffffffff1603610395576040517f08c379a000000000000000000000000000000000000000000000000000000000815260040161038c90610f81565b60405180910390fd5b60025f8273ffffffffffffffffffffffffffffffffffffffff1673ffffffffffffffffffffffffffffffffffffffff1681526020019081526020015f205f9054906101000a900460ff1661041e576040517f08c379a000000000000000000000000000000000000000000000000000000000815260040161041590610e61565b60405180910390fd5b600115155f5f8373ffffffffffffffffffffffffffffffffffffffff1673ffffffffffffffffffffffffffffffffffffffff1681526020019081526020015f206002015f9054906101000a900460ff161515146104b0576040517f08c379a00000000000000000000000000000000000000000000000000000000081526004016104a790610fe9565b60405180910390fd5b606460015f8373ffffffffffffffffffffffffffffffffffffffff1673ffffffffffffffffffffffffffffffffffffffff1681526020019081526020015f205f8282546104fd9190611034565b925050819055508073ffffffffffffffffffffffffffffffffffffffff167fe2343909b8c695b14eb673fa9ffdf88525ac9bd45a365b66862b0c335f350422606460405161054b91906110b1565b60405180910390a250565b5f815111610599576040517f08c379a000000000000000000000000000000000000000000000000000000000815260040161059090611127565b60405180910390fd5b60025f3373ffffffffffffffffffffffffffffffffffffffff1673ffffffffffffffffffffffffffffffffffffffff1681526020019081526020015f205f9054906101000a900460ff1615610623576040517f08c379a000000000000000000000000000000000000000000000000000000000815260040161061a9061118f565b60405180910390fd5b6040518060600160405280828152602001428152602001600115158152505f5f3373ffffffffffffffffffffffffffffffffffffffff1673ffffffffffffffffffffffffffffffffffffffff1681526020019081526020015f205f820151815f01908161069091906113a1565b50602082015181600101556040820151816002015f6101000a81548160ff021916908315150217905550905050600160025f3373ffffffffffffffffffffffffffffffffffffffff1673ffffffffffffffffffffffffffffffffffffffff1681526020019081526020015f205f6101000a81548160ff02191690831515021790555060035f81548092919061072490611470565b91905055503373ffffffffffffffffffffffffffffffffffffffff167f6b80d365f3ebb979d1707dbcc963d39e49752795929a8052289499c37e74168382426040516107719291906114b7565b60405180910390a250565b60605f5f5f60025f8673ffffffffffffffffffffffffffffffffffffffff1673ffffffffffffffffffffffffffffffffffffffff1681526020019081526020015f205f9054906101000a900460ff1661080a576040517f08c379a00000000000000000000000000000000000000000000000000000000081526004016108019061152f565b60405180910390fd5b5f5f8673ffffffffffffffffffffffffffffffffffffffff1673ffffffffffffffffffffffffffffffffffffffff1681526020019081526020015f205f015f5f8773ffffffffffffffffffffffffffffffffffffffff1673ffffffffffffffffffffffffffffffffffffffff1681526020019081526020015f20600101545f5f8873ffffffffffffffffffffffffffffffffffffffff1673ffffffffffffffffffffffffffffffffffffffff1681526020019081526020015f206002015f9054906101000a900460ff1660015f8973ffffffffffffffffffffffffffffffffffffffff1673ffffffffffffffffffffffffffffffffffffffff1681526020019081526020015f205483805461091e906111da565b80601f016020809104026020016040519081016040528092919081815260200182805461094a906111da565b80156109955780601f1061096c57610100808354040283529160200191610995565b820191905f5260205f20905b81548152906001019060200180831161097857829003601f168201915b5050505050935093509350935093509193509193565b5f60025f8373ffffffffffffffffffffffffffffffffffffffff1673ffffffffffffffffffffffffffffffffffffffff1681526020019081526020015f205f9054906101000a900460ff169050919050565b5f602052805f5260405f205f91509050805f018054610a1b906111da565b80601f0160208091040260200160405190810160405280929190818152602001828054610a47906111da565b8015610a925780601f10610a6957610100808354040283529160200191610a92565b820191905f5260205f20905b815481529060010190602001808311610a7557829003601f168201915b505050505090806001015490806002015f9054906101000a900460ff16905083565b5f819050919050565b610ac681610ab4565b82525050565b5f602082019050610adf5f830184610abd565b92915050565b5f604051905090565b5f5ffd5b5f5ffd5b5f73ffffffffffffffffffffffffffffffffffffffff82169050919050565b5f610b1f82610af6565b9050919050565b610b2f81610b15565b8114610b39575f5ffd5b50565b5f81359050610b4a81610b26565b92915050565b5f60208284031215610b6557610b64610aee565b5b5f610b7284828501610b3c565b91505092915050565b5f5ffd5b5f5ffd5b5f601f19601f8301169050919050565b7f4e487b71000000000000000000000000000000000000000000000000000000005f52604160045260245ffd5b610bc982610b83565b810181811067ffffffffffffffff82111715610be857610be7610b93565b5b80604052505050565b5f610bfa610ae5565b9050610c068282610bc0565b919050565b5f67ffffffffffffffff821115610c2557610c24610b93565b5b610c2e82610b83565b9050602081019050919050565b828183375f83830152505050565b5f610c5b610c5684610c0b565b610bf1565b905082815260208101848484011115610c7757610c76610b7f565b5b610c82848285610c3b565b509392505050565b5f82601f830112610c9e57610c9d610b7b565b5b8135610cae848260208601610c49565b91505092915050565b5f60208284031215610ccc57610ccb610aee565b5b5f82013567ffffffffffffffff811115610ce957610ce8610af2565b5b610cf584828501610c8a565b91505092915050565b5f81519050919050565b5f82825260208201905092915050565b8281835e5f83830152505050565b5f610d3082610cfe565b610d3a8185610d08565b9350610d4a818560208601610d18565b610d5381610b83565b840191505092915050565b5f8115159050919050565b610d7281610d5e565b82525050565b5f6080820190508181035f830152610d908187610d26565b9050610d9f6020830186610abd565b610dac6040830185610d69565b610db96060830184610abd565b95945050505050565b5f602082019050610dd55f830184610d69565b92915050565b5f6060820190508181035f830152610df38186610d26565b9050610e026020830185610abd565b610e0f6040830184610d69565b949350505050565b7f557375c3a172696f206ec3a36f207265676973747261646f00000000000000005f82015250565b5f610e4b601883610d08565b9150610e5682610e17565b602082019050919050565b5f6020820190508181035f830152610e7881610e3f565b9050919050565b5f819050919050565b5f819050919050565b5f610eab610ea6610ea184610e7f565b610e88565b610ab4565b9050919050565b610ebb81610e91565b82525050565b7f436f6e74612064657361746976616461000000000000000000000000000000005f82015250565b5f610ef5601083610d08565b9150610f0082610ec1565b602082019050919050565b5f604082019050610f1e5f830184610eb2565b8181036020830152610f2f81610ee9565b905092915050565b7f456e64657265c3a76f20696e76c3a16c69646f000000000000000000000000005f82015250565b5f610f6b601383610d08565b9150610f7682610f37565b602082019050919050565b5f6020820190508181035f830152610f9881610f5f565b9050919050565b7f557375c3a172696f20696e617469766f000000000000000000000000000000005f82015250565b5f610fd3601083610d08565b9150610fde82610f9f565b602082019050919050565b5f6020820190508181035f83015261100081610fc7565b9050919050565b7f4e487b71000000000000000000000000000000000000000000000000000000005f52601160045260245ffd5b5f61103e82610ab4565b915061104983610ab4565b925082820190508082111561106157611060611007565b5b92915050565b7f526567697374726f20646520757375c3a172696f0000000000000000000000005f82015250565b5f61109b601483610d08565b91506110a682611067565b602082019050919050565b5f6040820190506110c45f830184610abd565b81810360208301526110d58161108f565b905092915050565b7f4e6f6d65206ec3a36f20706f64652065737461722076617a696f0000000000005f82015250565b5f611111601a83610d08565b915061111c826110dd565b602082019050919050565b5f6020820190508181035f83015261113e81611105565b9050919050565b7f557375c3a172696f206ac3a1207265676973747261646f0000000000000000005f82015250565b5f611179601783610d08565b915061118482611145565b602082019050919050565b5f6020820190508181035f8301526111a68161116d565b9050919050565b7f4e487b71000000000000000000000000000000000000000000000000000000005f52602260045260245ffd5b5f60028204905060018216806111f157607f821691505b602082108103611204576112036111ad565b5b50919050565b5f819050815f5260205f209050919050565b5f6020601f8301049050919050565b5f82821b905092915050565b5f600883026112667fffffffffffffffffffffffffffffffffffffffffffffffffffffffffffffffff8261122b565b611270868361122b565b95508019841693508086168417925050509392505050565b5f6112a261129d61129884610ab4565b610e88565b610ab4565b9050919050565b5f819050919050565b6112bb83611288565b6112cf6112c7826112a9565b848454611237565b825550505050565b5f5f905090565b6112e66112d7565b6112f18184846112b2565b505050565b5b81811015611314576113095f826112de565b6001810190506112f7565b5050565b601f8211156113595761132a8161120a565b6113338461121c565b81016020851015611342578190505b61135661134e8561121c565b8301826112f6565b50505b505050565b5f82821c905092915050565b5f6113795f198460080261135e565b1980831691505092915050565b5f611391838361136a565b9150826002028217905092915050565b6113aa82610cfe565b67ffffffffffffffff8111156113c3576113c2610b93565b5b6113cd82546111da565b6113d8828285611318565b5f60209050601f831160018114611409575f84156113f7578287015190505b6114018582611386565b865550611468565b601f1984166114178661120a565b5f5b8281101561143e57848901518255600182019150602085019450602081019050611419565b8683101561145b5784890151611457601f89168261136a565b8355505b6001600288020188555050505b505050505050565b5f61147a82610ab4565b91507fffffffffffffffffffffffffffffffffffffffffffffffffffffffffffffffff82036114ac576114ab611007565b5b600182019050919050565b5f6040820190508181035f8301526114cf8185610d26565b90506114de6020830184610abd565b9392505050565b7f557375c3a172696f206ec3a36f20656e636f6e747261646f00000000000000005f82015250565b5f611519601883610d08565b9150611524826114e5565b602082019050919050565b5f6020820190508181035f8301526115468161150d565b905091905056fea26469706673582212201de7fd19d44524ee7d9c96df092f442a67bd48b6516ec101242893a2ab1dd82264736f6c634300081e0033",
			"opcodes": "PUSH1 0x80 PUSH1 0x40 MSTORE CALLVALUE DUP1 ISZERO PUSH1 0xE JUMPI PUSH0 PUSH0 REVERT JUMPDEST POP PUSH2 0x1583 DUP1 PUSH2 0x1C PUSH0 CODECOPY PUSH0 RETURN INVALID PUSH1 0x80 PUSH1 0x40 MSTORE CALLVALUE DUP1 ISZERO PUSH2 0xF JUMPI PUSH0 PUSH0 REVERT JUMPDEST POP PUSH1 0x4 CALLDATASIZE LT PUSH2 0x91 JUMPI PUSH0 CALLDATALOAD PUSH1 0xE0 SHR DUP1 PUSH4 0xADA4823A GT PUSH2 0x64 JUMPI DUP1 PUSH4 0xADA4823A EQ PUSH2 0x10B JUMPI DUP1 PUSH4 0xBFF59291 EQ PUSH2 0x127 JUMPI DUP1 PUSH4 0xCD4205BD EQ PUSH2 0x143 JUMPI DUP1 PUSH4 0xD9B03E37 EQ PUSH2 0x176 JUMPI DUP1 PUSH4 0xF6B91EA9 EQ PUSH2 0x1A6 JUMPI PUSH2 0x91 JUMP JUMPDEST DUP1 PUSH4 0x4B33DDDE EQ PUSH2 0x95 JUMPI DUP1 PUSH4 0x6E8FBC70 EQ PUSH2 0xB3 JUMPI DUP1 PUSH4 0x8D83F04B EQ PUSH2 0xBD JUMPI DUP1 PUSH4 0xA7312953 EQ PUSH2 0xED JUMPI JUMPDEST PUSH0 PUSH0 REVERT JUMPDEST PUSH2 0x9D PUSH2 0x1D8 JUMP JUMPDEST PUSH1 0x40 MLOAD PUSH2 0xAA SWAP2 SWAP1 PUSH2 0xACC JUMP JUMPDEST PUSH1 0x40 MLOAD DUP1 SWAP2 SUB SWAP1 RETURN JUMPDEST PUSH2 0xBB PUSH2 0x1DD JUMP JUMPDEST STOP JUMPDEST PUSH2 0xD7 PUSH1 0x4 DUP1 CALLDATASIZE SUB DUP2 ADD SWAP1 PUSH2 0xD2 SWAP2 SWAP1 PUSH2 0xB50 JUMP JUMPDEST PUSH2 0x30C JUMP JUMPDEST PUSH1 0x40 MLOAD PUSH2 0xE4 SWAP2 SWAP1 PUSH2 0xACC JUMP JUMPDEST PUSH1 0x40 MLOAD DUP1 SWAP2 SUB SWAP1 RETURN JUMPDEST PUSH2 0xF5 PUSH2 0x321 JUMP JUMPDEST PUSH1 0x40 MLOAD PUSH2 0x102 SWAP2 SWAP1 PUSH2 0xACC JUMP JUMPDEST PUSH1 0x40 MLOAD DUP1 SWAP2 SUB SWAP1 RETURN JUMPDEST PUSH2 0x125 PUSH1 0x4 DUP1 CALLDATASIZE SUB DUP2 ADD SWAP1 PUSH2 0x120 SWAP2 SWAP1 PUSH2 0xB50 JUMP JUMPDEST PUSH2 0x327 JUMP JUMPDEST STOP JUMPDEST PUSH2 0x141 PUSH1 0x4 DUP1 CALLDATASIZE SUB DUP2 ADD SWAP1 PUSH2 0x13C SWAP2 SWAP1 PUSH2 0xCB7 JUMP JUMPDEST PUSH2 0x556 JUMP JUMPDEST STOP JUMPDEST PUSH2 0x15D PUSH1 0x4 DUP1 CALLDATASIZE SUB DUP2 ADD SWAP1 PUSH2 0x158 SWAP2 SWAP1 PUSH2 0xB50 JUMP JUMPDEST PUSH2 0x77C JUMP JUMPDEST PUSH1 0x40 MLOAD PUSH2 0x16D SWAP5 SWAP4 SWAP3 SWAP2 SWAP1 PUSH2 0xD78 JUMP JUMPDEST PUSH1 0x40 MLOAD DUP1 SWAP2 SUB SWAP1 RETURN JUMPDEST PUSH2 0x190 PUSH1 0x4 DUP1 CALLDATASIZE SUB DUP2 ADD SWAP1 PUSH2 0x18B SWAP2 SWAP1 PUSH2 0xB50 JUMP JUMPDEST PUSH2 0x9AB JUMP JUMPDEST PUSH1 0x40 MLOAD PUSH2 0x19D SWAP2 SWAP1 PUSH2 0xDC2 JUMP JUMPDEST PUSH1 0x40 MLOAD DUP1 SWAP2 SUB SWAP1 RETURN JUMPDEST PUSH2 0x1C0 PUSH1 0x4 DUP1 CALLDATASIZE SUB DUP2 ADD SWAP1 PUSH2 0x1BB SWAP2 SWAP1 PUSH2 0xB50 JUMP JUMPDEST PUSH2 0x9FD JUMP JUMPDEST PUSH1 0x40 MLOAD PUSH2 0x1CF SWAP4 SWAP3 SWAP2 SWAP1 PUSH2 0xDDB JUMP JUMPDEST PUSH1 0x40 MLOAD DUP1 SWAP2 SUB SWAP1 RETURN JUMPDEST PUSH1 0x64 DUP2 JUMP JUMPDEST PUSH1 0x2 PUSH0 CALLER PUSH20 0xFFFFFFFFFFFFFFFFFFFFFFFFFFFFFFFFFFFFFFFF AND PUSH20 0xFFFFFFFFFFFFFFFFFFFFFFFFFFFFFFFFFFFFFFFF AND DUP2 MSTORE PUSH1 0x20 ADD SWAP1 DUP2 MSTORE PUSH1 0x20 ADD PUSH0 KECCAK256 PUSH0 SWAP1 SLOAD SWAP1 PUSH2 0x100 EXP SWAP1 DIV PUSH1 0xFF AND PUSH2 0x266 JUMPI PUSH1 0x40 MLOAD PUSH32 0x8C379A000000000000000000000000000000000000000000000000000000000 DUP2 MSTORE PUSH1 0x4 ADD PUSH2 0x25D SWAP1 PUSH2 0xE61 JUMP JUMPDEST PUSH1 0x40 MLOAD DUP1 SWAP2 SUB SWAP1 REVERT JUMPDEST PUSH0 PUSH0 PUSH0 CALLER PUSH20 0xFFFFFFFFFFFFFFFFFFFFFFFFFFFFFFFFFFFFFFFF AND PUSH20 0xFFFFFFFFFFFFFFFFFFFFFFFFFFFFFFFFFFFFFFFF AND DUP2 MSTORE PUSH1 0x20 ADD SWAP1 DUP2 MSTORE PUSH1 0x20 ADD PUSH0 KECCAK256 PUSH1 0x2 ADD PUSH0 PUSH2 0x100 EXP DUP2 SLOAD DUP2 PUSH1 0xFF MUL NOT AND SWAP1 DUP4 ISZERO ISZERO MUL OR SWAP1 SSTORE POP CALLER PUSH20 0xFFFFFFFFFFFFFFFFFFFFFFFFFFFFFFFFFFFFFFFF AND PUSH32 0xE2343909B8C695B14EB673FA9FFDF88525AC9BD45A365B66862B0C335F350422 PUSH0 PUSH1 0x40 MLOAD PUSH2 0x302 SWAP2 SWAP1 PUSH2 0xF0B JUMP JUMPDEST PUSH1 0x40 MLOAD DUP1 SWAP2 SUB SWAP1 LOG2 JUMP JUMPDEST PUSH1 0x1 PUSH1 0x20 MSTORE DUP1 PUSH0 MSTORE PUSH1 0x40 PUSH0 KECCAK256 PUSH0 SWAP2 POP SWAP1 POP SLOAD DUP2 JUMP JUMPDEST PUSH1 0x3 SLOAD DUP2 JUMP JUMPDEST PUSH0 PUSH20 0xFFFFFFFFFFFFFFFFFFFFFFFFFFFFFFFFFFFFFFFF AND DUP2 PUSH20 0xFFFFFFFFFFFFFFFFFFFFFFFFFFFFFFFFFFFFFFFF AND SUB PUSH2 0x395 JUMPI PUSH1 0x40 MLOAD PUSH32 0x8C379A000000000000000000000000000000000000000000000000000000000 DUP2 MSTORE PUSH1 0x4 ADD PUSH2 0x38C SWAP1 PUSH2 0xF81 JUMP JUMPDEST PUSH1 0x40 MLOAD DUP1 SWAP2 SUB SWAP1 REVERT JUMPDEST PUSH1 0x2 PUSH0 DUP3 PUSH20 0xFFFFFFFFFFFFFFFFFFFFFFFFFFFFFFFFFFFFFFFF AND PUSH20 0xFFFFFFFFFFFFFFFFFFFFFFFFFFFFFFFFFFFFFFFF AND DUP2 MSTORE PUSH1 0x20 ADD SWAP1 DUP2 MSTORE PUSH1 0x20 ADD PUSH0 KECCAK256 PUSH0 SWAP1 SLOAD SWAP1 PUSH2 0x100 EXP SWAP1 DIV PUSH1 0xFF AND PUSH2 0x41E JUMPI PUSH1 0x40 MLOAD PUSH32 0x8C379A000000000000000000000000000000000000000000000000000000000 DUP2 MSTORE PUSH1 0x4 ADD PUSH2 0x415 SWAP1 PUSH2 0xE61 JUMP JUMPDEST PUSH1 0x40 MLOAD DUP1 SWAP2 SUB SWAP1 REVERT JUMPDEST PUSH1 0x1 ISZERO ISZERO PUSH0 PUSH0 DUP4 PUSH20 0xFFFFFFFFFFFFFFFFFFFFFFFFFFFFFFFFFFFFFFFF AND PUSH20 0xFFFFFFFFFFFFFFFFFFFFFFFFFFFFFFFFFFFFFFFF AND DUP2 MSTORE PUSH1 0x20 ADD SWAP1 DUP2 MSTORE PUSH1 0x20 ADD PUSH0 KECCAK256 PUSH1 0x2 ADD PUSH0 SWAP1 SLOAD SWAP1 PUSH2 0x100 EXP SWAP1 DIV PUSH1 0xFF AND ISZERO ISZERO EQ PUSH2 0x4B0 JUMPI PUSH1 0x40 MLOAD PUSH32 0x8C379A000000000000000000000000000000000000000000000000000000000 DUP2 MSTORE PUSH1 0x4 ADD PUSH2 0x4A7 SWAP1 PUSH2 0xFE9 JUMP JUMPDEST PUSH1 0x40 MLOAD DUP1 SWAP2 SUB SWAP1 REVERT JUMPDEST PUSH1 0x64 PUSH1 0x1 PUSH0 DUP4 PUSH20 0xFFFFFFFFFFFFFFFFFFFFFFFFFFFFFFFFFFFFFFFF AND PUSH20 0xFFFFFFFFFFFFFFFFFFFFFFFFFFFFFFFFFFFFFFFF AND DUP2 MSTORE PUSH1 0x20 ADD SWAP1 DUP2 MSTORE PUSH1 0x20 ADD PUSH0 KECCAK256 PUSH0 DUP3 DUP3 SLOAD PUSH2 0x4FD SWAP2 SWAP1 PUSH2 0x1034 JUMP JUMPDEST SWAP3 POP POP DUP2 SWAP1 SSTORE POP DUP1 PUSH20 0xFFFFFFFFFFFFFFFFFFFFFFFFFFFFFFFFFFFFFFFF AND PUSH32 0xE2343909B8C695B14EB673FA9FFDF88525AC9BD45A365B66862B0C335F350422 PUSH1 0x64 PUSH1 0x40 MLOAD PUSH2 0x54B SWAP2 SWAP1 PUSH2 0x10B1 JUMP JUMPDEST PUSH1 0x40 MLOAD DUP1 SWAP2 SUB SWAP1 LOG2 POP JUMP JUMPDEST PUSH0 DUP2 MLOAD GT PUSH2 0x599 JUMPI PUSH1 0x40 MLOAD PUSH32 0x8C379A000000000000000000000000000000000000000000000000000000000 DUP2 MSTORE PUSH1 0x4 ADD PUSH2 0x590 SWAP1 PUSH2 0x1127 JUMP JUMPDEST PUSH1 0x40 MLOAD DUP1 SWAP2 SUB SWAP1 REVERT JUMPDEST PUSH1 0x2 PUSH0 CALLER PUSH20 0xFFFFFFFFFFFFFFFFFFFFFFFFFFFFFFFFFFFFFFFF AND PUSH20 0xFFFFFFFFFFFFFFFFFFFFFFFFFFFFFFFFFFFFFFFF AND DUP2 MSTORE PUSH1 0x20 ADD SWAP1 DUP2 MSTORE PUSH1 0x20 ADD PUSH0 KECCAK256 PUSH0 SWAP1 SLOAD SWAP1 PUSH2 0x100 EXP SWAP1 DIV PUSH1 0xFF AND ISZERO PUSH2 0x623 JUMPI PUSH1 0x40 MLOAD PUSH32 0x8C379A000000000000000000000000000000000000000000000000000000000 DUP2 MSTORE PUSH1 0x4 ADD PUSH2 0x61A SWAP1 PUSH2 0x118F JUMP JUMPDEST PUSH1 0x40 MLOAD DUP1 SWAP2 SUB SWAP1 REVERT JUMPDEST PUSH1 0x40 MLOAD DUP1 PUSH1 0x60 ADD PUSH1 0x40 MSTORE DUP1 DUP3 DUP2 MSTORE PUSH1 0x20 ADD TIMESTAMP DUP2 MSTORE PUSH1 0x20 ADD PUSH1 0x1 ISZERO ISZERO DUP2 MSTORE POP PUSH0 PUSH0 CALLER PUSH20 0xFFFFFFFFFFFFFFFFFFFFFFFFFFFFFFFFFFFFFFFF AND PUSH20 0xFFFFFFFFFFFFFFFFFFFFFFFFFFFFFFFFFFFFFFFF AND DUP2 MSTORE PUSH1 0x20 ADD SWAP1 DUP2 MSTORE PUSH1 0x20 ADD PUSH0 KECCAK256 PUSH0 DUP3 ADD MLOAD DUP2 PUSH0 ADD SWAP1 DUP2 PUSH2 0x690 SWAP2 SWAP1 PUSH2 0x13A1 JUMP JUMPDEST POP PUSH1 0x20 DUP3 ADD MLOAD DUP2 PUSH1 0x1 ADD SSTORE PUSH1 0x40 DUP3 ADD MLOAD DUP2 PUSH1 0x2 ADD PUSH0 PUSH2 0x100 EXP DUP2 SLOAD DUP2 PUSH1 0xFF MUL NOT AND SWAP1 DUP4 ISZERO ISZERO MUL OR SWAP1 SSTORE POP SWAP1 POP POP PUSH1 0x1 PUSH1 0x2 PUSH0 CALLER PUSH20 0xFFFFFFFFFFFFFFFFFFFFFFFFFFFFFFFFFFFFFFFF AND PUSH20 0xFFFFFFFFFFFFFFFFFFFFFFFFFFFFFFFFFFFFFFFF AND DUP2 MSTORE PUSH1 0x20 ADD SWAP1 DUP2 MSTORE PUSH1 0x20 ADD PUSH0 KECCAK256 PUSH0 PUSH2 0x100 EXP DUP2 SLOAD DUP2 PUSH1 0xFF MUL NOT AND SWAP1 DUP4 ISZERO ISZERO MUL OR SWAP1 SSTORE POP PUSH1 0x3 PUSH0 DUP2 SLOAD DUP1 SWAP3 SWAP2 SWAP1 PUSH2 0x724 SWAP1 PUSH2 0x1470 JUMP JUMPDEST SWAP2 SWAP1 POP SSTORE POP CALLER PUSH20 0xFFFFFFFFFFFFFFFFFFFFFFFFFFFFFFFFFFFFFFFF AND PUSH32 0x6B80D365F3EBB979D1707DBCC963D39E49752795929A8052289499C37E741683 DUP3 TIMESTAMP PUSH1 0x40 MLOAD PUSH2 0x771 SWAP3 SWAP2 SWAP1 PUSH2 0x14B7 JUMP JUMPDEST PUSH1 0x40 MLOAD DUP1 SWAP2 SUB SWAP1 LOG2 POP JUMP JUMPDEST PUSH1 0x60 PUSH0 PUSH0 PUSH0 PUSH1 0x2 PUSH0 DUP7 PUSH20 0xFFFFFFFFFFFFFFFFFFFFFFFFFFFFFFFFFFFFFFFF AND PUSH20 0xFFFFFFFFFFFFFFFFFFFFFFFFFFFFFFFFFFFFFFFF AND DUP2 MSTORE PUSH1 0x20 ADD SWAP1 DUP2 MSTORE PUSH1 0x20 ADD PUSH0 KECCAK256 PUSH0 SWAP1 SLOAD SWAP1 PUSH2 0x100 EXP SWAP1 DIV PUSH1 0xFF AND PUSH2 0x80A JUMPI PUSH1 0x40 MLOAD PUSH32 0x8C379A000000000000000000000000000000000000000000000000000000000 DUP2 MSTORE PUSH1 0x4 ADD PUSH2 0x801 SWAP1 PUSH2 0x152F JUMP JUMPDEST PUSH1 0x40 MLOAD DUP1 SWAP2 SUB SWAP1 REVERT JUMPDEST PUSH0 PUSH0 DUP7 PUSH20 0xFFFFFFFFFFFFFFFFFFFFFFFFFFFFFFFFFFFFFFFF AND PUSH20 0xFFFFFFFFFFFFFFFFFFFFFFFFFFFFFFFFFFFFFFFF AND DUP2 MSTORE PUSH1 0x20 ADD SWAP1 DUP2 MSTORE PUSH1 0x20 ADD PUSH0 KECCAK256 PUSH0 ADD PUSH0 PUSH0 DUP8 PUSH20 0xFFFFFFFFFFFFFFFFFFFFFFFFFFFFFFFFFFFFFFFF AND PUSH20 0xFFFFFFFFFFFFFFFFFFFFFFFFFFFFFFFFFFFFFFFF AND DUP2 MSTORE PUSH1 0x20 ADD SWAP1 DUP2 MSTORE PUSH1 0x20 ADD PUSH0 KECCAK256 PUSH1 0x1 ADD SLOAD PUSH0 PUSH0 DUP9 PUSH20 0xFFFFFFFFFFFFFFFFFFFFFFFFFFFFFFFFFFFFFFFF AND PUSH20 0xFFFFFFFFFFFFFFFFFFFFFFFFFFFFFFFFFFFFFFFF AND DUP2 MSTORE PUSH1 0x20 ADD SWAP1 DUP2 MSTORE PUSH1 0x20 ADD PUSH0 KECCAK256 PUSH1 0x2 ADD PUSH0 SWAP1 SLOAD SWAP1 PUSH2 0x100 EXP SWAP1 DIV PUSH1 0xFF AND PUSH1 0x1 PUSH0 DUP10 PUSH20 0xFFFFFFFFFFFFFFFFFFFFFFFFFFFFFFFFFFFFFFFF AND PUSH20 0xFFFFFFFFFFFFFFFFFFFFFFFFFFFFFFFFFFFFFFFF AND DUP2 MSTORE PUSH1 0x20 ADD SWAP1 DUP2 MSTORE PUSH1 0x20 ADD PUSH0 KECCAK256 SLOAD DUP4 DUP1 SLOAD PUSH2 0x91E SWAP1 PUSH2 0x11DA JUMP JUMPDEST DUP1 PUSH1 0x1F ADD PUSH1 0x20 DUP1 SWAP2 DIV MUL PUSH1 0x20 ADD PUSH1 0x40 MLOAD SWAP1 DUP2 ADD PUSH1 0x40 MSTORE DUP1 SWAP3 SWAP2 SWAP1 DUP2 DUP2 MSTORE PUSH1 0x20 ADD DUP3 DUP1 SLOAD PUSH2 0x94A SWAP1 PUSH2 0x11DA JUMP JUMPDEST DUP1 ISZERO PUSH2 0x995 JUMPI DUP1 PUSH1 0x1F LT PUSH2 0x96C JUMPI PUSH2 0x100 DUP1 DUP4 SLOAD DIV MUL DUP4 MSTORE SWAP2 PUSH1 0x20 ADD SWAP2 PUSH2 0x995 JUMP JUMPDEST DUP3 ADD SWAP2 SWAP1 PUSH0 MSTORE PUSH1 0x20 PUSH0 KECCAK256 SWAP1 JUMPDEST DUP2 SLOAD DUP2 MSTORE SWAP1 PUSH1 0x1 ADD SWAP1 PUSH1 0x20 ADD DUP1 DUP4 GT PUSH2 0x978 JUMPI DUP3 SWAP1 SUB PUSH1 0x1F AND DUP3 ADD SWAP2 JUMPDEST POP POP POP POP POP SWAP4 POP SWAP4 POP SWAP4 POP SWAP4 POP SWAP4 POP SWAP2 SWAP4 POP SWAP2 SWAP4 JUMP JUMPDEST PUSH0 PUSH1 0x2 PUSH0 DUP4 PUSH20 0xFFFFFFFFFFFFFFFFFFFFFFFFFFFFFFFFFFFFFFFF AND PUSH20 0xFFFFFFFFFFFFFFFFFFFFFFFFFFFFFFFFFFFFFFFF AND DUP2 MSTORE PUSH1 0x20 ADD SWAP1 DUP2 MSTORE PUSH1 0x20 ADD PUSH0 KECCAK256 PUSH0 SWAP1 SLOAD SWAP1 PUSH2 0x100 EXP SWAP1 DIV PUSH1 0xFF AND SWAP1 POP SWAP2 SWAP1 POP JUMP JUMPDEST PUSH0 PUSH1 0x20 MSTORE DUP1 PUSH0 MSTORE PUSH1 0x40 PUSH0 KECCAK256 PUSH0 SWAP2 POP SWAP1 POP DUP1 PUSH0 ADD DUP1 SLOAD PUSH2 0xA1B SWAP1 PUSH2 0x11DA JUMP JUMPDEST DUP1 PUSH1 0x1F ADD PUSH1 0x20 DUP1 SWAP2 DIV MUL PUSH1 0x20 ADD PUSH1 0x40 MLOAD SWAP1 DUP2 ADD PUSH1 0x40 MSTORE DUP1 SWAP3 SWAP2 SWAP1 DUP2 DUP2 MSTORE PUSH1 0x20 ADD DUP3 DUP1 SLOAD PUSH2 0xA47 SWAP1 PUSH2 0x11DA JUMP JUMPDEST DUP1 ISZERO PUSH2 0xA92 JUMPI DUP1 PUSH1 0x1F LT PUSH2 0xA69 JUMPI PUSH2 0x100 DUP1 DUP4 SLOAD DIV MUL DUP4 MSTORE SWAP2 PUSH1 0x20 ADD SWAP2 PUSH2 0xA92 JUMP JUMPDEST DUP3 ADD SWAP2 SWAP1 PUSH0 MSTORE PUSH1 0x20 PUSH0 KECCAK256 SWAP1 JUMPDEST DUP2 SLOAD DUP2 MSTORE SWAP1 PUSH1 0x1 ADD SWAP1 PUSH1 0x20 ADD DUP1 DUP4 GT PUSH2 0xA75 JUMPI DUP3 SWAP1 SUB PUSH1 0x1F AND DUP3 ADD SWAP2 JUMPDEST POP POP POP POP POP SWAP1 DUP1 PUSH1 0x1 ADD SLOAD SWAP1 DUP1 PUSH1 0x2 ADD PUSH0 SWAP1 SLOAD SWAP1 PUSH2 0x100 EXP SWAP1 DIV PUSH1 0xFF AND SWAP1 POP DUP4 JUMP JUMPDEST PUSH0 DUP2 SWAP1 POP SWAP2 SWAP1 POP JUMP JUMPDEST PUSH2 0xAC6 DUP2 PUSH2 0xAB4 JUMP JUMPDEST DUP3 MSTORE POP POP JUMP JUMPDEST PUSH0 PUSH1 0x20 DUP3 ADD SWAP1 POP PUSH2 0xADF PUSH0 DUP4 ADD DUP5 PUSH2 0xABD JUMP JUMPDEST SWAP3 SWAP2 POP POP JUMP JUMPDEST PUSH0 PUSH1 0x40 MLOAD SWAP1 POP SWAP1 JUMP JUMPDEST PUSH0 PUSH0 REVERT JUMPDEST PUSH0 PUSH0 REVERT JUMPDEST PUSH0 PUSH20 0xFFFFFFFFFFFFFFFFFFFFFFFFFFFFFFFFFFFFFFFF DUP3 AND SWAP1 POP SWAP2 SWAP1 POP JUMP JUMPDEST PUSH0 PUSH2 0xB1F DUP3 PUSH2 0xAF6 JUMP JUMPDEST SWAP1 POP SWAP2 SWAP1 POP JUMP JUMPDEST PUSH2 0xB2F DUP2 PUSH2 0xB15 JUMP JUMPDEST DUP2 EQ PUSH2 0xB39 JUMPI PUSH0 PUSH0 REVERT JUMPDEST POP JUMP JUMPDEST PUSH0 DUP2 CALLDATALOAD SWAP1 POP PUSH2 0xB4A DUP2 PUSH2 0xB26 JUMP JUMPDEST SWAP3 SWAP2 POP POP JUMP JUMPDEST PUSH0 PUSH1 0x20 DUP3 DUP5 SUB SLT ISZERO PUSH2 0xB65 JUMPI PUSH2 0xB64 PUSH2 0xAEE JUMP JUMPDEST JUMPDEST PUSH0 PUSH2 0xB72 DUP5 DUP3 DUP6 ADD PUSH2 0xB3C JUMP JUMPDEST SWAP2 POP POP SWAP3 SWAP2 POP POP JUMP JUMPDEST PUSH0 PUSH0 REVERT JUMPDEST PUSH0 PUSH0 REVERT JUMPDEST PUSH0 PUSH1 0x1F NOT PUSH1 0x1F DUP4 ADD AND SWAP1 POP SWAP2 SWAP1 POP JUMP JUMPDEST PUSH32 0x4E487B7100000000000000000000000000000000000000000000000000000000 PUSH0 MSTORE PUSH1 0x41 PUSH1 0x4 MSTORE PUSH1 0x24 PUSH0 REVERT JUMPDEST PUSH2 0xBC9 DUP3 PUSH2 0xB83 JUMP JUMPDEST DUP2 ADD DUP2 DUP2 LT PUSH8 0xFFFFFFFFFFFFFFFF DUP3 GT OR ISZERO PUSH2 0xBE8 JUMPI PUSH2 0xBE7 PUSH2 0xB93 JUMP JUMPDEST JUMPDEST DUP1 PUSH1 0x40 MSTORE POP POP POP JUMP JUMPDEST PUSH0 PUSH2 0xBFA PUSH2 0xAE5 JUMP JUMPDEST SWAP1 POP PUSH2 0xC06 DUP3 DUP3 PUSH2 0xBC0 JUMP JUMPDEST SWAP2 SWAP1 POP JUMP JUMPDEST PUSH0 PUSH8 0xFFFFFFFFFFFFFFFF DUP3 GT ISZERO PUSH2 0xC25 JUMPI PUSH2 0xC24 PUSH2 0xB93 JUMP JUMPDEST JUMPDEST PUSH2 0xC2E DUP3 PUSH2 0xB83 JUMP JUMPDEST SWAP1 POP PUSH1 0x20 DUP2 ADD SWAP1 POP SWAP2 SWAP1 POP JUMP JUMPDEST DUP3 DUP2 DUP4 CALLDATACOPY PUSH0 DUP4 DUP4 ADD MSTORE POP POP POP JUMP JUMPDEST PUSH0 PUSH2 0xC5B PUSH2 0xC56 DUP5 PUSH2 0xC0B JUMP JUMPDEST PUSH2 0xBF1 JUMP JUMPDEST SWAP1 POP DUP3 DUP2 MSTORE PUSH1 0x20 DUP2 ADD DUP5 DUP5 DUP5 ADD GT ISZERO PUSH2 0xC77 JUMPI PUSH2 0xC76 PUSH2 0xB7F JUMP JUMPDEST JUMPDEST PUSH2 0xC82 DUP5 DUP3 DUP6 PUSH2 0xC3B JUMP JUMPDEST POP SWAP4 SWAP3 POP POP POP JUMP JUMPDEST PUSH0 DUP3 PUSH1 0x1F DUP4 ADD SLT PUSH2 0xC9E JUMPI PUSH2 0xC9D PUSH2 0xB7B JUMP JUMPDEST JUMPDEST DUP2 CALLDATALOAD PUSH2 0xCAE DUP5 DUP3 PUSH1 0x20 DUP7 ADD PUSH2 0xC49 JUMP JUMPDEST SWAP2 POP POP SWAP3 SWAP2 POP POP JUMP JUMPDEST PUSH0 PUSH1 0x20 DUP3 DUP5 SUB SLT ISZERO PUSH2 0xCCC JUMPI PUSH2 0xCCB PUSH2 0xAEE JUMP JUMPDEST JUMPDEST PUSH0 DUP3 ADD CALLDATALOAD PUSH8 0xFFFFFFFFFFFFFFFF DUP2 GT ISZERO PUSH2 0xCE9 JUMPI PUSH2 0xCE8 PUSH2 0xAF2 JUMP JUMPDEST JUMPDEST PUSH2 0xCF5 DUP5 DUP3 DUP6 ADD PUSH2 0xC8A JUMP JUMPDEST SWAP2 POP POP SWAP3 SWAP2 POP POP JUMP JUMPDEST PUSH0 DUP2 MLOAD SWAP1 POP SWAP2 SWAP1 POP JUMP JUMPDEST PUSH0 DUP3 DUP3 MSTORE PUSH1 0x20 DUP3 ADD SWAP1 POP SWAP3 SWAP2 POP POP JUMP JUMPDEST DUP3 DUP2 DUP4 MCOPY PUSH0 DUP4 DUP4 ADD MSTORE POP POP POP JUMP JUMPDEST PUSH0 PUSH2 0xD30 DUP3 PUSH2 0xCFE JUMP JUMPDEST PUSH2 0xD3A DUP2 DUP6 PUSH2 0xD08 JUMP JUMPDEST SWAP4 POP PUSH2 0xD4A DUP2 DUP6 PUSH1 0x20 DUP7 ADD PUSH2 0xD18 JUMP JUMPDEST PUSH2 0xD53 DUP2 PUSH2 0xB83 JUMP JUMPDEST DUP5 ADD SWAP2 POP POP SWAP3 SWAP2 POP POP JUMP JUMPDEST PUSH0 DUP2 ISZERO ISZERO SWAP1 POP SWAP2 SWAP1 POP JUMP JUMPDEST PUSH2 0xD72 DUP2 PUSH2 0xD5E JUMP JUMPDEST DUP3 MSTORE POP POP JUMP JUMPDEST PUSH0 PUSH1 0x80 DUP3 ADD SWAP1 POP DUP2 DUP2 SUB PUSH0 DUP4 ADD MSTORE PUSH2 0xD90 DUP2 DUP8 PUSH2 0xD26 JUMP JUMPDEST SWAP1 POP PUSH2 0xD9F PUSH1 0x20 DUP4 ADD DUP7 PUSH2 0xABD JUMP JUMPDEST PUSH2 0xDAC PUSH1 0x40 DUP4 ADD DUP6 PUSH2 0xD69 JUMP JUMPDEST PUSH2 0xDB9 PUSH1 0x60 DUP4 ADD DUP5 PUSH2 0xABD JUMP JUMPDEST SWAP6 SWAP5 POP POP POP POP POP JUMP JUMPDEST PUSH0 PUSH1 0x20 DUP3 ADD SWAP1 POP PUSH2 0xDD5 PUSH0 DUP4 ADD DUP5 PUSH2 0xD69 JUMP JUMPDEST SWAP3 SWAP2 POP POP JUMP JUMPDEST PUSH0 PUSH1 0x60 DUP3 ADD SWAP1 POP DUP2 DUP2 SUB PUSH0 DUP4 ADD MSTORE PUSH2 0xDF3 DUP2 DUP7 PUSH2 0xD26 JUMP JUMPDEST SWAP1 POP PUSH2 0xE02 PUSH1 0x20 DUP4 ADD DUP6 PUSH2 0xABD JUMP JUMPDEST PUSH2 0xE0F PUSH1 0x40 DUP4 ADD DUP5 PUSH2 0xD69 JUMP JUMPDEST SWAP5 SWAP4 POP POP POP POP JUMP JUMPDEST PUSH32 0x557375C3A172696F206EC3A36F207265676973747261646F0000000000000000 PUSH0 DUP3 ADD MSTORE POP JUMP JUMPDEST PUSH0 PUSH2 0xE4B PUSH1 0x18 DUP4 PUSH2 0xD08 JUMP JUMPDEST SWAP2 POP PUSH2 0xE56 DUP3 PUSH2 0xE17 JUMP JUMPDEST PUSH1 0x20 DUP3 ADD SWAP1 POP SWAP2 SWAP1 POP JUMP JUMPDEST PUSH0 PUSH1 0x20 DUP3 ADD SWAP1 POP DUP2 DUP2 SUB PUSH0 DUP4 ADD MSTORE PUSH2 0xE78 DUP2 PUSH2 0xE3F JUMP JUMPDEST SWAP1 POP SWAP2 SWAP1 POP JUMP JUMPDEST PUSH0 DUP2 SWAP1 POP SWAP2 SWAP1 POP JUMP JUMPDEST PUSH0 DUP2 SWAP1 POP SWAP2 SWAP1 POP JUMP JUMPDEST PUSH0 PUSH2 0xEAB PUSH2 0xEA6 PUSH2 0xEA1 DUP5 PUSH2 0xE7F JUMP JUMPDEST PUSH2 0xE88 JUMP JUMPDEST PUSH2 0xAB4 JUMP JUMPDEST SWAP1 POP SWAP2 SWAP1 POP JUMP JUMPDEST PUSH2 0xEBB DUP2 PUSH2 0xE91 JUMP JUMPDEST DUP3 MSTORE POP POP JUMP JUMPDEST PUSH32 0x436F6E7461206465736174697661646100000000000000000000000000000000 PUSH0 DUP3 ADD MSTORE POP JUMP JUMPDEST PUSH0 PUSH2 0xEF5 PUSH1 0x10 DUP4 PUSH2 0xD08 JUMP JUMPDEST SWAP2 POP PUSH2 0xF00 DUP3 PUSH2 0xEC1 JUMP JUMPDEST PUSH1 0x20 DUP3 ADD SWAP1 POP SWAP2 SWAP1 POP JUMP JUMPDEST PUSH0 PUSH1 0x40 DUP3 ADD SWAP1 POP PUSH2 0xF1E PUSH0 DUP4 ADD DUP5 PUSH2 0xEB2 JUMP JUMPDEST DUP2 DUP2 SUB PUSH1 0x20 DUP4 ADD MSTORE PUSH2 0xF2F DUP2 PUSH2 0xEE9 JUMP JUMPDEST SWAP1 POP SWAP3 SWAP2 POP POP JUMP JUMPDEST PUSH32 0x456E64657265C3A76F20696E76C3A16C69646F00000000000000000000000000 PUSH0 DUP3 ADD MSTORE POP JUMP JUMPDEST PUSH0 PUSH2 0xF6B PUSH1 0x13 DUP4 PUSH2 0xD08 JUMP JUMPDEST SWAP2 POP PUSH2 0xF76 DUP3 PUSH2 0xF37 JUMP JUMPDEST PUSH1 0x20 DUP3 ADD SWAP1 POP SWAP2 SWAP1 POP JUMP JUMPDEST PUSH0 PUSH1 0x20 DUP3 ADD SWAP1 POP DUP2 DUP2 SUB PUSH0 DUP4 ADD MSTORE PUSH2 0xF98 DUP2 PUSH2 0xF5F JUMP JUMPDEST SWAP1 POP SWAP2 SWAP1 POP JUMP JUMPDEST PUSH32 0x557375C3A172696F20696E617469766F00000000000000000000000000000000 PUSH0 DUP3 ADD MSTORE POP JUMP JUMPDEST PUSH0 PUSH2 0xFD3 PUSH1 0x10 DUP4 PUSH2 0xD08 JUMP JUMPDEST SWAP2 POP PUSH2 0xFDE DUP3 PUSH2 0xF9F JUMP JUMPDEST PUSH1 0x20 DUP3 ADD SWAP1 POP SWAP2 SWAP1 POP JUMP JUMPDEST PUSH0 PUSH1 0x20 DUP3 ADD SWAP1 POP DUP2 DUP2 SUB PUSH0 DUP4 ADD MSTORE PUSH2 0x1000 DUP2 PUSH2 0xFC7 JUMP JUMPDEST SWAP1 POP SWAP2 SWAP1 POP JUMP JUMPDEST PUSH32 0x4E487B7100000000000000000000000000000000000000000000000000000000 PUSH0 MSTORE PUSH1 0x11 PUSH1 0x4 MSTORE PUSH1 0x24 PUSH0 REVERT JUMPDEST PUSH0 PUSH2 0x103E DUP3 PUSH2 0xAB4 JUMP JUMPDEST SWAP2 POP PUSH2 0x1049 DUP4 PUSH2 0xAB4 JUMP JUMPDEST SWAP3 POP DUP3 DUP3 ADD SWAP1 POP DUP1 DUP3 GT ISZERO PUSH2 0x1061 JUMPI PUSH2 0x1060 PUSH2 0x1007 JUMP JUMPDEST JUMPDEST SWAP3 SWAP2 POP POP JUMP JUMPDEST PUSH32 0x526567697374726F20646520757375C3A172696F000000000000000000000000 PUSH0 DUP3 ADD MSTORE POP JUMP JUMPDEST PUSH0 PUSH2 0x109B PUSH1 0x14 DUP4 PUSH2 0xD08 JUMP JUMPDEST SWAP2 POP PUSH2 0x10A6 DUP3 PUSH2 0x1067 JUMP JUMPDEST PUSH1 0x20 DUP3 ADD SWAP1 POP SWAP2 SWAP1 POP JUMP JUMPDEST PUSH0 PUSH1 0x40 DUP3 ADD SWAP1 POP PUSH2 0x10C4 PUSH0 DUP4 ADD DUP5 PUSH2 0xABD JUMP JUMPDEST DUP2 DUP2 SUB PUSH1 0x20 DUP4 ADD MSTORE PUSH2 0x10D5 DUP2 PUSH2 0x108F JUMP JUMPDEST SWAP1 POP SWAP3 SWAP2 POP POP JUMP JUMPDEST PUSH32 0x4E6F6D65206EC3A36F20706F64652065737461722076617A696F000000000000 PUSH0 DUP3 ADD MSTORE POP JUMP JUMPDEST PUSH0 PUSH2 0x1111 PUSH1 0x1A DUP4 PUSH2 0xD08 JUMP JUMPDEST SWAP2 POP PUSH2 0x111C DUP3 PUSH2 0x10DD JUMP JUMPDEST PUSH1 0x20 DUP3 ADD SWAP1 POP SWAP2 SWAP1 POP JUMP JUMPDEST PUSH0 PUSH1 0x20 DUP3 ADD SWAP1 POP DUP2 DUP2 SUB PUSH0 DUP4 ADD MSTORE PUSH2 0x113E DUP2 PUSH2 0x1105 JUMP JUMPDEST SWAP1 POP SWAP2 SWAP1 POP JUMP JUMPDEST PUSH32 0x557375C3A172696F206AC3A1207265676973747261646F000000000000000000 PUSH0 DUP3 ADD MSTORE POP JUMP JUMPDEST PUSH0 PUSH2 0x1179 PUSH1 0x17 DUP4 PUSH2 0xD08 JUMP JUMPDEST SWAP2 POP PUSH2 0x1184 DUP3 PUSH2 0x1145 JUMP JUMPDEST PUSH1 0x20 DUP3 ADD SWAP1 POP SWAP2 SWAP1 POP JUMP JUMPDEST PUSH0 PUSH1 0x20 DUP3 ADD SWAP1 POP DUP2 DUP2 SUB PUSH0 DUP4 ADD MSTORE PUSH2 0x11A6 DUP2 PUSH2 0x116D JUMP JUMPDEST SWAP1 POP SWAP2 SWAP1 POP JUMP JUMPDEST PUSH32 0x4E487B7100000000000000000000000000000000000000000000000000000000 PUSH0 MSTORE PUSH1 0x22 PUSH1 0x4 MSTORE PUSH1 0x24 PUSH0 REVERT JUMPDEST PUSH0 PUSH1 0x2 DUP3 DIV SWAP1 POP PUSH1 0x1 DUP3 AND DUP1 PUSH2 0x11F1 JUMPI PUSH1 0x7F DUP3 AND SWAP2 POP JUMPDEST PUSH1 0x20 DUP3 LT DUP2 SUB PUSH2 0x1204 JUMPI PUSH2 0x1203 PUSH2 0x11AD JUMP JUMPDEST JUMPDEST POP SWAP2 SWAP1 POP JUMP JUMPDEST PUSH0 DUP2 SWAP1 POP DUP2 PUSH0 MSTORE PUSH1 0x20 PUSH0 KECCAK256 SWAP1 POP SWAP2 SWAP1 POP JUMP JUMPDEST PUSH0 PUSH1 0x20 PUSH1 0x1F DUP4 ADD DIV SWAP1 POP SWAP2 SWAP1 POP JUMP JUMPDEST PUSH0 DUP3 DUP3 SHL SWAP1 POP SWAP3 SWAP2 POP POP JUMP JUMPDEST PUSH0 PUSH1 0x8 DUP4 MUL PUSH2 0x1266 PUSH32 0xFFFFFFFFFFFFFFFFFFFFFFFFFFFFFFFFFFFFFFFFFFFFFFFFFFFFFFFFFFFFFFFF DUP3 PUSH2 0x122B JUMP JUMPDEST PUSH2 0x1270 DUP7 DUP4 PUSH2 0x122B JUMP JUMPDEST SWAP6 POP DUP1 NOT DUP5 AND SWAP4 POP DUP1 DUP7 AND DUP5 OR SWAP3 POP POP POP SWAP4 SWAP3 POP POP POP JUMP JUMPDEST PUSH0 PUSH2 0x12A2 PUSH2 0x129D PUSH2 0x1298 DUP5 PUSH2 0xAB4 JUMP JUMPDEST PUSH2 0xE88 JUMP JUMPDEST PUSH2 0xAB4 JUMP JUMPDEST SWAP1 POP SWAP2 SWAP1 POP JUMP JUMPDEST PUSH0 DUP2 SWAP1 POP SWAP2 SWAP1 POP JUMP JUMPDEST PUSH2 0x12BB DUP4 PUSH2 0x1288 JUMP JUMPDEST PUSH2 0x12CF PUSH2 0x12C7 DUP3 PUSH2 0x12A9 JUMP JUMPDEST DUP5 DUP5 SLOAD PUSH2 0x1237 JUMP JUMPDEST DUP3 SSTORE POP POP POP POP JUMP JUMPDEST PUSH0 PUSH0 SWAP1 POP SWAP1 JUMP JUMPDEST PUSH2 0x12E6 PUSH2 0x12D7 JUMP JUMPDEST PUSH2 0x12F1 DUP2 DUP5 DUP5 PUSH2 0x12B2 JUMP JUMPDEST POP POP POP JUMP JUMPDEST JUMPDEST DUP2 DUP2 LT ISZERO PUSH2 0x1314 JUMPI PUSH2 0x1309 PUSH0 DUP3 PUSH2 0x12DE JUMP JUMPDEST PUSH1 0x1 DUP2 ADD SWAP1 POP PUSH2 0x12F7 JUMP JUMPDEST POP POP JUMP JUMPDEST PUSH1 0x1F DUP3 GT ISZERO PUSH2 0x1359 JUMPI PUSH2 0x132A DUP2 PUSH2 0x120A JUMP JUMPDEST PUSH2 0x1333 DUP5 PUSH2 0x121C JUMP JUMPDEST DUP2 ADD PUSH1 0x20 DUP6 LT ISZERO PUSH2 0x1342 JUMPI DUP2 SWAP1 POP JUMPDEST PUSH2 0x1356 PUSH2 0x134E DUP6 PUSH2 0x121C JUMP JUMPDEST DUP4 ADD DUP3 PUSH2 0x12F6 JUMP JUMPDEST POP POP JUMPDEST POP POP POP JUMP JUMPDEST PUSH0 DUP3 DUP3 SHR SWAP1 POP SWAP3 SWAP2 POP POP JUMP JUMPDEST PUSH0 PUSH2 0x1379 PUSH0 NOT DUP5 PUSH1 0x8 MUL PUSH2 0x135E JUMP JUMPDEST NOT DUP1 DUP4 AND SWAP2 POP POP SWAP3 SWAP2 POP POP JUMP JUMPDEST PUSH0 PUSH2 0x1391 DUP4 DUP4 PUSH2 0x136A JUMP JUMPDEST SWAP2 POP DUP3 PUSH1 0x2 MUL DUP3 OR SWAP1 POP SWAP3 SWAP2 POP POP JUMP JUMPDEST PUSH2 0x13AA DUP3 PUSH2 0xCFE JUMP JUMPDEST PUSH8 0xFFFFFFFFFFFFFFFF DUP2 GT ISZERO PUSH2 0x13C3 JUMPI PUSH2 0x13C2 PUSH2 0xB93 JUMP JUMPDEST JUMPDEST PUSH2 0x13CD DUP3 SLOAD PUSH2 0x11DA JUMP JUMPDEST PUSH2 0x13D8 DUP3 DUP3 DUP6 PUSH2 0x1318 JUMP JUMPDEST PUSH0 PUSH1 0x20 SWAP1 POP PUSH1 0x1F DUP4 GT PUSH1 0x1 DUP2 EQ PUSH2 0x1409 JUMPI PUSH0 DUP5 ISZERO PUSH2 0x13F7 JUMPI DUP3 DUP8 ADD MLOAD SWAP1 POP JUMPDEST PUSH2 0x1401 DUP6 DUP3 PUSH2 0x1386 JUMP JUMPDEST DUP7 SSTORE POP PUSH2 0x1468 JUMP JUMPDEST PUSH1 0x1F NOT DUP5 AND PUSH2 0x1417 DUP7 PUSH2 0x120A JUMP JUMPDEST PUSH0 JUMPDEST DUP3 DUP2 LT ISZERO PUSH2 0x143E JUMPI DUP5 DUP10 ADD MLOAD DUP3 SSTORE PUSH1 0x1 DUP3 ADD SWAP2 POP PUSH1 0x20 DUP6 ADD SWAP5 POP PUSH1 0x20 DUP2 ADD SWAP1 POP PUSH2 0x1419 JUMP JUMPDEST DUP7 DUP4 LT ISZERO PUSH2 0x145B JUMPI DUP5 DUP10 ADD MLOAD PUSH2 0x1457 PUSH1 0x1F DUP10 AND DUP3 PUSH2 0x136A JUMP JUMPDEST DUP4 SSTORE POP JUMPDEST PUSH1 0x1 PUSH1 0x2 DUP9 MUL ADD DUP9 SSTORE POP POP POP JUMPDEST POP POP POP POP POP POP JUMP JUMPDEST PUSH0 PUSH2 0x147A DUP3 PUSH2 0xAB4 JUMP JUMPDEST SWAP2 POP PUSH32 0xFFFFFFFFFFFFFFFFFFFFFFFFFFFFFFFFFFFFFFFFFFFFFFFFFFFFFFFFFFFFFFFF DUP3 SUB PUSH2 0x14AC JUMPI PUSH2 0x14AB PUSH2 0x1007 JUMP JUMPDEST JUMPDEST PUSH1 0x1 DUP3 ADD SWAP1 POP SWAP2 SWAP1 POP JUMP JUMPDEST PUSH0 PUSH1 0x40 DUP3 ADD SWAP1 POP DUP2 DUP2 SUB PUSH0 DUP4 ADD MSTORE PUSH2 0x14CF DUP2 DUP6 PUSH2 0xD26 JUMP JUMPDEST SWAP1 POP PUSH2 0x14DE PUSH1 0x20 DUP4 ADD DUP5 PUSH2 0xABD JUMP JUMPDEST SWAP4 SWAP3 POP POP POP JUMP JUMPDEST PUSH32 0x557375C3A172696F206EC3A36F20656E636F6E747261646F0000000000000000 PUSH0 DUP3 ADD MSTORE POP JUMP JUMPDEST PUSH0 PUSH2 0x1519 PUSH1 0x18 DUP4 PUSH2 0xD08 JUMP JUMPDEST SWAP2 POP PUSH2 0x1524 DUP3 PUSH2 0x14E5 JUMP JUMPDEST PUSH1 0x20 DUP3 ADD SWAP1 POP SWAP2 SWAP1 POP JUMP JUMPDEST PUSH0 PUSH1 0x20 DUP3 ADD SWAP1 POP DUP2 DUP2 SUB PUSH0 DUP4 ADD MSTORE PUSH2 0x1546 DUP2 PUSH2 0x150D JUMP JUMPDEST SWAP1 POP SWAP2 SWAP1 POP JUMP INVALID LOG2 PUSH5 0x6970667358 0x22 SLT KECCAK256 SAR SWAPN 0xFD NOT 0xD4 GASLIMIT 0x24 RETURNCONTRACT 0x7D SWAP13 SWAP7 0xDF MULMOD 0x2F PREVRANDAO 0x2A PUSH8 0xBD48B6516EC10124 0x28 SWAP4 LOG2 0xAB SAR 0xD8 0x22 PUSH5 0x736F6C6343 STOP ADDMOD 0x1E STOP CALLER "
		},
		"gasEstimates": {
			"creation": {
				"codeDepositCost": "1101400",
				"executionCost": "1145",
				"totalCost": "1102545"
			},
			"external": {
				"RECOMPENSA_POR_USUARIO()": "326",
				"consultarUsuario(address)": "infinite",
				"desativarConta()": "29425",
				"recompensarUsuario(address)": "infinite",
				"registrarUsuario(string)": "infinite",
				"saldosTokens(address)": "2847",
				"totalUsuarios()": "2492",
				"usuarios(address)": "infinite",
				"verificarRegistro(address)": "2936"
			}
		},
		"methodIdentifiers": {
			"RECOMPENSA_POR_USUARIO()": "4b33ddde",
			"consultarUsuario(address)": "cd4205bd",
			"desativarConta()": "6e8fbc70",
			"recompensarUsuario(address)": "ada4823a",
			"registrarUsuario(string)": "bff59291",
			"saldosTokens(address)": "8d83f04b",
			"totalUsuarios()": "a7312953",
			"usuarios(address)": "f6b91ea9",
			"verificarRegistro(address)": "d9b03e37"
		}
	},
	"abi": [
		{
			"anonymous": false,
			"inputs": [
				{
					"indexed": true,
					"internalType": "address",
					"name": "endereco",
					"type": "address"
				},
				{
					"indexed": false,
					"internalType": "uint256",
					"name": "valor",
					"type": "uint256"
				},
				{
					"indexed": false,
					"internalType": "string",
					"name": "motivo",
					"type": "string"
				}
			],
			"name": "RecompensaEnviada",
			"type": "event"
		},
		{
			"anonymous": false,
			"inputs": [
				{
					"indexed": true,
					"internalType": "address",
					"name": "endereco",
					"type": "address"
				},
				{
					"indexed": false,
					"internalType": "string",
					"name": "nome",
					"type": "string"
				},
				{
					"indexed": false,
					"internalType": "uint256",
					"name": "dataRegistro",
					"type": "uint256"
				}
			],
			"name": "UsuarioRegistrado",
			"type": "event"
		},
		{
			"inputs": [],
			"name": "RECOMPENSA_POR_USUARIO",
			"outputs": [
				{
					"internalType": "uint256",
					"name": "",
					"type": "uint256"
				}
			],
			"stateMutability": "view",
			"type": "function"
		},
		{
			"inputs": [
				{
					"internalType": "address",
					"name": "carteira",
					"type": "address"
				}
			],
			"name": "consultarUsuario",
			"outputs": [
				{
					"internalType": "string",
					"name": "nome",
					"type": "string"
				},
				{
					"internalType": "uint256",
					"name": "dataRegistro",
					"type": "uint256"
				},
				{
					"internalType": "bool",
					"name": "ativo",
					"type": "bool"
				},
				{
					"internalType": "uint256",
					"name": "saldoToken",
					"type": "uint256"
				}
			],
			"stateMutability": "view",
			"type": "function"
		},
		{
			"inputs": [],
			"name": "desativarConta",
			"outputs": [],
			"stateMutability": "nonpayable",
			"type": "function"
		},
		{
			"inputs": [
				{
					"internalType": "address",
					"name": "carteira",
					"type": "address"
				}
			],
			"name": "recompensarUsuario",
			"outputs": [],
			"stateMutability": "nonpayable",
			"type": "function"
		},
		{
			"inputs": [
				{
					"internalType": "string",
					"name": "nome",
					"type": "string"
				}
			],
			"name": "registrarUsuario",
			"outputs": [],
			"stateMutability": "nonpayable",
			"type": "function"
		},
		{
			"inputs": [
				{
					"internalType": "address",
					"name": "",
					"type": "address"
				}
			],
			"name": "saldosTokens",
			"outputs": [
				{
					"internalType": "uint256",
					"name": "",
					"type": "uint256"
				}
			],
			"stateMutability": "view",
			"type": "function"
		},
		{
			"inputs": [],
			"name": "totalUsuarios",
			"outputs": [
				{
					"internalType": "uint256",
					"name": "",
					"type": "uint256"
				}
			],
			"stateMutability": "view",
			"type": "function"
		},
		{
			"inputs": [
				{
					"internalType": "address",
					"name": "",
					"type": "address"
				}
			],
			"name": "usuarios",
			"outputs": [
				{
					"internalType": "string",
					"name": "nome",
					"type": "string"
				},
				{
					"internalType": "uint256",
					"name": "dataRegistro",
					"type": "uint256"
				},
				{
					"internalType": "bool",
					"name": "ativo",
					"type": "bool"
				}
			],
			"stateMutability": "view",
			"type": "function"
		},
		{
			"inputs": [
				{
					"internalType": "address",
					"name": "carteira",
					"type": "address"
				}
			],
			"name": "verificarRegistro",
			"outputs": [
				{
					"internalType": "bool",
					"name": "",
					"type": "bool"
				}
			],
			"stateMutability": "view",
			"type": "function"
		}
	]
}